:020000040000FA
:06000000020B830202481E
:03002B0002093D8A
:030033000206BB07
:030043000207CBE6
:0300530002017D2A
:03006B00020695F5
:100083000201DC0100F8EF0700001000FFFF000091
:10009300070400000F010147726F757000FF040031
:1000A300100502640A2FAC092FAC09C0C1C2C3C436
:1000B300C5C6C7C8C9CACBCCCDCECF5A69674265BE
:1000C30065416C6C69616E636530390100FFFFF255
:1000D300E0A1610000000000012A855F0D650D713C
:1000E3000D6B0D0020FD000206FFFF1E08004318E4
:1000F3000C1E002C0100000516000000000000008B
:1001030000000000000000000008040102030003D7
:1001130072840124850104020000CB18000000E86A
:10012300030000FFFF421901E803000064006400BC
:10013300A0BB0D00A0BB0D000202070101010105D8
:100143001E02051E020A0A01010108090103B80B78
:1001530002803E0102E8030A05000134121401057E
:10016300030101FF0F10FEFF5A2A000000002E2991
:1001730000000000FF000000FF00C0E074F1120463
:100183005FA2AFE433F509D2AF85A708AFA1EF555E
:1001930008FE74105E6006120F5775A1EF74085EB7
:1001A3006008120F5D75A1F78024EFA2E092F0E5DD
:1001B30008A2E082F05017906198E0F8900914E0EB
:1001C300C398A2D265D0335002E8F075A1FEE509C9
:1001D300A2E092AF7F020204BEC0E074F212045F99
:1001E300A2AFE433FED2AF9061A4E0F8759B00E5C3
:1001F3009158540860087591F7120FAB8023E5916D
:1002030058541060087591EF120FB18014E591A254
:10021300E092F0E8A2E082F05007E0C2E0F01210B2
:10022300FB9061A3E0F8E5E9585404600E1210D185
:1002330075E9FB906193E0A2E640F2EEA2E092AF93
:100243007F010204BEC0E074F212045FA2AFE43384
:10025300FED2AF9061A5E0F8E5BF5854046006757F
:10026300BFFB12111380D4C3E498F8E499F9120286
:10027300AB8026C3E49AFAE49BFBE920E7E9120288
:10028300ABE498F8E499F922C3E498F8E499F912F5
:1002930002ABE498F8E499F9C3E49AFAE49BFB22ED
:1002A300EB20E7CFE920E7E0B90010BB0008E88ABC
:1002B300F084F8AAF022E4FBC8FA22EB70227B1048
:1002C300C833C8C933C9335007C39AC3DBF28006A6
:1002D3009A50012ADBEAC833F4C8C933F4C9FA22B5
:1002E30075F008E4C833C8C933C933C99AC99B50E8
:1002F30004C92AC93BD5F0ECFBC833F4C8E4C9FAF6
:1003030022080808EAC0E0EBC0E086F0E7A4FA1888
:100313000986F0E7A42AFA180986F0E7A42AFA184E
:100323000986F0E7A42AFA1986F0E7A4FBE5F02A88
:10033300FA190886F0E7A42BFBE5F03AFA190886C8
:10034300F0E7A42BFBE5F03AFA18180986F0E7A4C6
:10035300C5F02BFBE43AFA1908E7C5F0C6A426F664
:10036300E5F03BFBE43AFA1886F0E7A4F6E5F0087B
:1003730026F6E43B08F6E43A08F6D0E0FBD0E0FAD0
:1003830022E4CFC0E0E4CEC0E0E4CDC0E0E4CCC0E2
:10039300E075F020E626F608E633F608E633F608BD
:1003A300E633F6181818EC33FCED33FDEE33FEEFAD
:1003B30033FFC3EC9709ED9709EE9709EF971919E6
:1003C30019400FFFEC97FC09ED97FD09EE97FE1915
:1003D3001906D5F0BFECF709EDF709EEF709EFF7CA
:1003E300191919D0E0FCD0E0FDD0E0FED0E0FF22E7
:1003F3002518C582C0E0E51934FFC583C0E0E518C0
:10040300C3958224F810AF08858319858218800864
:10041300858319858218D2AFCEF0A3E520F0A378A7
:1004230008E608F0A3DEFAEFF0A3E58124FAF8E684
:1004330008F0A3E608F0A3E608F0A30808E608F02E
:10044300A3E608F0A315811581D0E0FED0E0F815EE
:100453008115811581E8C0E0EEC0E022C0D02518E7
:10046300C582C0E0E51934FFC583C0E0E518C39534
:100473008224F310AF088583198582188008858349
:1004830019858218D2AFC8F0A3E9F0A3EAF0A3EB71
:10049300F0A37908E709F0A3D8FAECF0A3EDF0A3F1
:1004A300EEF0A3EFF0A3D0E0F0A3D0E0F0A3D0E010
:1004B300F0A3E520F0A3E5F0F0A3228519838518C6
:1004C30082E0C0E0A3E0F9A3E0FAA3E0FBA378088D
:1004D300E0F608A3DFFAE0FCA3E0FDA3E0FEA3E05F
:1004E300FFA3E0C0E0A3E0C0E0A3E0F5D0A3E0F504
:1004F30020A3E0A3F5F010AF088583198582188047
:1005030008858319858218D2AFD082D083D0E0F8D2
:10051300D0E032120BFDB90003020555E49004014B
:100523007886791A8002F0A3D8FCD9FA7A867B1DE3
:1005330090008678F879018015E493A3AD82AE83A9
:100543008A828B83F0A3AA82AB838D828E83D8E9C0
:10055300D9E775826F7583BA74061208B07582F392
:1005630075832774001208B00375F0108E1A8F1B61
:1005730085821F85831E851882851983E0CEA3E0BB
:10058300CF851F82851E83EBC9EAC8EDCBECCAC3B6
:10059300E833C8E933C9EA33CAEB33CBC3EA9EF580
:1005A3001DEB9FF51CB35004AB1CAA1DEC33CCED23
:1005B30033CDD5F0DAAE1AAF1B22D083D082ECC094
:1005C300E0EDC0E0E493A3FCE493A3FDED4C600DE8
:1005D3001206D9EC24FFFCED34FFFD80EFE493A376
:1005E300FCE493A3FDED4C600D120776EC24FFFCB5
:1005F300ED34FFFD80EFD0E0FDD0E0FCE493A3C039
:10060300E0E493C0E022851983851882E0A3FEE02D
:10061300A3F5207808E0A3F608DFFAE0A3FFE0A340
:10062300C0E0E0A3C0E0E0A3C0E0E0A3C0E0E0A33B
:10063300C0E010AF08858218858319800885821869
:10064300858319D2AFD083D0820208B6D083D082FB
:10065300E9C0E0E493A3C386F0C5F095F0F908E49C
:1006630093A386F0C5F095F0700BE493A3C3994070
:1006730005E9048002A3E475F002A42582F582E56E
:10068300F03583F583D0E0F9E493A3C0E0E493C0AD
:10069300E022C0E074F212045FA2AFE433FED2AFF3
:1006A300E589A2E15003120E61758900C2C5EEA26D
:1006B300E092AF7F010204BEC0E074F212045FA2B5
:1006C300AFE433FED2AFE58BA2E05003120E6175A7
:1006D3008B00C2E880D8C0E0C3E49396087401930A
:1006E3009618400FE49366700808740193661870B7
:1006F300007019A3A3C3E49396087401939618A3F7
:10070300A3400DD0E0D0E0D0E00205F9A3A3A3A35A
:10071300A3A3D0E0227404800474028000CCC0E060
:10072300EDC0E0E518C39CCCAD1950011D10AF0618
:100733008C188D1980068C188D19D2AF120832D0FF
:10074300E0FDD0E0FC2274028000CCC0E0EDC0E00C
:10075300E518C39CCCAD1950011D10AF068C188D44
:100763001980068C188D19D2AF1207EED0E0FDD098
:10077300E0FC22C0E0C0F088F0E4936670080874DF
:10078300019366187000A8F0A3A3700BD0F0D0E01B
:10079300D0E0D0E00205F9A3A3D0F0D0E022D083CB
:1007A300D082CCC0E0E493A360061208721470FAFE
:1007B300E493A360061209D01470FAD0E0FCE4932A
:1007C300A3C0E0E493C0E022C0E074F212045FA28D
:1007D300AFE433FED2AFC2C0E5D1A2E45003120EA0
:1007E300C7EEA2E092AF7F010204BECAC0E0E49369
:1007F300A3C582CCC582C583CDC583F0A3C582CCF6
:10080300C582C583CDC583DAE5D0E0CA22A2E792CB
:10081300D65002F40430F70663F0FF05F0B340034B
:1008230084800384F40430D60563F0FF05F022CA04
:10083300C0E0E0A3C582CCC582C583CDC583F0A348
:10084300C582CCC582C583CDC583DAE6D0E0CA2292
:10085300C008C3E096F50808A3E096420808A3E0A1
:1008630096420808A3E09645087001D3D00822C039
:10087300E0E493A3D39C5010E493A3C39C400AD019
:10088300E0D0E0D0E00207BEA3A3A3D0E02270092A
:10089300080808226016181818C6C333C608C633DA
:1008A300C608C633C608C633C6D5E0EA22C09FF5DC
:1008B3009FE473D09F22D083D082C09FE493C0E093
:1008C300740193C0E0740293F59F22C5822518C575
:1008D30082C583351910AF07F5198582188007F58E
:1008E30019858218D2AFC583227404800A740380E9
:1008F30006740280027401C0E0F404120922D0E0FD
:10090300120BC02200C0D0251810AF08F518500CE8
:1009130005198008F51850020519D2AFD0D0222549
:1009230018F58210AF08F518400C15198008F51852
:1009330040021519D2AF85198322C0E0C0D0E8C0A8
:10094300E0A8A8D2AFC2C7E8A2E792AFD0E0F8D040
:10095300D0D0E032BB0102E722C082C08389828A01
:1009630083BB0003E08002E493D083D0822260162D
:10097300080808C6C313C618C613C618C613C61874
:10098300C613C6D5E0EA222518F8E43519F922255D
:1009930018FAE43519FB222518FCE43519FD22C3A6
:1009A300E0C696F608A3E0C696F608A3E0C696F658
:1009B30008A3E0C696F622251810AF08F518400CD8
:1009C30015198008F51840021519D2AF22C0E0E4CA
:1009D30093A36C7009D0E0D0E0D0E00207BEA3A3DC
:1009E300D0E022E066701008A3E066700A08A3E076
:1009F30066700408A3E06622E76670100809E766DC
:100A0300700A0809E76670040809E76622C3E096DE
:100A130008A3E09608A3E09608A3E096A2D265D0C7
:100A23003322C3E697F60809E697F60809E697F630
:100A33000809E697F622C3E096F008A3E096F008CB
:100A4300A3E096F008A3E096F022C3E4939608741B
:100A53000193960874029396087403939622E056C2
:100A6300F608A3E056F608A3E056F608A3E056F608
:100A730022E056F008A3E056F008A3E056F008A3DE
:100A8300E056F022E026F008A3E036F008A3E036B3
:100A9300F008A3E036F022E026F608A3E036F608D5
:100AA300A3E036F608A3E036F622E627F60809E6C1
:100AB30037F60809E637F60809E637F622E647F679
:100AC3000809E647F60809E647F60809E647F62265
:100AD300E046F608A3E046F608A3E046F608A3E0DE
:100AE30046F622E046F008A3E046F008A3E046F00D
:100AF30008A3E046F022E657F60809E657F6080988
:100B0300E657F60809E657F622E493F608740193CC
:100B1300F608740293F608740393F62270042260B5
:100B23000D18C6C333C608C633C6D5E0F41822E48D
:100B3300C396F608E496F608E496F608E496F622D9
:100B4300C6F4C608C6F4C608C6F4C608C6F4C62268
:100B5300600D08C6A2E713C618C613C6D5E0F32274
:100B6300C3E7960809E7960809E7960809E7962276
:100B7300C3E09608A3E09608A3E09608A3E09622B4
:100B830075D00075813F75180175190400020516AB
:100B9300E6F008A3E6F008A3E6F008A3E6F0226077
:100BA3000C08C6C313C618C613C6D5E0F422E0F674
:100BB30008A3E0F608A3E0F608A3E0F622CAC0E023
:100BC300E6F0A308DAFAD0E0FA22E8F0A3E9F0A30A
:100BD300EAF0A3EBF022E0F8A3E0F9A3E0FAA3E044
:100BE300FB22EAF0A3EBF0A3ECF0A3EDF022E0FA92
:100BF300A3E0FBA3E0FCA3E0FD22E5C754F8440116
:100C0300F5C77901222518F582E43519F58322C247
:100C1300AF75D69F020000221208B9128804120889
:100C2300B9CE88041208B9FE88041208B94B8904A6
:100C33001208B9DF89041208B9888A041208B9D9DD
:100C43008A041208B91D8B041208B9C18B04120857
:100C5300B92E8C041208B95D8C041208B9708D0486
:100C63001208B9908D041208B9F48D041208B9D092
:100C73008E041208B9FD90041208B9AB910412084E
:100C8300B94394041208B9C894041208B93F9704ED
:100C93001208B97997041208B9D598041208B9E86B
:100CA30098041208B92999041208B9C19A041208C0
:100CB300B975CC051208B9F1CC051208B924CD05D4
:100CC3001208B952CD051208B997CF051208B9B663
:100CD300CF051208B9FBCF051208B991D005120848
:100CE300B9DDD0051208B96FD1051208B948D2058C
:100CF3001208B999D2051208B9FED2051208B971C2
:100D0300D3051208B9B5D3051208B90DD4051208D5
:100D1300B92FD4051208B9BFD4051208B950D505A7
:100D23001208B99CD5051208B9C8D5051208B90926
:100D3300D6051208B9A1D7051208B98DD80512082E
:100D4300B96FD9051208B98D9C041208B9C09C0467
:100D53001208B9089D041208B9149F041208B97D3A
:100D6300A1041208B9B0A1041208B98CA404120892
:100D7300B942A7041208B9D8A7041208B956AB049C
:100D83001208B927AC041208B98BAD041208B90DC7
:100D9300AE041208B905AF041208B946B10412082B
:100DA300B9CDB1041208B9CEB3041208B9F4B6042C
:100DB3001208B9F7B6041208B90AB7041208B957EA
:100DC300B7041208B9EFA7051208B9C3AC05120896
:100DD300B927AD051208B94CAE051208B936B205EC
:100DE3001208B915B6051208B935B8051208B97B4A
:100DF300B8051208B94ABA051208B934CC06120864
:100E0300B945CC061208B9E3CC061208B9FDCC06E5
:100E13001208B9F6FF011208B9E1FF011208B9ACD3
:100E2300CD061208B9BCCD061208B9D4CD061208F6
:100E3300B93CCE061208B92FC9061208B9B3C906C0
:100E43001208B91BCA061208B9F4C3061208B9136B
:100E5300C4061208B980C4061208B9C5C40612082C
:100E6300B91EC5061208B906CF061208B909CF067E
:100E73001208B90CCF061208B90FCF061208B9121F
:100E8300CF061208B99FAA061208B9ADAA0612081E
:100E9300B926AB061208B9FBAB061208B9CDAD06ED
:100EA3001208B9C6FF051208B94399061208B9AF6B
:100EB30099061208B9679A061208B9549B061208D4
:100EC300B9C99C061208B9309D061208B9849D065B
:100ED3001208B98D9D061208B99D9D061208B91016
:100EE3009E061208B9269E061208B9309E061208FD
:100EF300B9617A001208B98D7A001208B9247D000D
:100F03001208B9647D001208B9A07D001208B9B4B3
:100F13007D001208B9CD7D001208B9BE7E0012080B
:100F2300B9707F001208B9847F001208B95DC50645
:100F33001208B981C5061208B99AC5061208B9D8AC
:100F4300C5061208B908C6061208B935C60612083E
:100F5300B99BC6061208B99EC6061208B9A8C606EA
:100F63001208B9B5C6061208B9C8B7061208B9E817
:100F7300B7061208B927B8061208B945B806120809
:100F8300B960B8061208B9C6B8061208B9D2B806CD
:100F93001208B92FB9061208B93EB9061208B96288
:100FA300B9061208B923BA061208B930BA061208EC
:100FB300B941BA061208B946CE061208B95ECE0682
:100FC3001208B98ACE061208B9A6FB041208B900A2
:100FD300FD041208B90EFD041208B921FD0412081C
:100FE300B936FD041208B94BFD041208B95EFD04BD
:100FF3001208B9DAFD041208B93FFE041208B9D584
:10100300FE041208B9AEFF041208B9BEFF041208A9
:10101300B9CDFF041208B913CD061208B937CD06AE
:101023001208B95FCD061208B987CD061208B96157
:10103300BF061208B988BF061208B9A6BF06120870
:10104300B915C0061208B9F5B4061208B90EB506EB
:101053001208B91AB5061208B92EB5061208B94C0A
:10106300B5061208B956B5061208B960B5061208D6
:10107300B973B5061208B9F9B5061208B96EB60602
:101083001208B99DB6061208B9EBB6061208B93AAA
:10109300B7061208B955B7061208B95FB7061208A2
:1010A300B970B7061208B9B3B7061208B996FF01AB
:1010B3001208B954F6031208B980F6031208B99D51
:1010C300F6031208B9B0F6031208B9CBF6031208F7
:1010D300B925F7031208B953F7031208B963FB03E1
:1010E3001208B9C1FC031208B9F3FC031208B9567C
:1010F300FD031208B9C2FE031208B9EAFE0312087F
:10110300B9FFFE031208B90FFF031208B94FFF031B
:101113001208B991FF031208B9A1FF031208B9FF1E
:10112300C7061208B919C8061208B941C806120839
:10113300B95AC8061208B97EC8061208B99CC8066F
:101143001208B9B3C8061208B9E1C8061208B9FCF7
:10115300C8061208B98DCE061208B932AE061208B7
:10116300B942AE061208B947AF061208B979AF06FD
:101173001208B9A9AF061208B9CCAF061208B9E331
:10118300AF061208B91DB0061208B982B0061208DC
:10119300B9C4B0061208B90BB1061208B938B106C2
:1011A3001208B963B1061208B9F27F001208B9F543
:1011B3007F001208B9F87F001208B909BD061208AA
:1011C300B929BD061208B90FBE061208B931BF0608
:1011D3001208B934CB061208B96ACB061208B982D1
:1011E300CB061208B9C4CB061208B9D4CB06120831
:1011F300B9E3CB061208B927CC061208B931CC06DD
:101203001208B9EB91061208B91692061208B95FD3
:1012130092061208B9C892061208B9E79206120894
:10122300B90093061208B9A293061208B9AB930644
:101233001208B9FC93061208B92594061208B932AC
:1012430094061208B9A394061208B9319506120838
:10125300B97F95061208B9B595061208B916960610
:101263001208B93F96061208B9B696061208B912C3
:1012730097061208B94F97061208B98697061208FF
:10128300B99897061208B9AA97061208B9C997061A
:101293001208B9D297061208B98D98061208B9D95F
:1012A30098061208B91799061208B9BFC60612089C
:1012B300B9B6C1061208B9ECC1061208B934C206A0
:1012C3001208B98DC3061208B90080051208B93196
:1012D30081051208B96D81051208B9278305120823
:1012E300B95183051208B9CA85051208B90A8605DA
:1012F3001208B99E87051208B93D88051208B995E9
:1013030088051208B92889051208B96289051208E7
:10131300B9A489051208B9178B051208B9978C056A
:101323001208B9D48E051208B9028F051208B92E16
:101333008F051208B9378F051208B9948F05120863
:10134300B92490051208B96093051208B9E2930510
:101353001208B9D6FF021208B9ECFF021208B9F15C
:10136300A2061208B907A3061208B9ABA30612080E
:10137300B9EAA3061208B907A4061208B938A406E5
:101383001208B985A4061208B9B9A4061208B9F45B
:10139300A4061208B9E9A6061208B9987F00120834
:1013A300B934CA061208B993CA061208B9D1CA06D3
:1013B3001208B912CB061208B90080031208B90C3F
:1013C30080031208B96F82031208B97982031208E5
:1013D300B90B83031208B94783031208B941840385
:1013E3001208B9A084031208B92285031208B99719
:1013F30085031208B9E185031208B95C8603120854
:10140300B91B88031208B9E189031208B9E78A03F3
:101413001208B9EE8B031208B9498E031208B9BE3C
:101423008F031208B95B90031208B9A7910312083E
:10143300B9A792031208B91994031208B9B998030A
:101443001208B9A399031208B9259A031208B94AD5
:101453009A031208B96F9A031208B90A9B03120878
:10146300B9289B031208B9469B031208B9B79B031B
:101473001208B9D69B031208B9039C031208B904D6
:101483009D031208B9ED9D031208B9849F03120846
:10149300B9A59F031208B94BA0031208B992A00380
:1014A3001208B904A1031208B987A1031208B9EC01
:1014B300A1031208B949A2031208B9ECA203120846
:1014C300B961A3031208B99CA3031208B9FEA303CD
:1014D3001208B968A5031208B9E5A6031208B98C66
:1014E300A7031208B9E4A9031208B92EAA03120824
:1014F300B943AA031208B994AA031208B905AB03A6
:101503001208B935AB031208B9A6AB031208B945E3
:10151300AC031208B95AAE031208B9F0B0031208AB
:10152300B9FDB1031208B902B6031208B9CFB60365
:101533001208B9ECB7031208B9A0B9031208B965C8
:10154300F2011208B91DF3011208B996F30112084A
:10155300B992F4011208B99CF5011208B926F601F3
:101563001208B952F7011208B973F7011208B91733
:10157300F8011208B93AF9011208B9E8F901120899
:10158300B964FD011208B9CAF0021208B95CF1028C
:101593001208B9D3F1021208B9F3F4021208B9A57B
:1015A300F6021208B9F0F8021208B93DFA0212085D
:1015B300B9E2FC021208B90CFD021208B93CFD02A3
:1015C3001208B9D6FD021208B96DFE021208B97EDF
:1015D300FE021208B985FE021208B909FF021208B9
:1015E300B952FF021208B949DA051208B96FDB05CF
:1015F3001208B9D4DF051208B9DBE0051208B907F0
:10160300E1051208B9B8E2051208B9C6E2051208E5
:10161300B9C9E2051208B970E3051208B995E305E3
:101623001208B9D1CE061208B9D2B7041208B9010B
:10163300B8041208B97EB8041208B9D4B904120860
:10164300B9BDBA041208B9D9BB041208B9FEBB0468
:101653001208B950BC041208B9DFBC041208B9233C
:10166300BD041208B960BD041208B94ABE041208C9
:10167300B9A5BE041208B907C0041208B9E6C0042C
:101683001208B934C2041208B917C3041208B950B6
:10169300C3041208B96FC3041208B9BAC304120809
:1016A300B9DAC3041208B993C4041208B96CC504A7
:1016B3001208B9C7C5041208B907C6041208B90944
:1016C300C7041208B9ABC9041208B9D1C904120876
:1016D300B94CCA041208B971CA041208B9F3CA048E
:1016E3001208B9CCCB041208B90ACC041208B98E7B
:1016F300CC041208B976CD041208B979CD041208C6
:10170300B983CD041208B98DCD041208B990CD0464
:101713001208B9F9CD041208B932CE041208B9453A
:10172300CE041208B96CCE041208B990CE04120884
:10173300B9CBCE041208B93ECF041208B941CF0485
:101743001208B94BCF041208B987CF041208B9BCE9
:10175300CF041208B9DBCF041208B987FF021208BD
:10176300B99FFF021208B9FB7F001208B9918A06DC
:101773001208B9E08A061208B99E8C061208B958F5
:101783008E061208B9968E061208B9C38F06120880
:10179300B9CE90061208B9F090061208B93A91062C
:1017A3001208B9BB91061208B97BCB021208B99A89
:1017B300CB021208B93DCC021208B986CC0212083A
:1017C300B9F6CC021208B96ECD021208B9D5CD0212
:1017D3001208B9D8CD021208B920CE021208B9A452
:1017E300CE021208B92CCF021208B92FCF02120869
:1017F300B9BACF021208B9FDCF021208B989D402CF
:101803001208B928D6021208B967D6021208B9EB32
:10181300D9021208B924DB021208B9E9DB02120863
:10182300B98DDC021208B9DBDC021208B964DF02ED
:101833001208B931E1021208B9AEE1021208B9BDCA
:10184300E4021208B929E5021208B935E6021208C2
:10185300B96BE9021208B97BE9021208B9F6EA0288
:101863001208B97AEB021208B9B8EC021208B9C12E
:10187300ED021208B92DEF021208B972EF02120835
:10188300B91DF0021208B992E6041208B92DE70453
:101893001208B9A0E7041208B92AE8041208B983A8
:1018A300E8041208B9CEE8041208B92DE9041208B5
:1018B300B93AEA041208B957ED041208B98DEE04D7
:1018C3001208B916EF041208B91AF1041208B9BEC6
:1018D300F1041208B94FF2041208B933F3041208E1
:1018E300B915F4041208B9F7F5041208B96CF70432
:1018F3001208B97BF8041208B908F9041208B914DC
:10190300FA041208B935BB051208B99ABB051208C7
:10191300B9E2BB051208B935BC051208B992BC057A
:101923001208B9E8BC051208B961BD051208B9BCB3
:10193300BD051208B9CDBE051208B9C08906120843
:10194300B9D5BF051208B9E6BF051208B9FEBF0530
:101953001208B90DC1051208B91DC2051208B9262E
:10196300C2051208B94AC2051208B95BC2051208BA
:10197300B97AC2051208B991C2051208B98AC3051A
:101983001208B996C4051208B9A0C4051208B90F04
:10199300C5051208B974C5051208B97EC505120834
:1019A300B97BC6051208B9C9C6051208B9938504DF
:1019B3001208B900CA051208B9AACA051208B91A49
:1019C300CB051208B936CB051208B92ECC0512087F
:1019D300B9BBB1061208B951B3061208B919B40656
:1019E3001208B981B4061208B9F6A6061208B9148A
:1019F300A7061208B958A7061208B97EA706120847
:101A0300B9A5A7061208B9BDA7061208B95FA806AB
:101A13001208B9A1A8061208B9C3A9061208B9CCBD
:101A2300A9061208B9D5A9061208B9DEA906120833
:101A3300B9E8A9061208B9439E061208B977A206A7
:101A43001208B985A2061208B98AA2061208B99625
:101A5300BB061208B9D1FF031208B9DB2D00120827
:101A6300B90D2E001208B9792E001208B9142F00EF
:101A73001208B9B32F001208B9F82F001208B91AC7
:101A830030001208B93330001208B9593000120877
:101A9300B99730001208B9DB30001208B9FD3000E5
:101AA3001208B95F31001208B92632001208B9DDF5
:101AB30032001208B94F33001208B921340012085A
:101AC300B98634001208B9D834001208B9F43400C6
:101AD3001208B91F35001208B92637001208B97A5F
:101AE30038001208B99C38001208B9D0380012081F
:101AF300B9F138001208B90039001208B90B3900DE
:101B03001208B9BB39001208B9243A001208B9D136
:101B13003A001208B9093B001208B9CF3B0012087A
:101B2300B9DC3C001208B9263D001208B9B53D00E6
:101B33001208B99A3E001208B9283F001208B95199
:101B43003F001208B9C33F001208B95740001208FA
:101B5300B94941001208B96B41001208B9C74200E4
:101B63001208B9E042001208B9F342001208B9A8FA
:101B730043001208B9B843001208B9BA4400120866
:101B8300B93145001208B96045001208B96646002C
:101B93001208B9AC46001208B97848001208B950C7
:101BA3004C001208B95A4C001208B96E4C001208C6
:101BB300B9784C001208B9824C001208B98C4C0059
:101BC3001208B9A54C001208B9AF4C001208B9238A
:101BD3004D001208B92E4D001208B9534D001208DA
:101BE300B95E4D001208B9AC4D001208B9B64D00EC
:101BF3001208B9C14D001208B9E54D001208B90920
:101C03004E001208B9654E001208B9AB4E00120817
:101C1300B9C84E001208B9454F001208B97C4F00ED
:101C23001208B9BB4F001208B90850001208B98A4C
:101C330050001208B92351001208B9F352001208D8
:101C4300B95153001208B96D54001208B9935400E6
:101C53001208B9D255001208B9F858001208B93958
:101C63005B001208B9155D001208B9AB5D001208DC
:101C7300B9D25F001208B97E60001208B9B36000E0
:101C83001208B91861001208B92261001208B94C90
:101C930063001208B97364001208B9B36400120830
:101CA300B95965001208B9EA66001208B9736800E9
:101CB3001208B99368001208B9EC68001208B9EE6B
:101CC30069001208B9386A001208B9886A00120854
:101CD300B9726B001208B9E76B001208B9016D0005
:101CE3001208B97C6D001208B9816E001208B92C74
:101CF30071001208B94B71001208B9AC72001208D6
:101D0300B96E74001208B9C274001208B97A75006A
:101D13001208B92676001208B97C76001208B93287
:101D230077001208B9C777001208B9337800120890
:101D3300B96D78001208B99E78001208B9FA7900D3
:101D43001208B90080021208B93280021208B96978
:101D530080021208B94582021208B985820212086C
:101D6300B96583021208B9BD83021208B9F8840267
:101D73001208B94485021208B96C88021208B9CE58
:101D83008B021208B91B8D021208B9B18D02120819
:101D9300B9BD8D021208B9EF8D021208B9718F0215
:101DA3001208B97F90021208B9A990021208B9006B
:101DB30091021208B95991021208B9C59102120889
:101DC300B9DC93021208B96B95021208B935960271
:101DD3001208B97397021208B9A399021208B973CA
:101DE3009C021208B9809C021208B9079D021208CE
:101DF300B9AF9D021208B9F29D021208B93B9E02C7
:101E03001208B98F9E021208B9F49E021208B95C37
:101E13009F021208B9799F021208B9AE9F021208F5
:101E2300B97EA0021208B902A3021208B922A402C1
:101E33001208B90BA5021208B98DA5021208B9AB95
:101E4300A9021208B9E8A9021208B940AA021208A5
:101E5300B973AA021208B9F4AA021208B941AB0273
:101E63001208B9CCAB021208B91EAC021208B98D24
:101E7300AD021208B90EAE021208B946AE0212083C
:101E8300B953AE021208B956AE021208B985AE02B2
:101E93001208B98BB0021208B964B1021208B999D9
:101EA300B1021208B903B3021208B9A5B3021208AA
:101EB300B9B8B3021208B985B4021208B9BBB602A5
:101EC3001208B92CB7021208B96CB7021208B9CDBF
:101ED300B7021208B990BB021208B97FBC021208FC
:101EE300B966BD021208B932BE021208B94EBF026A
:101EF3001208B95FBF021208B973BF021208B9AB67
:101F0300BF021208B9D9BF021208B9B3C10212083D
:101F1300B97FC2021208B950C3021208B985C302BD
:101F23001208B9EDC3021208B91CC5021208B9CED2
:101F3300C5021208B9E6C5021208B975C60212082D
:101F4300B929C9021208B901CB021208B91DCB0283
:101F53001208B90DFC051208B94DFC051208B900A9
:101F6300FE051208B90FFE051208B90ED0041208B7
:101F7300B925D5041208B970D5041208B9C0D7041D
:101F83001208B954D9041208B9E2D9041208B943A2
:101F9300DC041208B948DE041208B99CDE041208F6
:101FA300B9ABE0041208B9DCE0041208B91CE1047F
:101FB3001208B937E1041208B992E1041208B9B45E
:101FC300E1041208B9BBE1041208B9D3E104120811
:101FD300B9B3E2041208B992E3041208B9348501D3
:101FE3001208B96C85011208B94A8A011208B9901E
:101FF3008A011208B9DD8B011208B9488C01120855
:10200300B9D18D011208B9E190011208B9FC91010F
:102013001208B90E9C011208B9A19C011208B9F368
:102023009F011208B9EFA0011208B94AA1011208D1
:10203300B994A2011208B982A3011208B91EA6011C
:102043001208B992A7011208B915A8011208B91804
:10205300A8011208B943A8011208B9F3A80112088C
:10206300B9ECA9011208B997AA011208B9B5AA01D6
:102073001208B9CEAA011208B9F7AA011208B919B0
:10208300AB011208B96EAD011208B933AE011208E3
:10209300B978AE011208B9F7AE011208B9A3AF01BE
:1020A3001208B9D5AF011208B929B0011208B964F1
:1020B300B0011208B9ABB0011208B9FBB0011208A4
:1020C300B900B1011208B954B1011208B980B101C4
:1020D3001208B969B2011208B9BAB2011208B91AE1
:1020E300B3011208B974B3011208B90FB40112088D
:1020F300B94EB7011208B960B8011208B9DAB901CB
:102103001208B9EABC011208B988BD011208B97EE8
:10211300C0011208B93DC1011208B981C1011208F9
:10212300B92CC3011208B940C3011208B94AC3014B
:102133001208B954C3011208B960C3011208B98562
:10214300C3011208B95EC5011208B9B3C50112086B
:10215300B9BDC5011208B9C7C5011208B93FC60107
:102163001208B94CC7011208B990C7011208B93651
:10217300C8011208B929C9011208B9EFC901120827
:10218300B912CB011208B930CC011208B918CD012C
:102193001208B930CD011208B987CD011208B991DF
:1021A300CD011208B99CCD011208B9BACD011208AC
:1021B300B902CE011208B964CE011208B98BCE015F
:1021C3001208B99DCE011208B938CF011208B96DB2
:1021D300CF011208B954D0011208B999D0011208DD
:1021E300B97FD1011208B9A6D1011208B929D201C8
:1021F3001208B99AD2011208B923D4011208B94FAF
:10220300D5011208B912D6011208B9DAD60112089B
:10221300B964D7011208B98CD8011208B92ED901B3
:102223001208B9A9D9011208B965DA011208B9AFC0
:10223300DA011208B909DB011208B9E1DB0112085E
:10224300B904DC011208B9B7DC011208B9D9DC0101
:102253001208B942DD011208B958DF011208B9505A
:10226300E0011208B914E1011208B946E3011208AA
:10227300B990E3011208B9E0E3011208B944E4019B
:102283001208B9A6E4011208B9D4E4011208B9F896
:10229300E4011208B92DE5011208B95EE50112083F
:1022A300B991E5011208B9E1E5011208B934E60173
:1022B3001208B959E7011208B9F9E8011208B9542B
:1022C300E9011208B97DE9011208B90AEA01120805
:1022D300B978EA011208B986EA011208B9AAEA0133
:1022E3001208B9FFEA011208B91AEB011208B9CCB6
:1022F300EB011208B904EC011208B947EC0112080A
:10230300B9AAEC011208B9ACEE011208B9D6EE0174
:102313001208B9CDEF011208B9D7F0011208B98735
:10232300F1011208B9E4E5051208B91CE605120823
:10233300B93DE6051208B97FE6051208B9E1E605DD
:102343001208B9EBE6051208B9FBE6051208B9361F
:10235300E7051208B916EB051208B903ED051208D3
:10236300B9E9EE051208B980EF051208B922F005A4
:102373001208B94FBC031208B9FABC031208B9A872
:10238300BD031208B9AEBE031208B9CEBE031208CC
:10239300B9F7BF031208B9B2C1031208B925C203C2
:1023A3001208B9C9C2031208B9D5C3031208B94048
:1023B300C4031208B97CC4031208B9BFC4031208CA
:1023C300B9FAC4031208B93CC5031208B9D1C5034D
:1023D3001208B94DC6031208B917C7031208B9F496
:1023E300C7031208B98CC8031208B9A6C803120898
:1023F300B9D6C8031208B907C9031208B9CDC9036E
:102403001208B9DDC9031208B92CCA031208B93975
:10241300CA031208B942CA031208B9C0CA03120890
:10242300B91CCB031208B967CB031208B982CB03DB
:102433001208B9ADCB031208B9CACB031208B9D637
:10244300CB031208B96DCD031208B986CD03120868
:10245300B90BCE031208B91ECE031208B93DCE0341
:102463001208B9E1CE031208B962D0031208B915F4
:10247300D2031208B9ABD2031208B9AED2031208C1
:10248300B91ED3031208B93CD3031208B9D3D3033B
:102493001208B91BD4031208B91ED4031208B9E4F5
:1024A300D4031208B951D5031208B977D50312081A
:1024B300B902D6031208B920D6031208B966D603A7
:1024C3001208B91AD7031208B964D7031208B993CB
:1024D300D7031208B9F0D7031208B925D803120895
:1024E300B951D8031208B95FD8031208B9ACD8039D
:1024F3001208B91CD9031208B965D9031208B9B176
:10250300D9031208B9DDD9031208B9E8D9031208AF
:10251300B906DA031208B9F1DA031208B9FBDA03D0
:102523001208B93CDB031208B990DB031208B9A403
:10253300DB031208B9D3DC031208B9E8DC03120881
:10254300B976DD031208B9BBDD031208B947DE0310
:102553001208B952DE031208B994DF031208B9AFA7
:10256300DF031208B9FBDF031208B96AE00312089C
:10257300B9A3E0031208B9BDE0031208B91DE103D2
:102583001208B9BCE1031208B907E2031208B9D76C
:10259300E4031208B989E5031208B9F6E503120842
:1025A300B936E8031208B94EE8031208B951E80333
:1025B3001208B95DE8031208B971E8031208B97982
:1025C300E8031208B9ACE8031208B9AFE90312082B
:1025D300B93CEA031208B9ACEA031208B92EEB03BB
:1025E3001208B9EFEB031208B90EEC031208B9AFE6
:1025F300EC031208B90CED031208B90FED0312082E
:10260300B983ED031208B9D2EE031208B9D8EF0368
:102613001208B963F0031208B97EF1031208B94630
:10262300F2031208B977F2031208B99AF2031208F7
:10263300B9A3F2031208B9D2F2031208B962F30381
:102643001208B918F4031208B98DF4031208B93447
:10265300F5031208B9A9F5031208B9E0F503120846
:10266300B91EF6031208B96288061208B9B48706C0
:102673001208B91787061208B9AC86061208B99171
:1026830086061208B9E185061208B9E7840612081E
:10269300B90D84061208B96381061208B97580065C
:1026A3001208B90A80061208B9DEA7051208B9D1C3
:1026B300A7051208B9C7A7051208B952A70512083A
:1026C300B910A7051208B93BA6051208B90CA6054F
:1026D3001208B9C3A5051208B92AA3051208B9E857
:1026E300A0051208B9B5A0051208B947A00512083C
:1026F300B907A0051208B9F49F051208B9E89F05A8
:102703001208B9B59F051208B93882041208B945F1
:102713009D051208B98C81041208B9EE80041208D1
:10272300B9A880041208B97380041208B940800460
:102733001208B92B80041208B9429D051208B92466
:102743009D051208B9F59C051208B98E9A05120861
:10275300B90080041208B9DC99051208B905990576
:102763001208B94A97051208B9AE95051208B9219E
:1027730095051208B94B8A061208B9DD94051208AB
:10278300B94FC8051208B93F94051208B9C2FB0531
:102793001208B96DFB051208B940FB051208B90D03
:1027A300FB051208B9E5FA051208B986FA051208FD
:1027B300B966FA051208B931FA051208B9F5F60532
:1027C3001208B9CAF4051208B9BAF2051208B937E2
:1027D300F2051208B9EBF1051208B9178A061208B7
:1027E300B99FF1051208B9F9F0051208B9F5BE054C
:1027F30000000080FBE47300013636010100010292
:10280300010001030100010401060605020000079F
:102813000100340801000F090401010D0100FF0E3E
:1028230008000017020000190100FF1A0100011B34
:102833000100FE1C0100081D0200001F0100012011
:10284300010001210200002301000F2402000026E1
:1028530001000127010008280200FF2A0100072BBD
:102863000102402C0100002D0100012E0100012F67
:102873000100FF30010B1D310800003A0100083B45
:1028830001000F3C0100013D0100FF3E0400004236
:10289300040000460400004A0400004E04000052F5
:1028A300040000560400005A040000000000002049
:1028B300013085000003002001338500000400423D
:1028C300018E820000050042017D82000006004265
:1028D300016C8200000700300132850000100042C5
:1028E300038B180000110030039C18000012001025
:1028F300039D180000FDFF21012E85030000002128
:10290300039E180300FDFF21412E850204000029C8
:1029130005A01802040100290128850204020029E8
:102923000126850204FDFF21012E850103710301A8
:102933000301030103010301032203020301031043
:10294300030003000300030003000300030003422A
:1029530003000324030603000300030403120325F7
:1029630003230325032303040304030003000300D9
:10297300034403000300032303000365032100351D
:102983000381030003050300030003000300032581
:10299300032303030471040204600411047004029A
:1029A3000402040104020410046104000414046317
:1029B3000473047204620443040004130406040051
:1029C300040004040412040004000400040004517D
:1029D3000464000004000400044404000400040030
:1029E3000400046504000435048104640005040044
:1029F30004830400040302710230016002110270B7
:102A0300020102020202028002100261023A004144
:102A1300006302730272026202430200021302386D
:102A2300000002000204021202000200020002007F
:102A33000204020402370037003C02440200023958
:102A43000000020002650200023502810200020555
:102A53000282028302000203007100300160001150
:102A63000070003102200350048000100061000058
:102A7300001400630073007200620043000000133F
:102A83000006000000000004001200000000000027
:102A930000000004000400370037003C024400003B
:102AA3000000000000000065000000350081000008
:102AB3000005000000830000000101710101010114
:102AC30001110101013101010101018001100161C5
:102AD300013B0014006301730172016201430100B1
:102AE30001130106013D013500040112010001003B
:102AF300010001000104010401330133013C0144DD
:102B03000132013600000100016501000135008139
:102B13000100010501820183010001210010002051
:102B230081A41D2100110043810000210012002017
:102B330083A51D210013002083A61D21001400205E
:102B430083A71D2100150043818C04210016001A60
:102B530081A81D210017001A81AB1D210020001838
:102B6300838E0421002100F183AE1D21002200F198
:102B730083BE1D2100FDFF2181CE1D36000100060D
:102B83000000000F00000000000000000000000033
:102B93000003FFFF00000403FFFF0000FFFF0FF42B
:102BA300010005C4040320000100000B0000000025
:102BB3000000000003010F000000000000000000FF
:102BC3000000000000000000000000000000000002
:102BD300000000000000000000C7140F15CD14D73B
:102BE30013D3141515D3142115D914D713D31415CE
:102BF30015DF14D71300000000E514D713000000FD
:102C03000000000000EB14D713F1142715F714D7B5
:102C130013000000000000000000000000FD143954
:102C2300150315D713FD1439150315D713F11427FD
:102C3300150915D713130027181F002D181F8033EC
:102C4300180000B1180100B1180200D3170280CD9B
:102C5300170300D9170400DF170480E5170500EBFD
:102C6300170600F7173100091833000F1834001541
:102C73001836001B18FFFF00000A000000020000C6
:102C83000004000000080000001000000020000005
:102C9300004000000080000000000100000002006E
:102CA30000000400000008000000100000002000E5
:102CB30000004000000119200649200843200B555D
:102CC3002010F51C021F200537200725200C0120AA
:102CD3000D0D2064271BFF000007ECFDFDFDECDC60
:102CE300DCCCBCACAC9C9C8C7C7C6C6C5C5C5C4C31
:102CF3004C3C3C2C2C1C1C03EAF5E5D5D5C5B5A5ED
:102D030095958585757565655555454535352525F0
:102D130015150500160F00000B150B020002220FFC
:102D23003300000E0F5A6967426565416C6C696137
:102D33006E63653039C0C1C2C3C4C5C6C7C8C9CA7A
:102D4300CBCCCDCECF00000000000000000000007F
:102D53000000000000303016181920231A1C1E3002
:102D6300303017181921301B1D1F30003C40423AE8
:102D73003F3F392F47300001191618161618230341
:102D83000000034D4C4651181A2505020C0E020B88
:102D9300040B0A0708000F020402010101010902E2
:102DA30000000000000000BE040AE80300000E005B
:102DB300E80300000C0028007F0000000404040066
:102DC300050A0C1008100C1E030928FF1000020945
:102DD300033C0C050815081EC082C0837900125DF0
:102DE300063BF583C082C083901B31125FBFD08343
:102DF300D082C3E09CA3E09D500D126E74FAA3E051
:102E0300122EF36002790102435B74F71203F38914
:102E130008125003123155ACF075F00BE9A42CF9EC
:102E2300901B33E028FEA3E039FF740165086006B8
:102E33007402650870228A828B83123336740265AA
:102E430008701DEA2403FA50010B121A85E9701069
:102E53008E828F83E4F08008EA1234123B122E6DC7
:102E63008E828F83122EE8024C69FDEE2403FAE46E
:102E73003FFB121A7F2274F41203F38A088B09EAC8
:102E83001232108A828B83E0604D7E007F00804285
:102E9300122EF070381232A5F50AA3E039F50B852E
:102EA3000882850983E0850A82850B8312412812F3
:102EB30032CDF01234103509122EDD121A7F123280
:102EC30007850A82850B83122EE81232C20EEE703A
:102ED300010F1231FB40B902534CFDE50A2403FAFA
:102EE300E4350BFB22E0D2E7F012170722EEFAEFEC
:102EF300FBEA75F00BA4FAA8F075F00BEBA428FB22
:102F0300901B33E02AF8A3E03B8882F583E0540F5B
:102F13002274F51203F38A088B09750A01740B12E4
:102F23000C081232C7EC4D6018EC125D073DF583B7
:102F3300124C2B122FA97901121A61EE4F60648093
:102F43001FEE4F603A12333F122FA9EE2403FAE427
:102F53003F12332E7019AA08AB09121A67E9F50A52
:102F63008E828F831278267902EEFAEFFB800B12A2
:102F73003322702F7903AA08AB09121A6180248ABD
:102F8300828B83A3E064FE7003A3E0F47006EA126D
:102F93003324700CAA08AB09121A67E9F50A8003F7
:102FA300750A000239B4EA125D0B350912404F224B
:102FB30074F71203F3901B3112452BEA4B602CEA92
:102FC30075F00BA4FAA8F075F00BEBA428FBEAFE4E
:102FD300EBFF1212BD901B3312452BF9EA49601225
:102FE300EEFCEFFD79001212158007901B33E4F01D
:102FF300A3F0024C69C082C083901B33124F3F6021
:1030030013901B33126433901B31E4F0A3F0901B35
:1030130033F0A3F002435BC082C083EC4D60051222
:1030230013B380097C087D00790012121502435BFB
:10303300C082C0837900EA4B60197800E8FCEA2C6F
:10304300F582E412607460047901780808E8C39497
:103053000840E902435B74F71203F374F31209BAED
:10306300ECFEEDFF851882851983E4F004120C0849
:1030730012452BAA18AB19121AA37403120C08AC2D
:1030830082AD83EEFAEFFB121A7FEEFAEFFB121A10
:1030930085024C6474F71203F374F31209BAECFE5D
:1030A300EDFF851882851983E4F0EAFCEBFD7403D8
:1030B300120C081234017401120C08124C2B8E826C
:1030C3008F83124BEE74FE68700374FF696004799A
:1030D3000180027900024C6474F71203F3EAFEEBF9
:1030E300FF1231367011123140F4FA88828983E07D
:1030F3005A4480F0121707023FBE74F71203F3EA33
:10310300FEEBFF7508008A82F583E06023123136F7
:10311300701E123140FA88828983E05A70128E82BF
:103123008F83E04480FA88828983E04AF01217078C
:10313300023FBE121A5BE9F50874016922124D18A9
:10314300F81231551232B3F8A3E039F98E828F8326
:10315300E022A3E0F9E875F00BA4F82274F412035B
:10316300F38A088B097C007D00EA1231F0E508122E
:103173003210850882850983A3E064FE7003A3E00F
:10318300F460677E007F00805C122EF06052EEFADE
:10319300EFFBEA75F00BA4FAA8F075F00BEBA4288B
:1031A300FB901B33E02AF50AA3E03BF50B8508826D
:1031B300850983127284850A82850B83A3E06A7072
:1031C30003A3E06B701AE50A12329E700DE50A1232
:1031D3003412350BFDE5081231F01232071232C2F8
:1031E3000EEE70010F1231FB409F02534C2403FA81
:1031F300E43509FB121A7F22901B311258DAC3EE11
:103203009AEF9B2212321CEEF0A3EFF02212321E31
:1032130074FEF0A304F0790022E508125D0F35096E
:10322300F5832274F21203F38A0A8B0B8A828B834F
:10323300127826EA1252E5127827750800EA12324C
:103243009E70537E007F0080481232A5FAA3E039B6
:103253008A82F583E0540F60331232A5F50CA3E0A4
:1032630039F50DE50C123412350D122EDD1213ADA6
:10327300E964017017850C82850D831232CD1252D9
:10328300E2EEF0A3EFF07508011232C40EEE700106
:103293000F12347640B3A908024353122EE01233BF
:1032A3002F22EEF8EFF91232AD22E875F00BA4F8F5
:1032B300AAF075F00BE9A42AF9901B33E0282279D0
:1032C30001901B31E0FEA3E0FF22A3123349850ADC
:1032D30082850B83A3E8F0A3E92274F51203F3EAD2
:1032E300FEEBFF8A82F5831278267C007D00EA12CA
:1032F3002E6FEEFAEFFB121A5BE9F50A740169709F
:103303001B12333F12346B850882F5831233361256
:10331300332270081234103509122E6D0239B4E5C8
:10332300082403FAE4350912332E22FB121A85E925
:10333300640122A312606512405122F0EE12404A4A
:1033430012334722F583E0F8A3E0F92274F2120363
:10335300F374E61209BAEAFEEBFF125D063FF5834A
:10336300127827750801750A00750B00750C007536
:103373000D00851882851983E4F0EA1234123FFDAB
:103383007403120C08123401E964017022740B12E5
:103393000C08126BE21240417401120C0812605FB8
:1033A3007003A3E0696049A818A919880A890B74F6
:1033B3000D120C08123417124C2B740E120C081237
:1033C3004BEE740D120992121AA3E9640170097489
:1033D3000D12098A880C890D780C1208F4AC0AAD19
:1033E3000BEEFAEFFB121A6D7402120907E9F508E6
:1033F300EEFAEFFB121A9DA908741A024350AA822F
:10340300AB83121A7FAA18AB19121AA922E5082452
:1034130003FCE422E412341C22124521A322C082BD
:10342300C08378007900800508E8700109901B319A
:10343300127285C3E89AE99B5029E8FAE9FBEA7519
:10344300F00BA4FAACF075F00BEBA42CFB901B3340
:10345300E02AFCA3E03B8C82F583E0540F70C9792A
:10346300008002790102435B1232ADF508A3E03913
:10347300F50922901B31123349C3EE98EF9922F9D3
:103483000238CB74F61203F374FF1209BA7E007F7D
:10349300008038851882851983E4123DE41208F40C
:1034A30075080175090078081208F4EEFCEFFDECCD
:1034B30075F00BA4FCA8F075F00BEDA428FD7A239E
:1034C300123DF61209070EEE70010F12347640C357
:1034D30074010238C8C082C083902DD8E49375F07C
:1034E3001CA4FCADF079FF7AA47B091212150243E8
:1034F3005B74F71203F3E9FCEAFD7B007A008010AA
:10350300EA123B049C4008E0F8EDC39840010B0A23
:1035130012632040EBEBFA7B00024C6974F0120358
:10352300F374F21209BAE9851882851983F08A08BF
:103533008B098C0A8D0BEC4D6016AA0AAB0B121A81
:10354300F78A0C8B0DAE0CAF0DEA4F600302360CFD
:103553007A0080010A126320500A12370D70F512A7
:103563003E6C80047E007F00EE4F70030236C690EF
:103573002DB51236EF601F851882851983E0640329
:103583006005E06404700F7A0479031236E5902D28
:10359300B51236F95027902DBD1236EF60268518E7
:1035A30082851983E064016005E0640270167A0283
:1035B30079011236E5902DBD1236F940077A007B6A
:1035C300000236D77401120C087401F004120C08BF
:1035D300E508F0A3E509F0AC0AAD0B7404120C087E
:1035E300AA82AB83121A7F7401120992121AB5745C
:1035F3000C120C081243918E828F83A3A3A3A3A35F
:10360300A3E4F0126E63122289780085188285196B
:1036130083E06007C39405500278048E828F83E5AC
:1036230008F0A3E50912685812545CE88E828F8370
:10363300A3A3A3A3A312632A5001097A027B001256
:1036430002A3123E3FA3125F9D123E758518828529
:103653001983E06067C394035062901E4DE07021AC
:10366300902C7C7808120B0C123E1A120B93902CA0
:103673007C7808120B0CEE2413123E1D120B938060
:1036830031F50875090074027808120B1F123CC645
:10369300120B0C9084AB7808120BB1780C790812DA
:1036A30003041236E1780C120B93124380780C1248
:1036B3000B931236DA3FF583740180061236E1125A
:1036C3003E26F0123E034005901E61E4F012215D98
:1036D300EEFAEFFB025B2FEE241BF582E422123E8F
:1036E3006422121ACD902DD8E493FC22E493F8744B
:1036F3000193F9E84922E493F8740193F9ECC39830
:10370300F8E499F9C3EA98EB9922EA123713F42201
:1037130075F01CA4F8A9F074A828F582740939F58A
:1037230083E02274F01203F374EF1209BA123856CD
:10373300120C08ECF0A3EDF07E007402120C0812D8
:103743007285121AF7EA4B70030238398A828B8327
:10375300124556E0687003A3E06970030238398AA2
:10376300828B83A3A3A3A3E0C39405400302383948
:10377300123864127421E060708A828B83A3A3A33E
:10378300A3E0C394035062901E4DE07022902C7C02
:103793007808120B0C12384E7808120B93902C7C7D
:1037A3007808120B0C1238407808120B938030F50E
:1037B300088E0974027808120B1F123CC6120B0CF8
:1037C3009084AB7808120BB1780C790812030412B9
:1037D300384E780C120B93123840780C120B93EA84
:1037E3001236DB3BF583E4800DEA2417123872F0BE
:1037F300EA2413123872F0EA240CF582E43BF583D1
:10380300E4F0A3F0A3F0A3F07404120C08124C220A
:103813007405120C08124BEE7402120C08125FBFEF
:103823007407120C08AA82AB83121A7F740412095C
:1038330092121AB57E01EEF97411025B3112384708
:103843003BF58322EA2413F582E422EA1252BD3BBC
:10385300F58322851882851983EAF0A3EBF07402BD
:10386300228518828519831233498A828B8322F534
:1038730082E43B123E332274F61203F31238BE6025
:10388300148A828B83A3A3A3A3E06009C394055086
:1038930004790180027900802F74F61203F3123841
:1038A300BE60148A828B83A3A3A3A3E06009C3949D
:1038B300035004790180027900800D121AF18B09FB
:1038C300A909EA49221209077F0202060974F612BE
:1038D30003F3121AF18A828B83E5824583600BA37B
:1038E300A3A3A3E0700479018002790080DAC08287
:1038F300C083EAFCEBFD7A007B00024358C082C020
:10390300837C007D0002435874F51203F374F312B1
:1039130009BA8A088B09ECFEEDFFC3EC94F8ED9429
:10392300FF4004EA4B6066750A00801774FF6E70EF
:103933000374FF6F600B1279E06E7003A3E06F6096
:1039430039050A902DD8E493F8E50AC398503EE56B
:103953000A12370E60EBE508450960D012399B1255
:103963000C08123BB860DA7403120C08AC82AD8306
:10397300AA08AB091213ADE960C7E50A75F01CA4E8
:10398300F8A9F074A428FA740939FB80047A007B3F
:1039930000740D120907801B851882851983740131
:1039A300F074A628F582740939F583123349740B30
:1039B30022A90A7F0302060974F41203F374F312B3
:1039C30009BA750800121AF78A0A8B0BAF0BEA4F74
:1039D300602785188285198374011244B41239AEA5
:1039E300120C081246A2121A977C1C7D0079FFAABA
:1039F3000AEFFB1212157508017A047900121ACD29
:103A03008A0A902DD8E493FAC3E50A9AEB940050FE
:103A130009901E617401F012215DA908740D02530F
:103A23004974F41203F3EAFEEBFF7508007A007B96
:103A3300007C00800EEC123ABC6007C39403500272
:103A430005080C123AB240EDE508605625E0FAE4A9
:103A530033FB1212BDEA4B6049EAF8EBF97C0090A4
:103A63002DD8E493FDECC39D503BEC75F01CA4F5FD
:103A73000AE5F0F50B74A8250AF58274091252EED3
:103A8300E0601CC39403501774A4250AF5827409DB
:103A9300350B123AC7888289831266B95001090C23
:103AA30080BD7508008E828F83E508F002534C9029
:103AB3002DD8E493F8ECC3982275F01CA4F8A9F070
:103AC30012371A22F583E0F50AA3E0F50B22C08230
:103AD300C0837C008009EA24FF1AEB34FFFB0C123D
:103AE3003AB25016EC123B04940550F2EA4B70E6DE
:103AF30074A428FA740939FB80047A007B0002431A
:103B03005B123713C32274F71203F374F31209BA67
:103B13007E00807FEF75F017A4F8A9F01279AB123D
:103B23004C2BEE75F01CA4FAABF074A42AF5827446
:103B330009126074687003A3E0696037EF75F017CA
:103B4300A4F8AAF0EA123BC4120C08E0687003A3BD
:103B5300E069601FEF75F017A4F8EAF974F228FC26
:103B6300740B39FD7403120C08AA82AB831213ADD4
:103B7300E96013EF75F017A4F8A9F074F028FA744C
:103B83000B39FB1222950F902DC6E493F8EFC398DF
:103B930040820E127565501A1279D8F47003A3E0AF
:103BA300F460EF12399B120C08123BB860E47F00FB
:103BB30080D5024C64124051AA18AB19121AAFE90E
:103BC30022F91279A33912334774012274F01203D4
:103BD300F374F31209BA7E00803890849F78081238
:103BE3000BB1EE75F01CA4F8A9F074B728F5827434
:103BF3000939F58378081209E660169084D37808AA
:103C0300120BB1EE75F01CA4F8123CD17808120A1D
:103C1300870E1275654003023CC1EE123ABC60F197
:103C2300C3940350EC123CD1120BD9E8494A4B70B0
:103C3300A9901E4CE0A2E05057901C5D124F3F60CC
:103C43004F901E4EE0700A902C7C780C120B0C8067
:103C530021F50875090074027808120B1F123CC67F
:103C6300120B0C9084AB7808120BB1780C79081204
:103C73000304780C1208ECEE75F01CA4F8A9F012FA
:103C830079C339F583123DAB1227F874041209077F
:103C9300EE75F01CA4F8A9F01239A4120C081268EE
:103CA3005474011246A6121AAFE97003023C14744D
:103CB30003120C08AA82AB83121B03023C14740D7B
:103CC300025B311274BB742C123221780C2274BB48
:103CD30028F582740939F5832274F61203F3121A54
:103CE300F18A088B09AC08AD09EA4D60318A828BF1
:103CF30083A3A3A3A3E06022C39403501D123847F8
:103D03003DF583120BD9EC1252B93DF583120BCD5D
:103D1300EC1236DB3DF5837401F079018002790002
:103D23000238CB74F01203F3EAFEEBFF901C571238
:103D33004F3F606B901C5D124F3F6063901C61129C
:103D43004F3F605B12729C1227F8E97052901E4E2F
:103D5300E0700A902C7C780C120B0C8021F508750E
:103D6300090074027808120B1F123CC6120B0C9048
:103D730084AB7808120BB1780C7908120304780C21
:103D83001208EC123DA51227F87404120907E9641E
:103D930001700C8E828F83A3A31272891227F802FB
:103DA3005B348E828F83A3A31258DA901C5D127248
:103DB300932274F61203F374FE1209BA85188285EE
:103DC3001983E4F0A3123DE41208F475080275099F
:103DD3000078081208F4123DF01209077402023841
:103DE300C8F0A818A919880889097808227C007DD9
:103DF300007A227B0012134174042212772CEC22E6
:103E03007A047900121ACD8A08902DD8E493FAC364
:103E1300E5089AEB940022EE2417F582E43FF5833C
:103E2300780822123E35F0EE1238483F123E332214
:103E3300F58374FEF0A304F0A3F0A322E88E828F2F
:103E430083A3A3A3A3A3A3A3A3124C0C7401124C97
:103E53000CA374AAF0EE2410F582E43FF583E4F09A
:103E630022EE1252BD3FF5832274A428FE74093951
:103E7300FF22A3F0124049F583E4F0EE240CF5820F
:103E8300E43FF583E4F0A3F0A3F0A3F022E50A24D2
:103E930002FCE4350BFD2274F21203F374F31209EE
:103EA300BAEAFEEBFF7A027901121ACDEA8E828F0B
:103EB30083F06062F50875090074037808120B1F1C
:103EC300AA08AB09124E5B6053AE08AF09750A002E
:103ED300902DD8E493F8E50AC3985040E50A75F0AD
:103EE3001CA4F8A9F01279D26005E06402702312D1
:103EF300399B120C08123BB860187403120C08ACFF
:103F030082AD83EEFAEFFB1213B38A0C8B0DAE0C6A
:103F1300AF0D050A80BA750800750900AA08AB0938
:103F2300740D024350C082C083123F3C901B417406
:103F3300A5F0A3741BF002435B901B3D7431F0A307
:103F43007420F0901B3F742BF0A37420F02274F7BD
:103F53001203F3EAFEEBFF901BD1E06408601DE05F
:103F6300640460188A828B83E0540364017042EA1C
:103F7300124D14F81258B6E0640670358A828B83AA
:103F8300A3A3E064FE7003A3E0F460258A828B831D
:103F9300A3A31266D07003A3E0697008EA24151284
:103FA3005F9160051220EB80031220F1E9F5088090
:103FB300037508C2EEFAEFFB1212C3A908024C699B
:103FC30074F41203F38A088B09126BDEFAE82AFAF7
:103FD300E43400FB1212BD8A0A8B0BAE0AAF0BEA64
:103FE3004F6054850882850983E0FC7D00790012C7
:103FF30012158E828F83A31278261221278E828F29
:1040030083124527850882850983E0F8EE28F8E4C2
:104013003F124041850882850983A3E0C0E0126313
:1040230016D0E0F012213912630CE9126CE4E0C0FF
:10403300E0124376D0E0F0EEFAEFFB02534CF912B4
:10404300404912404F22EE125D0F3F22F583E8F004
:10405300A3E9F02274F41203F374E81209BAEAFE36
:10406300EBFF901B36124F3F60030241237A077B1D
:10407300001212BD901B3612452BF9EA4970030258
:10408300411F8E828F83120BD9901B3612745A12E2
:104093000BCDEE2404F50AE43FF50B850A82F58384
:1040A300E0C0E0901B36124DA8A3A3A3A3D0E0F079
:1040B300EE2405F508E43FF509850882F583E0C0A1
:1040C300E0901B361258C4D0E0124BF2C0E0901BB4
:1040D30036126BE2C82406F582E438F583D0E01289
:1040E300413A8E828F83120BD985188285198312E8
:1040F3000BCD850A82850B83E0C0E07405120C08A2
:10410300D0E0124128E0C0E07404120C08D0E0F0C3
:104113007407120C08124130E9F980067910800205
:104123007901025347F085088285098322E4F0AAC6
:1041330018AB19121A0722F07C187D007900AA180F
:10414300AB1912121522C082C083901B36124F3F47
:10415300600D901B36126433901B36E4F0A3F0120B
:10416300204F12223B02435B74F01203F374E812F4
:1041730009BA8A0A8B0B8C088D09890C7E007F0093
:10418300742F120C08E060267430120C08124C2BAA
:10419300800B1212278A0E8B0FA80EA90FC3E89467
:1041A300F8E994FF50ECE84960E8E8FEE9FF742C75
:1041B300120C08E0FC742D120C08E0FD740F6C70F7
:1041C30005740F6D6012901E47E064026005ECC336
:1041D3009D500579C10242C27428120C08120BD9F2
:1041E300901BD2120BCDE50C901BD8F0EC901BD694
:1041F300F0EDA3F0742E120C08E0901BD9F074FFBD
:10420300650A700474FF650B7024901E5EE0F47001
:1042130003A3E0F4700C121227901BCFEAF0A3EB78
:104223008015901E5E127101E8F0A3E98009901BCE
:10423300CFE50AF0A3E50BF0E50845096017AA08E6
:10424300AB091222EFE96401700BAC08AD097AE304
:104253007B1B1213B37AE37B1B1222EFE970097AFB
:10426300E37B1B79E21219F5901BC2EEF0A3EFF08A
:10427300901BC5E4F0A3F0901BE2F0901E47E064AE
:10428300027008901BD6740FF0A3F0901BD1740535
:1042930012413A7404120C08E4F0901BD2120BD9A9
:1042A300851882851983120BCD901BD8E0C0E0746A
:1042B30005120C08D0E0F07407120C081241307498
:1042C30018025B3174F71203F3E9901B3CF07A8018
:1042D3007B00124362121B697900024C69C082C0E1
:1042E30083901B3CE07003121821121B6902435B8D
:1042F30074F01203F3901B3CE0901B357008E4F05C
:10430300F91216D1803B7401F0901B3CE0F91216B0
:10431300D1901B3CE0F46029E0F50CE4F50DF50EBB
:10432300F50FF09084A37808120BB1780C7908127A
:104333000304780C1208EC7A807B0012436B120999
:10434300077A357B1B79411219FB025B341209078B
:104353007F06020609121AFDD083D0820208B690A6
:104363001C1CE0F912138322901C1CE0F912137732
:10437300740422EE2411F582E43FF58322EE123811
:10438300483FF58322F5837401F012212122126341
:104393004012405122851882851983ECF0A3EDF079
:1043A300EAFEEBFF2274F71203F3EB901BD9F01232
:1043B300203D024C6974F71203F374E91209BAEA57
:1043C300FEEBFF7508008A82F583A3A3A3E0C0E098
:1043D3007406120C08D0E01244B4E0C0E074081272
:1043E3000C08D0E0F0901E4BE0C0E07409120C08FA
:1043F300D0E012641C124F3F600D8A828B831272CD
:1044030085121A85E9701C7407120C08E412438C98
:104413007404120C0812385C120C0874FDF0A374B7
:10442300FF8039AC18AD198E828F83127285121AF0
:10443300918E828F83A3A3A3A3E0702E7407120C23
:1044430008124C227402120C08124BEE8E828F83D8
:10445300124C2B7404120C08E8F0A3E9F074021256
:10446300099212217BE9F5088040124C25740A1247
:104473000C08124BEE7414120C087401124BE6E094
:10448300C0E07415120C08D0E0F07416120C08E4A6
:10449300124521125FBF740C120C08AA82AB83125F
:1044A30013B3740A1209921216E9A9087417024C7D
:1044B3006612641CA3A32274F71203F374F812099F
:1044C300BAEAFEEBFF7900901BD1E064086005E0D7
:1044D3006404704585188285198374FDF0A374FF05
:1044E30012438C7402120C0812452B7405120C082B
:1044F300123417E0C0E07404120C08D0E012452116
:10450300E0C0E07406120C08D0E0F07407120C0847
:10451300E41246A612217BE9F97408024C66F08E78
:10452300828F8322A3A3A3A3EAF0A3EBF02274F761
:104533001203F379011219EFE9FE121AC7121A795D
:104543001220D312204F901C1CE0F9121FDDEEF94C
:10455300024C691233498518828519832274F21239
:1045630003F3ECFEEDFF7C00750800E92479602C71
:1045730024FC607624F3601324FC601514603E145D
:104583006003024646901BD102465D901BBF024664
:104593005D122283EA8E828F830246627508C112FE
:1045A300228F8B0DA90DEA4970030246638A088B9B
:1045B30009750A0078081208F07C1780737860790F
:1045C3000D7A00801788828983E064FE7003A3E07C
:1045D300F460010CE82407F85001090A902DCDE49A
:1045E30093FBEAC39B40DEEC80717508C178607968
:1045F3000D7D0080090CE82407F85001090D902D6A
:10460300CDE493F509EDC39509505588828983E07C
:1046130064FE7003A3E0F460DDECF50CEA650C4B7B
:1046230070D388088909750A0078081208F07C0796
:104633007D00EEFAEFFB12120374031209077508EB
:1046430000801D747F29C3945840057508C98010E4
:10465300742D29F582E4341BF583E08E828D83F07B
:1046630002329974F41203F374F91209BA8A088BAB
:10467300098C0A8D0B8518828519837808120B9390
:104683007404120C08E9F07405120C08E4F07406C3
:10469300120C08E41246A6121B4B7407025349E896
:1046A300F0A3E9F0AA18AB192274F51203F38A08F0
:1046B3008B098A828B831232C7EE4F7003024852F2
:1046C300901B5B124F3F60158A828B83A3A3E0F993
:1046D300EEFAEFFB901B5C1258B71227F88E828F0D
:1046E30083A3A3A3A3A3A3A3A3A3E06402600302DE
:1046F30047C08E828F83A3A3A3A3A3A3E054027016
:10470300030247E4850882850983A3A3E064E97073
:10471300030247E4850882850983A3A3E064CD707F
:10472300030247E4850882850983A3A3E064F0704C
:10473300030247E4EE240D124BE06024EE2413122F
:104743005F91601C8E828F83A3A3A3A3A3A3A3A3C0
:10475300A3A3124866701D7A307B01121767801479
:10476300901E50E0048E828F83A3A3A3A3A3A3A3CD
:10477300A3A3A3F0850882850983A3A3E0701F7513
:104783000A0080097A367B01121767050A850882B9
:10479300850983A3A3A3E0F8E50AC39840E6EE24C2
:1047A3000A125F9114F0C0E0124380D0E0124C086B
:1047B3007404F0901E5112633AE81248558E828FAA
:1047C30083A3A3A3A3A3A3A3A3A3E0640260128E62
:1047D300828F83A3A3A3A3A3A3A3A3A3E0640670CD
:1047E3006E8E828F83A3A3A3A3A3A3E0A2E0505F53
:1047F300850882850983A3A3E0F9EEFAEFFB121E75
:10480300F98E828F83A3A3A3A3A3A3E054FE12482C
:1048130066850882850983A3A3702AE070237A2F13
:104823007B011217677E00850882850983A3A3A3F2
:10483300E0F8EEC39850187A367B011217670E80A2
:10484300E67A318005E070077A2D7B011217670243
:1048530039B6F0A3E9F07A207B00901C1CE0F91232
:10486300126F221245211272931258DA12487322E0
:104873001221ABE92274F01203F374BB1209BA12CA
:104883004398750E00750F00740212099A121E21C7
:10489300740F120C08E070087412120C08E0601612
:1048A3007402120C08E0A2E650118E828F831272FA
:1048B3007C12487360057A350249D17402120C08E0
:1048C300E0540C64047004D2008002C200E0A2E54C
:1048D3005036750F01A200402F124C2F7003A3E036
:1048E300697005124BDD706B124C2F7003A3E069E6
:1048F3006016124BDD7011124C3F740212099A12AA
:104903001EC3E960030249CF124BDD702A74021201
:104913000C08E0A2E650207403120C08E054037064
:10492300167402120C08E0540C640C600AE0540C78
:1049330064086003750E017402120C08E05403F856
:104943007402687022740212099A124C3F121E33C9
:10495300024BD08E828F8312727C12333F741712F4
:104963000C08124BEE80937401687045E50EA2E0CB
:10497300500D124BDD7008740212099A124C4674E2
:104983000212098A741C120C08E8F0A3E912333EE0
:104993007419120C08E8F0A3E9124BF2C0E0741B7F
:1049A300120C08D0E0F07419120992121D5B024B2D
:1049B300D0E86003024BD0901BB9E0640170178EFE
:1049C300828F83A3A3A3A3A3A3E0700A7A347B01FA
:1049D300121767024BD07444120C08740212333E50
:1049E300743C120C08124BF7E054807003024AF334
:1049F3007426120C087402124C08124C2B741E12EB
:104A03000C08124BEE7405120C08E0C0E074271278
:104A13000C08D0E0F07404120C08E0C0E074281213
:104A23000C08D0E0F0901BCF124C2B7429120C0809
:104A3300124BEE7408120C08124C2B742B120C0838
:104A4300124BEE740A120C08124C2B742D120C0824
:104A5300124BEE7412120C08E0F8742F120C08E8D3
:104A6300F0A3E4F07410120C08124C2B7431120CE6
:104A730008124BF7124C2B7433120C08124C13E030
:104A8300C0E07435120C08D0E0124BE6A3E0C0E09E
:104A93007436120C08D0E0F0125F8EC0E074371247
:104AA3000C08D0E0F07413120C08E0C0E074381264
:104AB3000C08D0E0F07415120C08E0C0E074391251
:104AC3000C08D0E0F0EE2423125F91C0E0743A1298
:104AD3000C08D0E0F0EE2425125F91C0E0743B1285
:104AE3000C08D0E0F0741E120992121E39024BD04A
:104AF3007455120C087808120BB1A2004003024B44
:104B030084EE240F125F91C0E07414120C08D0E0FD
:104B1300F0901B5D124F3F7003024BD012683C7440
:104B23003C120C08E0687003A3E0696003024BD0F9
:104B3300EE2423124BD51208F8124BFE12071C78F1
:104B4300081208ECE50FF50878081208F88E828F32
:104B530083A3A3A3A3E0F50878081208F874091245
:104B63000C0812071CA90E740D12099A7447120936
:104B730092901B5D124DA81227F8740B120907803F
:104B83004CE50EA2E05008740212099A124C46EE4C
:104B93002411124BD51208F878081208ECE50FF52A
:104BA3000878081208F87406120C0812071C901BE8
:104BB300CF12071CEE2412125F91F9744612099A60
:104BC300740C120992121F05740A12090774450224
:104BD3005B31124D1BF50C780C22EE2421124D1B78
:104BE30054802212341CA3A322A3A31240512212E5
:104BF3005FA1E022124051124BFE22EE2421F582E6
:104C0300E43FF58322124C0C22125FA5A3A3A32237
:104C1300E8F0A3E9F0EE240FF582E43FF583227474
:104C230001F0851882851983123349221221278ABC
:104C3300088B09A808A909124D18682212404912C5
:104C430058D8221240491258D8121E272274F7123C
:104C530003F31216B3800F74F71203F31216B9801D
:104C630005740D1209077F0102060974F71203F395
:104C73001216C580F1C082C0831216BF02435B7453
:104C8300F71203F31216CB80DD74F71203F37409E2
:104C9300120C08E0F50878081208F81216DD740102
:104CA30080C1C082C0831216E902435B74F612030B
:104CB300F3EAFEEBFF901BBCE0A2E1504A8A828B31
:104CC30083A3A3A3A3A3A3A3A3A3A3E06401603724
:104CD30012212D8A088B09A808A9098E828F83E0E7
:104CE300687003A3E069601FEE124D14640160173E
:104CF3008E828F83127285121AE5E9600A8E828F83
:104D0300831272851220E5EEFAEFFB1216EF0238DA
:104D1300CB124D1922EE240BF582E43FF583E022FA
:104D230074F71203F31216F5024C6974F71203F3C6
:104D3300EAFEEBFF74016970147900121CBF902D19
:104D4300DAE493FC7900EEFAEFFB121C35024C69AE
:104D530074F71203F31216E3024C6974F41203F3AB
:104D630074F91209BAE9FE8A088B098C0A8D0B9033
:104D73001901124F3F602BEE851882851983F07459
:104D830001120C087808120B937413120C08124CBE
:104D93002B7405120C081246A2901901124DA81289
:104DA30027F802469D12729322C082C08312173DD8
:104DB30002435B74F71203F3121701024C6974F791
:104DC3001203F3901E63E0F97800800B12504E54E7
:104DD3000D6401700119081250675003E970ED0268
:104DE3004C6974F71203F3901E64E0F97800800BAA
:104DF30012504E548D64817001190812506750038C
:104E0300E970ED024C6974F21203F3890AE975F053
:104E130007A4A9F0240FFEE439FFEE2AFAE43FFBCE
:104E2300124E5B602CEEFCEFFD7900121215E508C3
:104E3300125D0712511FE50AF0E5082EF8E5093F58
:104E4300F9850882850983A3A3A3A3A3A3A3124B74
:104E5300ECAA08AB090243531212BD8A088B09EA74
:104E63004B2274F61203F38A088B09121C0BE9F820
:104E7300901E62E0F9E8C3994009901B43127285C2
:104E8300121C11E5082402FEE43509FF901B4512AC
:104E93006836F0901B45E004F0AA08AB09121C1712
:104EA3008E828F83E0023482C082C0837900901B9C
:104EB30043800109E0FAA3E08A82F583E582458312
:104EC30070F102435B74F71203F3EAFEEBFFEA4F60
:104ED300605A901B43124F3F6052888289837A0045
:104EE3007B00EE65827003EF65836013AA82AB8358
:104EF300126BE28882F583E5824583602F80E3901D
:104F03001B43E0F8EE687002EF698E828F837008AE
:104F1300124C2B901B43800312386A124BEEEEFAAD
:104F2300EFFB121D8BEEFAEFFB1212C3024C69EE7C
:104F330075F006A4F8AAF0126468F583123349E801
:104F43004922C082C083901B4380048882898312D4
:104F53004F3F600A88828983123DFE4D70ED8A823D
:104F63008B83E4F0A3F0E849600688828983800399
:104F7300901B4312452B02435B74F71203F3E9FDC5
:104F8300901B4380048A828B83124FB5601D7C0083
:104F930080010C125003ECC39850EAEC75F007A49F
:104FA300F8A9F0124FFA6D70E980047A007B0002D1
:104FB3004C691258DAEA4B2274F71203F3E9FE7DC7
:104FC3000080010D125003EDC3985024ED75F007D6
:104FD300A4F8AFF0EFF9124FFA6E70E7ED75F00732
:104FE300A4F81250794CF0E8240FFAE439FB80045A
:104FF3007A007B00024C69125071241312508222F2
:10500300126E78F82274F61203F3E9FEEAFF121C1B
:105013001D8A088B09A808A909EA49602B7C00802E
:105023001AEC75F007A4FAABF0E82AFAE93BFB1295
:1050330038471260746E7002EFF00CE8125D0712CD
:1050430070EBFAECC39A40D90238CBE875F007A4A9
:10505300FCADF0EA2CFCEB3DFDEC2414F582E43DC1
:10506300F583E022126E78FCE8C39C22EFF9EA286C
:10507300F8EB39F9E82212506F241412508222F50A
:1050830082E439F583E02274F61203F3121D2B7ABE
:1050930000801AEA75F006A4F8A9F0126422125FE0
:1050A300B1A3E4126540F0A3125FB6F00A902DC9D4
:1050B30012632340DE7A00801CEAF5087509007448
:1050C300037808120B1F125F7A74FEF0A304126BAD
:1050D3006DA3E4F00A902DC712632340DC790080AE
:1050E3001BE9F50875090074037808120B1F74187F
:1050F3001274BD740F12511F12782709902DCC1210
:1051030068E540DD902DD4E493901B47F09084A391
:1051130012071812711D0238C8F582E412322122D7
:1051230074F11203F374F51209BAEAFEEBFF89086E
:105133008C09E9A2E050117EFC7FFFA2E15005D269
:10514300E40251C7D2E3807C1255B47003A3E06933
:10515300600EAC087902EEFAEFFB121D0DE9700543
:1051630079000252A5E508F50A780A1208F87902CF
:105173001252AA120907E960030252A3E508C2E525
:10518300F508A2E64040740312099AEEFAEFFB1207
:105193001A8BE9702B125FBCEEFAEFFB1222778AAF
:1051A3000A8B0BEA4B601FEA2402FAE4350BFB126D
:1051B3001A85E96011123E9074031209921213B317
:1051C300E508D2E5F508901B46E0F50E901BC212E8
:1051D3003AC9780A1208F47D017C00901B46E0F975
:1051E300AA0AAB0B121CCB7402120907E9F8901B35
:1051F30046E004F0E960030252A3E508A2E5500487
:10520300740E80027406C0E07401120C08D0E01220
:1052130052C3EA4B700302529F1252B8350B12432A
:1052230088E50A241A1252EBEAF0A3EB1252E212B7
:105233004C2B8882F5837401F074785508A3127897
:105243002EE50EF0EE88828983A3A3A3F0EF12521A
:10525300D0E4F0E508A2E5500F740312099AE8249C
:1052630006FAE439FB1213B3850A82850B83A3A3E1
:1052730074FDF0A374FFF0E5096016902DCAE49362
:10528300F8E509C398500AE50A24131252EBE5091D
:10529300F0AA0AAB0B121B3FE9F9800679108002D2
:1052A30079C7740B0254657CFE7DFFEEFAEFFB12A7
:1052B3001C89740122EA1252BD222417F582E422CA
:1052C300F0AA18AB191221938A0A8B0B22888289C0
:1052D30083A3A3A3A31252DC22126B67A3A322F01E
:1052E300E50A240B1252EB22F582E4350BF58322F7
:1052F30074F41203F37A007B10125FC56008901CEC
:105303002E7401F0803C901B18E06401901E4870DD
:1053130006E0FC79018004E0FC79037A007B00124B
:105323001C35902DB3E493F508740193F509E4F566
:105333000AF50B78081208EC7A007B1012436B1203
:105343000907800574181209077F0402060974F11E
:105353001203F38A088B098C0A8D0B890E1248738A
:1053630060057AFF02542F901E47E0640260030237
:10537300545312760F600302544D7900AA08AB0907
:10538300121D13A90E126304AE0CAF0DEA4F700386
:105393000254538A828B83A3A3A3A3A3126A7E70AE
:1053A300731272858E828F83A3A3A3A3A3A3E05456
:1053B30018604F902DCEE4938E828F83A3A3A3A373
:1053C300F0740F120C08125FBF7411120C08124C08
:1053D3002BEA650A7003EB650B6010EA6C7002EB55
:1053E3006D6008EA687002EB69701D880C890D789E
:1053F3000C1208F4AA0AAB0B1222B37402120907A7
:105403008006901BC112545C74FE6A700374FF6BB8
:10541300601E8043A3A3A3E0640360228A828B837C
:10542300A3A3A3A3A3E0640470067AFE7BFF8027F3
:105433008E828F83A3A3A3A3A3E0640260127907E0
:10544300AA08AB09121D3DE96006AA08AB0980074B
:10545300AA08AB09121C47800C126836A3A3A3A3A6
:10546300F0221209077F0702060974F71203F3EA11
:10547300FEEBFF121ADFE9700AEEFAEFFB121AEBEA
:10548300E96006EEFAEFFB80047AFE7BFF024C69CB
:1054930074F01203F374FF1209BAE98518828519AF
:1054A30083F08A088B098C0E8D0F7E001248737966
:1054B3000060030255AF1269DB8A0A8B0BEA4B606B
:1054C300658A828B83A3A3A3A3A3E0640360238AD7
:1054D300828B83A3A3A3A3A3E0640160030255AD5E
:1054E30079078A828B83127283121D3DE96003025E
:1054F30055AD7F02850A82850B83A3A3A3A3A3A330
:10550300E0541870617900AA0EAB0F1255B4700302
:10551300A3E069707D902DDAE493FC1255C5121C4B
:10552300357E010255ADAA08AB09121C47127672EB
:1055330060788A828B83A3A3A3A3A3E0A2E0506A2B
:105543007F01A2E150127901AC08AD09AA0EAB0F9D
:10555300121C65E970AF80528A828B83A3A3A3A335
:10556300A3D2E1F0809F7E01850A82850B83A3A3EA
:1055730012071C750AFE750BFF780A1208F47900EE
:10558300AC08AD09AA0EAB0F121D1F740412090754
:105593008018EFF9AC08AD09AA0EAB0F121C65E930
:1055A30070087E011255C5121CBFEEF97401025B2F
:1055B30031121D138A0A8B0BA80AA90B901BC2E098
:1055C3006822851882851983E0F9AA08AB09227439
:1055D300F01203F374EC1209BA8A0E8B0F8C088D48
:1055E300097402120C08E4F0A3F0750B061263456C
:1055F3007402120C0812385C120C08124F3F600F31
:105603007402120C081258B6A3E0700302577BE52C
:105613000E241DF50CE4350FF50D850C82125B0C81
:10562300C0E07401120C08D0E012782EA3E0FA88CF
:10563300828983A3A3A3A3E0F8E4C8F9EA28FEE4DC
:1056430039FFAA08AB09121CC5E9F9850C82850D3F
:10565300831258C4E029851882851983F0E50AA2CC
:10566300E55003750B0E7487550A700D7418550AAF
:1056730064186005125AF1600A7AD37B0012176727
:1056830002577B530A7878081208F47D00740212DB
:105693000C08E0FC7403120C081258ED120907E918
:1056A300F8740368700302577BE9600302576B7455
:1056B30018550A7003025780E50AD2E0F50AA2E4FE
:1056C3005004D2E1F50AA90A1258CD121D07EA4B7C
:1056D30060538A828B83A3A3A3A3A3A3E05418607C
:1056E300448A828B83A3A3A3A3A3E06401703674CB
:1056F30002120C08124F3F602C125FBC8A828B830C
:105703001272831222A1EA4B601B8A828B83A3E06D
:1057130060137402120C081266C7F88A828B83A383
:10572300E0C3984053E50AF50B780B1208F81258BA
:10573300E0120907E970317C007D007424120C0823
:105743001258BB850E82850F83A3A3A3A3A3A3A390
:10575300A3E060061258AA125FBF851882851983D9
:10576300E0F91258CD121BDB7424120C0812605A94
:10577300F47003A3E0F4603679000258A5901BBBD4
:10578300E0600FE50AF50B780B1208F81258E012E7
:105793000907E50AF50B780B1208F879001252AAEB
:1057A300120907E970C27424120C081258BB780856
:1057B3001208F47D017402120C08E0FC7403120C4D
:1057C300081258ED120907A90AEEFAEFFB125D9AC7
:1057D3007003A3E069600302588EEEFAEFFB123800
:1057E300BE60288A828B83A3A3A3A3E06401600D18
:1057F3008A828B83A3A3A3A3E06402700E740412B2
:10580300099AEEFAEFFB121A8B80131221218A08F0
:105813008B09AC08AD0974041209921213B3850EF7
:1058230082850F83A3A3A3A3A3A3A3A3E06401700F
:105833000E1258AA125FBF740C1209921213B312FC
:105843005ADA1266C54430F50878081208F8740568
:1058530012098A8808890978081208F4740F120952
:105863008A8808890978081208F47406120C08E07B
:10587300F50878081208F87900EEFCEFFD1258CD10
:10588300121C5F740612090702577B85188285195B
:1058930083E0C0E0125ADAF5831258C4D0E0F01264
:1058A30021397414025B31E50E2415F582E4350FBA
:1058B300F58322A31272962212729374FFF0A3F05F
:1058C30022127293A3A3A3A3A3221258D122E50EFB
:1058D300125D0F350FF583E0FAA3E0FB227901ACEB
:1058E30008AD091258D11252B222E0F91258D1125E
:1058F3001CCB74022274F01203F374EE1209BA8AF9
:105903000E8B0FECFAEDFB750B08125FBC1222A194
:105913008A088B09AC08AD09EA4D601F8A828B8324
:10592300A3E0701712632F5001097A027B00120261
:10593300A3E88C828D83F0A37407F0125ADA125B0A
:105943000CC0E07401120C08D0E0125FB6125AFECC
:10595300E0FAE4CAFBEC2AF508E43BF509888289FE
:1059630083A3A3125AFEA3A3E0FBECFEE43BFF8850
:10597300828983A3A3A3A3A3A3A3E0851882851984
:1059830083F0E50AA2E45003750B10A2E5500674F8
:1059930008250BF50B748F550A7005125AF1600A2E
:1059A3007AD37B00121767025AD6530A707800E540
:1059B3000AA2E4501B125AE42408FCA3E03400FDBD
:1059C300740A1209921213B37808E50AC2E4F50ABD
:1059D300E50AA2E5501F125AE428F8A3E03400F9BF
:1059E300E82408FCE439FD74021209921213B3E5AA
:1059F3000AC2E5F50A7401120C081255CB121D01F7
:105A0300E9F91268E2504AE9F50C750D0074037860
:105A13000C120B1F74DD250CF582740E12741CE03E
:105A2300F8851882851983E0C3985022E0C0E0E925
:105A3300F50C750D007403780C120B1F74DD250C27
:105A4300F582740E12741CD0E0F078008005025ABF
:105A5300D67804901BC2E065087004A3E065096072
:105A630063E87014E50AF50B780B1208F8125B1F54
:105A7300120907E9705D80057404687056780A128C
:105A830008F8740312098A880A890B780A1208F441
:105A9300740D12098A880A890B780A1208F47406AD
:105AA300120C08E0F50A780A1208F87406120C08BA
:105AB300E0F9EEFCEFFDAA08AB09121C5F740612B5
:105AC3000907800FE50AF50878081208F8125B1F2A
:105AD30012090774128057E50E241DF582E4350F71
:105AE30022E50E241DF582E4350FF583E022E50E51
:105AF3001252BD350FF583E0650B22A3A3A3E0FC8F
:105B030088828983A3A3A3A3221233478882F583C0
:105B1300A3E0F50A88828983A3A3E0227901E50E35
:105B2300125D0B350F12772A1252AE22740E120930
