:020000040000FA
:06000000020B8F02025307
:03002B000209497E
:030033000206C7FB
:030043000207D7DA
:030053000201881F
:03006B000206A1E9
:100083000201E70100F0FF0700080000FFFF000086
:10009300070400000F010147726F757000FF040031
:1000A300100502640A2FAC092FAC09C0C1C2C3C436
:1000B300C5C6C7C8C9CACBCCCDCECF5A69674265BE
:1000C30065416C6C69616E636530390100FFFFF255
:1000D300E0A161000000000001B0846B0D710D7D93
:1000E3000D770D0020FD000206FFFF1E08004318D8
:1000F3002E1E002C0100001116000000000000005D
:1001030000000000000000000008040102030003D7
:10011300F68301B4840104020000CA18000000E859
:10012300030000FFFF42190103E8030000640064B9
:1001330000B801A0BB0D00A0BB0D00020202070422
:10014300010101051E02051E020A0A010101080937
:10015300080103B80B02803E0102FEFFE8030A0513
:10016300000134120A011401E00105030101FF0F2C
:1001730010FEFF122D00000000842B00000000FF82
:10018300000000FF00C0E074F112046AA2AFE43380
:10019300F509D2AF85A708AFA1EF5508FE74105E2D
:1001A3006006120F6375A1EF74085E6008120F6991
:1001B30075A1F78024EFA2E092F0E508A2E082F0B7
:1001C3005017906198E0F8900914E0C398A2D265A3
:1001D300D0335002E8F075A1FEE509A2E092AF7FAB
:1001E300020204C9C0E074F212046AA2AFE433FE4F
:1001F300D2AF9061A4E0F8759B00E5915854086074
:10020300087591F7120FB78023E5915854106008D1
:100213007591EF120FBD8014E591A2E092F0E8A270
:10022300E082F05007E0C2E0F01211079061A3E012
:10023300F8E5E9585404600E1210DD75E9FB90618E
:1002430093E0A2E640F2EEA2E092AF7F010204C97E
:10025300C0E074F212046AA2AFE433FED2AF90613D
:10026300A5E0F8E5BF585404600675BFFB12111FE3
:1002730080D4C3E498F8E499F91202B68026C3E463
:100283009AFAE49BFBE920E7E91202B6E498F8E462
:1002930099F922C3E498F8E499F91202B6E498F8BC
:1002A300E499F9C3E49AFAE49BFB22EB20E7CFE954
:1002B30020E7E0B90010BB0008E88AF084F8AAF050
:1002C30022E4FBC8FA22EB70227B10C833C8C9337F
:1002D300C9335007C39AC3DBF280069A50012ADB65
:1002E300EAC833F4C8C933F4C9FA2275F008E4C87C
:1002F30033C8C933C933C99AC99B5004C92AC93BF6
:10030300D5F0ECFBC833F4C8E4C9FA22080808EABC
:10031300C0E0EBC0E086F0E7A4FA180986F0E7A492
:100323002AFA180986F0E7A42AFA180986F0E7A43E
:100333002AFA1986F0E7A4FBE5F02AFA190886F0F1
:10034300E7A42BFBE5F03AFA190886F0E7A42BFBA8
:10035300E5F03AFA18180986F0E7A4C5F02BFBE498
:100363003AFA1908E7C5F0C6A426F6E5F03BFBE424
:100373003AFA1886F0E7A4F6E5F00826F6E43B0817
:10038300F6E43A08F6D0E0FBD0E0FA22E4CFC0E08E
:10039300E4CEC0E0E4CDC0E0E4CCC0E075F020E6FC
:1003A30026F608E633F608E633F608E633F61818B9
:1003B30018EC33FCED33FDEE33FEEF33FFC3EC9764
:1003C30009ED9709EE9709EF97191919400FFFECFB
:1003D30097FC09ED97FD09EE97FE191906D5F0BFB5
:1003E300ECF709EDF709EEF709EFF7191919D0E062
:1003F300FCD0E0FDD0E0FED0E0FF222518C582C08E
:10040300E0E51934FFC583C0E0E518C3958224F8FD
:1004130010AF088583198582188008858319858222
:1004230018D2AFCEF0A3E520F0A37808E608F0A336
:10043300DEFAEFF0A3E58124FAF8E608F0A3E60874
:10044300F0A3E608F0A30808E608F0A3E608F0A383
:1004530015811581D0E0FED0E0F815811581158155
:10046300E8C0E0EEC0E022C0D02518C582C0E0E5B8
:100473001934FFC583C0E0E518C3958224F310AF98
:10048300088583198582188008858319858218D287
:10049300AFC8F0A3E9F0A3EAF0A3EBF0A37908E770
:1004A30009F0A3D8FAECF0A3EDF0A3EEF0A3EFF07C
:1004B300A3D0E0F0A3D0E0F0A3D0E0F0A3E520F0D8
:1004C300A3E5F0F0A322851983851882E0C0E0A399
:1004D300E0F9A3E0FAA3E0FBA37808E0F608A3DFC2
:1004E300FAE0FCA3E0FDA3E0FEA3E0FFA3E0C0E08D
:1004F300A3E0C0E0A3E0F5D0A3E0F520A3E0A3F5DB
:10050300F010AF08858319858218800885831985C3
:100513008218D2AFD082D083D0E0F8D0E032120C70
:1005230009B90003020560E490040178A8791A80F0
:1005330002F0A3D8FCD9FA7AA87B1D900086780331
:1005430079028015E493A3AD82AE838A828B83F014
:10055300A3AA82AB838D828E83D8E9D9E77582C043
:100563007583E974061208BC7582017583297400CA
:100573001208BCE47375F0108E1A8F1B85821F85D9
:10058300831E851882851983E0CEA3E0CF851F8261
:10059300851E83EBC9EAC8EDCBECCAC3E833C8E9CF
:1005A30033C9EA33CAEB33CBC3EA9EF51DEB9FF5A0
:1005B3001CB35004AB1CAA1DEC33CCED33CDD5F0EA
:1005C300DAAE1AAF1B22D083D082ECC0E0EDC0E0DC
:1005D300E493A3FCE493A3FDED4C600D1206E5EC5C
:1005E30024FFFCED34FFFD80EFE493A3FCE493A32D
:1005F300FDED4C600D120782EC24FFFCED34FFFD92
:1006030080EFD0E0FDD0E0FCE493A3C0E0E493C02E
:10061300E022851983851882E0A3FEE0A3F5207804
:1006230008E0A3F608DFFAE0A3FFE0A3C0E0E0A33D
:10063300C0E0E0A3C0E0E0A3C0E0E0A3C0E010AFEF
:10064300088582188583198008858218858319D2C5
:10065300AFD083D0820208C2D083D082E9C0E0E465
:1006630093A3C386F0C5F095F0F908E493A386F04D
:10067300C5F095F0700BE493A3C3994005E904809A
:1006830002A3E475F002A42582F582E5F03583F533
:1006930083D0E0F9E493A3C0E0E493C0E022C0E098
:1006A30074F212046AA2AFE433FED2AFE589A2E189
:1006B3005003120E6D758900C2C5EEA2E092AF7FA2
:1006C300010204C9C0E074F212046AA2AFE433FE6B
:1006D300D2AFE58BA2E05003120E6D758B00C2E81A
:1006E30080D8C0E0C3E49396087401939618400F32
:1006F300E49366700808740193661870007019A378
:10070300A3C3E49396087401939618A3A3400DD052
:10071300E0D0E0D0E0020605A3A3A3A3A3A3D0E007
:10072300227404800474028000CCC0E0EDC0E0E5D4
:1007330018C39CCCAD1950011D10AF068C188D1930
:1007430080068C188D19D2AF12083ED0E0FDD0E0A0
:10075300FC2274028000CCC0E0EDC0E0E518C39C2D
:10076300CCAD1950011D10AF068C188D1980068C65
:10077300188D19D2AF1207FAD0E0FDD0E0FC22C0E9
:10078300E0C0F088F0E4936670080874019366187B
:100793007000A8F0A3A3700BD0F0D0E0D0E0D0E0BD
:1007A300020605A3A3D0F0D0E022D083D082CCC030
:1007B300E0E493A3600612087E1470FAE493A36046
:1007C300061209DC1470FAD0E0FCE493A3C0E0E461
:1007D30093C0E022C0E074F212046AA2AFE433FED5
:1007E300D2AFC2C0E5D1A2E45003120ED3EEA2E011
:1007F30092AF7F010204C9CAC0E0E493A3C582CCCF
:10080300C582C583CDC583F0A3C582CCC582C5830C
:10081300CDC583DAE5D0E0CA22A2E792D65002F42E
:100823000430F70663F0FF05F0B3400384800384CC
:10083300F40430D60563F0FF05F022CAC0E0E0A35C
:10084300C582CCC582C583CDC583F0A3C582CCC583
:1008530082C583CDC583DAE6D0E0CA22C008C3E0EF
:1008630096F50808A3E096420808A3E09642080814
:10087300A3E09645087001D3D00822C0E0E493A317
:10088300D39C5010E493A3C39C400AD0E0D0E0D0A3
:10089300E00207CAA3A3A3D0E02270090808082234
:1008A3006016181818C6C333C608C633C608C6333D
:1008B300C608C633C6D5E0EA22C09FF59FE473D0CD
:1008C3009F22D083D082C09FE493C0E0740193C081
:1008D300E0740293F59F22C5822518C582C583352E
:1008E3001910AF07F5198582188007F51985821845
:1008F300D2AFC583227404800A7403800674028015
:10090300027401C0E0F40412092ED0E0120BCC22D1
:1009130000C0D0251810AF08F518500C0519800831
:10092300F51850020519D2AFD0D0222518F5821040
:10093300AF08F518400C15198008F5184002151971
:10094300D2AF85198322C0E0C0D0E8C0E0A8A8D206
:10095300AFC2C7E8A2E792AFD0E0F8D0D0D0E03280
:10096300BB0102E722C082C08389828A83BB000362
:10097300E08002E493D083D082226016080808C680
:10098300C313C618C613C618C613C618C613C6D5CE
:10099300E0EA222518F8E43519F9222518FAE43596
:1009A30019FB222518FCE43519FD22C3E0C696F68F
:1009B30008A3E0C696F608A3E0C696F608A3E0C629
:1009C30096F622251810AF08F518400C1519800863
:1009D300F51840021519D2AF22C0E0E493A36C705E
:1009E30009D0E0D0E0D0E00207CAA3A3D0E022E020
:1009F30066701008A3E066700A08A3E06670040836
:100A0300A3E06622E76670100809E766700A080922
:100A1300E76670040809E76622C3E09608A3E09638
:100A230008A3E09608A3E096A2D265D03322C3E6DA
:100A330097F60809E697F60809E697F60809E69790
:100A4300F622C3E096F008A3E096F008A3E096F040
:100A530008A3E096F022C3E49396087401939608E2
:100A630074029396087403939622E056F608A3E063
:100A730056F608A3E056F608A3E056F622E056F031
:100A830008A3E056F008A3E056F008A3E056F022CE
:100A9300E026F008A3E036F008A3E036F008A3E070
:100AA30036F022E026F608A3E036F608A3E036F691
:100AB30008A3E036F622E627F60809E637F6080922
:100AC300E637F60809E637F622E647F60809E64769
:100AD300F60809E647F60809E647F622E046F6086F
:100AE300A3E046F608A3E046F608A3E046F622E0B4
:100AF30046F008A3E046F008A3E046F008A3E0466A
:100B0300F022E657F60809E657F60809E657F6080D
:100B130009E657F622E493F608740193F608740283
:100B230093F608740393F622700422600D18C6C36B
:100B330033C608C633C6D5E0F41822E4C396F608D4
:100B4300E496F608E496F608E496F622C6F4C60898
:100B5300C6F4C608C6F4C608C6F4C622600D08C6A5
:100B6300A2E713C618C613C6D5E0F322C3E7960857
:100B730009E7960809E7960809E79622C3E096086D
:100B8300A3E09608A3E09608A3E0962275D000752B
:100B9300813F75180175190400020521E6F008A3C9
:100BA300E6F008A3E6F008A3E6F022600C08C6C34B
:100BB30013C618C613C6D5E0F422E0F608A3E0F680
:100BC30008A3E0F608A3E0F622CAC0E0E6F0A30813
:100BD300DAFAD0E0FA22E8F0A3E9F0A3EAF0A3EB13
:100BE300F022E0F8A3E0F9A3E0FAA3E0FB22EAF0A5
:100BF300A3EBF0A3ECF0A3EDF022E0FAA3E0FBA358
:100C0300E0FCA3E0FD22E5C754F84401F5C77901F0
:100C1300222518F582E43519F58322C2AF75D69FD4
:100C2300020000221208C5ADC2041208C569C3043C
:100C33001208C599C3041208C5E6C3041208C57A8D
:100C4300C4041208C523C5041208C574C5041208D8
:100C5300C5B8C5041208C55CC6041208C5C9C604D4
:100C63001208C5F8C6041208C50BC8041208C52B20
:100C7300C8041208C58FC8041208C56BC90412083A
:100C8300C598CB041208C546CC041208C5DECE04B1
:100C93001208C563CF041208C5DAD1041208C514BB
:100CA300D2041208C570D3041208C583D3041208F2
:100CB300C5C4D3041208C55CD5041208C500800658
:100CC3001208C57C80061208C5AF80061208C5DD70
:100CD30080061208C52283061208C541830612083E
:100CE300C58683061208C51C84061208C5688406D7
:100CF3001208C5FA84061208C5D385061208C5244E
:100D030086061208C58986061208C5FC86061208DF
:100D1300C54087061208C59887061208C5BA870614
:100D23001208C54A88061208C5DB88061208C527BB
:100D330089061208C55389061208C5948906120844
:100D4300C52C8B061208C5188C061208C5FA8C062A
:100D53001208C528D7041208C55BD7041208C5A317
:100D6300D7041208C5AFD9041208C518DC04120849
:100D7300C54BDC041208C527DF041208C5DDE104F6
:100D83001208C573E2041208C5F1E5041208C5C2CE
:100D9300E6041208C526E8041208C5A8E8041208E8
:100DA300C5A0E9041208C5E1EB041208C568EC0408
:100DB3001208C569EE041208C58FF1041208C59222
:100DC300F1041208C5A5F1041208C5F2F1041208D2
:100DD300C507DA051208C5DBDE051208C53FDF05C6
:100DE3001208C564E0051208C54EE4051208C52DB6
:100DF300E8051208C54DEA051208C593EA0512086D
:100E0300C562EC051208C571FA061208C582FA0616
:100E13001208C520FB061208C53AFB061208C5F0E6
:100E2300FF041208C5ABFC061208C564FF031208D1
:100E3300C574FF031208C58CFF031208C5F4FF0332
:100E43001208C56CF7061208C5F0F7061208C55854
:100E5300F8061208C571F3061208C590F3061208C6
:100E6300C5FDF3061208C542F4061208C59BF40635
:100E73001208C5EEFF011208C5F1FF011208C5F4FF
:100E8300FF011208C5F7FF011208C5FAFF01120896
:100E9300C5D6D9061208C5E4D9061208C55DDA0617
:100EA3001208C532DB061208C504DD061208C5C3E5
:100EB300FF051208C5E0C3061208C54CC406120894
:100EC300C504C5061208C5F1C5061208C566C706DE
:100ED3001208C5CDC7061208C521C8061208C52ABF
:100EE300C8061208C53AC8061208C5ADC8061208D6
:100EF300C5C3C8061208C5CDC8061208C52DFA0316
:100F03001208C559FA031208C5F0FC031208C530CC
:100F1300FD031208C56CFD031208C580FD0312080A
:100F2300C599FD031208C58AFE031208C53CFF03D9
:100F33001208C550FF031208C5DAF4061208C5FEED
:100F4300F4061208C517F5061208C555F50612086A
:100F5300C585F5061208C5B2F5061208C518F606CA
:100F63001208C51BF6061208C525F6061208C53277
:100F7300F6061208C519E7061208C539E70612086E
:100F8300C578E7061208C596E7061208C5B1E70655
:100F93001208C517E8061208C523E8061208C5801B
:100FA300E8061208C58FE8061208C5B3E80612085A
:100FB300C574E9061208C581E9061208C592E90657
:100FC3001208C5EBFB061208C503FC061208C52F61
:100FD300FC061208C5D0CD061208C52ACF06120892
:100FE300C538CF061208C54BCF061208C560CF0619
:100FF3001208C575CF061208C588CF061208C504A6
:10100300D0061208C569D0061208C5FFD00612081B
:10101300C5D8D1061208C5E8D1061208C5F7D1060E
:101023001208C53A7F001208C55E7F001208C58604
:101033007F001208C5AE7F001208C5DEEE06120857
:10104300C505EF061208C523EF061208C592EF0681
:101053001208C546E4061208C55FE4061208C56B0C
:10106300E4061208C57FE4061208C59DE4061208CB
:10107300C5A7E4061208C5B1E4061208C5C4E40610
:101083001208C54AE5061208C5BFE5061208C5EEF3
:10109300E5061208C53CE6061208C58BE6061208EB
:1010A300C5A6E6061208C5B0E6061208C5C1E606DF
:1010B3001208C504E7061208C551FB061208C579D4
:1010C300A3061208C5A5A3061208C5C2A3061208E3
:1010D300C5D5A3061208C5F0A3061208C54AA4067F
:1010E3001208C578A4061208C588A8061208C5E622
:1010F300A9061208C518AA061208C57BAA06120873
:10110300C5E7AB061208C50FAC061208C524AC062A
:101113001208C534AC061208C574AC061208C5B66D
:10112300AC061208C5C6AC061208C53CF606120882
:10113300C556F6061208C57EF6061208C597F606CA
:101143001208C5BBF6061208C5D9F6061208C5F083
:10115300F6061208C51EF7061208C539F706120867
:10116300C532FC061208C569DD061208C579DD061D
:101173001208C57EDE061208C5B0DE061208C5E0F9
:10118300DE061208C503DF061208C51ADF061208B9
:10119300C554DF061208C5B9DF061208C5FBDF0612
:1011A3001208C542E0061208C56FE0061208C59A88
:1011B300E0061208C5F5FF021208C5F8FF0212087F
:1011C300C5FBFF021208C55AEC061208C57AEC06E5
:1011D3001208C58EED061208C5B0EE061208C571D9
:1011E300F9061208C5A7F9061208C5BFF9061208C1
:1011F300C501FA061208C511FA061208C520FA0637
:101203001208C564FA061208C56EFA061208C588E4
:10121300BC061208C5B3BC061208C5FCBC061208FE
:10122300C565BD061208C584BD061208C59DBD0669
:101233001208C53FBE061208C548BE061208C59966
:10124300BE061208C5C2BE061208C5CFBE061208E6
:10125300C540BF061208C5CEBF061208C51CC0068E
:101263001208C552C0061208C5B3C0061208C5DC71
:10127300C0061208C553C1061208C5AFC10612083D
:10128300C5ECC1061208C523C2061208C535C2063D
:101293001208C547C2061208C566C2061208C56F02
:1012A300C2061208C52AC3061208C576C306120869
:1012B300C5B4C3061208C5AEFE011208C533F10654
:1012C3001208C569F1061208C5B1F1061208C50A6C
:1012D300F3061208C5C8C5051208C5F9C6051208E4
:1012E300C535C7051208C5EFC8051208C519C905D4
:1012F3001208C592CB051208C5D2CB051208C566E4
:10130300CD051208C505CE051208C55DCE05120828
:10131300C5F0CE051208C52ACF051208C56CCF0546
:101323001208C5DFD0051208C55FD2051208C59C97
:10133300D4051208C5CAD4051208C5F6D405120887
:10134300C5FFD4051208C55CD5051208C5ECD50543
:101353001208C528D9051208C5AAD9051208C5D58A
:10136300FF021208C5EBFF021208C528D2061208B5
:10137300C53ED2061208C5E2D2061208C521D3061D
:101383001208C53ED3061208C56FD3061208C5BCA2
:10139300D3061208C5F0D3061208C52BD4061208CB
:1013A300C520D6061208C596FF041208C571F806B3
:1013B3001208C5D0F8061208C50EF9061208C54F63
:1013C300F9061208C52C30001208C538300012087F
:1013D300C59B32001208C5A532001208C537330079
:1013E3001208C57333001208C56D34001208C5CC4A
:1013F30034001208C54E35001208C5C33500120863
:10140300C50D36001208C58836001208C5473800D6
:101413001208C50D3A001208C5133B001208C51A7D
:101423003C001208C5753E001208C5EA3F001208C9
:10143300C58740001208C5D341001208C5D3420036
:101443001208C54544001208C5E548001208C5CF77
:1014530049001208C5514A001208C5764A0012080D
:10146300C59B4A001208C5364B001208C5544B00F1
:101473001208C5724B001208C5E34B001208C502DF
:101483004C001208C52F4C001208C5304D0012083D
:10149300C5194E001208C5B04F001208C5D14F0040
:1014A3001208C57750001208C5BE50001208C53097
:1014B30051001208C5B351001208C5185200120892
:1014C300C57552001208C51853001208C58D530084
:1014D3001208C5C853001208C52A54001208C5943F
:1014E30055001208C51157001208C5B85700120855
:1014F300C5105A001208C55A5A001208C56F5A007F
:101503001208C5C05A001208C5315B001208C56134
:101513005B001208C5D25B001208C5715C0012089B
:10152300C5865E001208C51C61001208C529620049
:101533001208C52E66001208C5FB66001208C518FE
:1015430068001208C5CC69001208C56DF2041208C0
:10155300C525F3041208C59EF3041208C59AF404C2
:101563001208C5A4F5041208C52EF6041208C55ABC
:10157300F7041208C57BF7041208C51FF804120804
:10158300C542F9041208C5F0F9041208C56CFD043C
:101593001208C54DED051208C5DFED051208C55645
:1015A300EE051208C576F1051208C528F3051208E1
:1015B300C573F5051208C5C0F6051208C565F9051A
:1015C3001208C58FF9051208C5BFF9051208C559D8
:1015D300FA051208C5F0FA051208C501FB05120841
:1015E300C508FB051208C58CFB051208C5D5FB050C
:1015F3001208C5F6AC061208C540AE061208C55857
:10160300B0061208C55FB1061208C58BB1061208F1
:10161300C526B2061208C52FB2061208C532B20695
:101623001208C5CCB2061208C5F1B2061208C57677
:10163300FC061208C50080051208C52F8005120894
:10164300C5AC80051208C50F82051208C5028305C3
:101653001208C57C84051208C5A184051208C5F3C8
:1016630084051208C58585051208C5D185051208AC
:10167300C5E485051208C54686051208C583860597
:101683001208C56D87051208C5C887051208C5333A
:1016930089051208C5128A051208C5608B05120850
:1016A300C5438C051208C5CF8C051208C5088D05E6
:1016B3001208C5278D051208C5728D051208C5923B
:1016C3008D051208C54F8E051208C5728F051208C5
:1016D300C5CD8F051208C50D90051208C50F9105DC
:1016E3001208C5BC93051208C5E293051208C5523A
:1016F30094051208C57794051208C5FE94051208CF
:10170300C5DA95051208C51896051208C59C9605F5
:101713001208C58797051208C58A97051208C5944C
:1017230097051208C59E97051208C5BA97051208B2
:10173300C52398051208C55C98051208C578980555
:101743001208C59F98051208C5C398051208C5FE5F
:1017530098051208C57199051208C5A599051208BF
:10176300C5AF99051208C5EB99051208C5209A055E
:101773001208C53F9A051208C59CFB061208C5B49A
:10178300FB061208C5FDFF011208C52EB506120897
:10179300C57DB5061208C53BB7061208C5F5B806E0
:1017A3001208C533B9061208C560BA061208C56B1C
:1017B300BB061208C58DBB061208C5D7BB061208A7
:1017C300C558BC061208C5DED4031208C5FDD403F0
:1017D3001208C5A0D5031208C5E9D5031208C559D7
:1017E300D6031208C5D1D6031208C538D703120889
:1017F300C53BD7031208C583D7031208C507D8030F
:101803001208C58FD8031208C592D8031208C51D44
:10181300D9031208C560D9031208C5ECDD03120809
:10182300C58BDF031208C5CADF031208C54EE303E5
:101833001208C587E4031208C54CE5031208C5F076
:10184300E5031208C53EE6031208C5C7E8031208FC
:10185300C594EA031208C511EB031208C520EE0371
:101863001208C58CEE031208C598EF031208C5CE03
:10187300F2031208C5DEF2031208C559F403120875
:10188300C5DDF4031208C51BF6031208C524F703CC
:101893001208C590F8031208C5D5F8031208C580CD
:1018A300F9031208C5F6B0051208C591B10512086F
:1018B300C504B2051208C58EB2051208C5E7B20504
:1018C3001208C532B3051208C591B3051208C59EA7
:1018D300B4051208C5BBB7051208C5F1B80512084F
:1018E300C57AB9051208C57EBB051208C522BC0519
:1018F3001208C5B3BC051208C597BD051208C57902
:10190300BE051208C55BC0051208C5D0C105120883
:10191300C5DFC2051208C56CC3051208C578C40526
:101923001208C526E0021208C58FE0021208C5D7C7
:10193300E0021208C51BE1021208C574E102120895
:10194300C5D1E1021208C532E2021208C58CE202D7
:101953001208C500E4021208C527E4021208C53BB9
:10196300E5021208C542E6021208C59DE602120806
:10197300C5B1E7021208C5D9E7021208C526E90274
:101983001208C537E9021208C54FE9021208C566F5
:10199300EA021208C572EB021208C57BEB021208B9
:1019A300C592EB021208C5CCEB021208C5EBEB02A1
:1019B3001208C502EC021208C5FBEC021208C50F9F
:1019C300EE021208C5A8A2061208C541EE021208CB
:1019D300C5B0EE021208C599EF021208C5E6EF0280
:1019E3001208C565F0021208C59CF0021208C51C56
:1019F300F1021208C5F5F2021208C5F5F302120846
:101A0300C543F4021208C5AFF5021208C549F7022F
:101A13001208C5B9F9021208C593FB021208C53DA5
:101A2300FC021208C5B5FC021208C5D1FC0212085B
:101A3300C5CBFD021208C5C3FE021208C52EC004A1
:101A43001208C5F2E0061208C5A2E2061208C56A2A
:101A5300E3061208C5D2E3061208C52DD6061208FE
:101A6300C54BD6061208C58FD6061208C5B5D606CD
:101A73001208C5DCD6061208C5F4D6061208C596A8
:101A8300D7061208C5D8D7061208C5FAD806120811
:101A9300C503D9061208C50CD9061208C515D906FF
:101AA3001208C51FD9061208C5E0C8061208C514D6
:101AB300CD061208C522CD061208C527CD06120889
:101AC300C5E7EA061208C5D37F001208C5008003E4
:101AD3001208C53280031208C59E80031208C53957
:101AE30081031208C5D881031208C51D8203120899
:101AF300C53F82031208C55882031208C57E8203BC
:101B03001208C5BC82031208C50083031208C5224C
:101B130083031208C58483031208C54B8403120888
:101B2300C50285031208C57485031208C5468603DA
:101B33001208C59086031208C5E386031208C54937
:101B430087031208C58387031208C5D587031208C4
:101B5300C5F187031208C51C88031208C5238A032D
:101B63001208C5778B031208C5998B031208C5CDDC
:101B73008B031208C5EE8B031208C5FD8B031208F5
:101B8300C5088C031208C5B88C031208C5218D0340
:101B93001208C5CE8D031208C5068E031208C5CCE4
:101BA3008E031208C5D98F031208C52390031208A8
:101BB300C5B290031208C51691031208C5519103CB
:101BC3001208C5BD93031208C51195031208C54A2F
:101BD30098031208C51799031208C5A5990312089B
:101BE300C5CE99031208C5409A031208C5D49A03B7
:101BF3001208C5C69B031208C5E89B031208C54417
:101C03009D031208C55D9D031208C5709D0312084C
:101C1300C5259E031208C5359E031208C5379F03C9
:101C23001208C5AE9F031208C5DD9F031208C5E362
:101C3300A0031208C529A1031208C5F5A2031208BF
:101C4300C5CDA6031208C5D7A6031208C5EBA60384
:101C53001208C5F5A6031208C5FFA6031208C50995
:101C6300A7031208C522A7031208C52CA70312084D
:101C7300C5A0A7031208C5ABA7031208C5D0A703C5
:101C83001208C5DBA7031208C529A8031208C53328
:101C9300A8031208C53EA8031208C562A8031208C8
:101CA300C586A8031208C5E2A8031208C528A9031C
:101CB3001208C545A9031208C5C2A9031208C5F92C
:101CC300A9031208C538AA031208C585AA03120876
:101CD300C507AB031208C5A0AB031208C570AD035B
:101CE3001208C5CEAD031208C5EAAE031208C5102B
:101CF300AF031208C54FB0031208C575B30312082A
:101D0300C5B6B5031208C592B7031208C528B803B0
:101D13001208C54FBA031208C5FBBA031208C5302F
:101D2300BB031208C595BB031208C59FBB0312086A
:101D3300C5C9BD031208C5F0BE031208C530BF03F1
:101D43001208C5D6BF031208C567C1031208C5F040
:101D5300C2031208C510C3031208C569C3031208DE
:101D6300C56BC4031208C5B5C4031208C505C50372
:101D73001208C5EFC5031208C564C6031208C57E61
:101D8300C7031208C5F9C7031208C5FEC803120822
:101D9300C5A9CB031208C5C8CB031208C529CD03B7
:101DA3001208C5EBCE031208C53FCF031208C5F7CF
:101DB300CF031208C5A3D0031208C5F9D003120834
:101DC300C5AFD1031208C544D2031208C5B0D2036C
:101DD3001208C5EAD2031208C51BD3031208C5773C
:101DE300D4031208C50080021208C532800212080B
:101DF300C56980021208C54582021208C5858202A0
:101E03001208C56883021208C5C083021208C5FB05
:101E130084021208C54785021208C56F880212089A
:101E2300C5D18B021208C51E8D021208C5B48D02DE
:101E33001208C5C08D021208C5F28D021208C574BE
:101E43008F021208C58290021208C5AC90021208D4
:101E5300C50391021208C55C91021208C5C891021C
:101E63001208C5DF93021208C56E95021208C53821
:101E730096021208C57697021208C5A6990212089F
:101E8300C5769C021208C5839C021208C50A9D02EE
:101E93001208C5B29D021208C5F59D021208C53E7F
:101EA3009E021208C5929E021208C5F79E021208EE
:101EB300C55F9F021208C57C9F021208C5AC9F0232
:101EC3001208C5E19F021208C5B1A0021208C55A43
:101ED300A1021208C5DEA3021208C5FEA40212085D
:101EE300C5E7A5021208C569A6021208C58BAA0296
:101EF3001208C5C8AA021208C520AB021208C553AE
:101F0300AB021208C5D4AB021208C521AC021208F9
:101F1300C5ACAC021208C5FEAC021208C5D5AD02B1
:101F23001208C58EAE021208C529AF021208C542B7
:101F3300B2021208C562B3021208C513B70212082F
:101F4300C52AB8021208C52DB8021208C55CB8022A
:101F53001208C562BA021208C53BBB021208C5705B
:101F6300BB021208C5E6BC021208C558BD0212081E
:101F7300C539BE021208C506BF021208C53CC1021C
:101F83001208C5ADC1021208C5EDC1021208C54E43
:101F9300C2021208C511C6021208C500C702120800
:101FA300C5E7C7021208C5B3C8021208C5CFC902E4
:101FB3001208C5E0C9021208C5F4C9021208C52CEB
:101FC300CA021208C55ACA021208C534CC02120842
:101FD300C5CBCC021208C536CD021208C515CF02F7
:101FE3001208C545CF021208C529D0021208C5DA66
:101FF300D0021208C58FD2021208C533D3021208C9
:10200300C568D3021208C5D0D3021208C5FFD40293
:102013001208C5B1D5021208C5E2D5021208C5FAE5
:10202300D5021208C589D6021208C53DD902120885
:10203300C515DB021208C531DB021208C54DDB02F0
:102043001208C51BDC021208C504E0021208C50A07
:10205300FC051208C54AFC051208C5FDFD0512085A
:10206300C50CFE051208C5729A051208C5899F059D
:102073001208C5D49F051208C524A2051208C5B8C5
:10208300A3051208C546A4051208C5A7A60512088C
:10209300C5ACA8051208C500A9051208C50FAB05F4
:1020A3001208C540AB051208C580AB051208C59BD5
:1020B300AB051208C5F6AB051208C518AC05120826
:1020C300C51FAC051208C537AC051208C517AD0509
:1020D3001208C5F6AD051208C5BE84011208C5F67F
:1020E30084011208C5D489011208C51A8A0112088D
:1020F300C5678B011208C5D28B011208C55B8D0120
:102103001208C56B90011208C58691011208C59883
:102113009B011208C52B9C011208C57D9F01120863
:10212300C579A0011208C5D4A0011208C51EA201D9
:102133001208C50CA3011208C5A8A5011208C51CE5
:10214300A7011208C59FA7011208C5A2A70112087B
:10215300C5CDA7011208C57DA8011208C576A9013E
:102163001208C521AA011208C53FAA011208C558C1
:10217300AA011208C581AA011208C5A3AA0112085F
:10218300C5F8AC011208C5BDAD011208C502AE0108
:102193001208C581AE011208C52DAF011208C55F33
:1021A300AF011208C5B3AF011208C5EEAF011208A3
:1021B300C535B0011208C585B0011208C58AB00142
:1021C3001208C5DEB0011208C50AB1011208C5F331
:1021D300B1011208C544B2011208C5A4B201120824
:1021E300C5FEB2011208C599B3011208C5D8B601DC
:1021F3001208C5EAB7011208C564B9011208C5740B
:10220300BC011208C512BD011208C508C00112089D
:10221300C5C7C0011208C50BC1011208C5B6C2016A
:102223001208C5CAC2011208C5D4C2011208C5DE0C
:10223300C2011208C5EAC2011208C50FC301120880
:10224300C5E8C4011208C53DC5011208C547C5014B
:102253001208C551C5011208C5C6C5011208C51526
:10226300C6011208C526C7011208C573C7011208A3
:10227300C580C8011208C5C4C8011208C56AC901CE
:102283001208C55DCA011208C523CB011208C54651
:10229300CC011208C564CD011208C54CCE01120849
:1022A300C564CE011208C5BBCE011208C5C5CE0157
:1022B3001208C5D0CE011208C5EECE011208C536EC
:1022C300CF011208C598CF011208C5BFCF0112086C
:1022D300C5D1CF011208C56CD0011208C5A1D00128
:1022E3001208C588D1011208C5CDD1011208C5B3A2
:1022F300D2011208C5DAD2011208C55DD301120852
:10230300C5CED3011208C557D5011208C583D6011E
:102313001208C546D7011208C50ED8011208C59880
:10232300D8011208C5C0D9011208C562DA01120822
:10233300C5DDDA011208C599DB011208C5E3DB012B
:102343001208C53DDC011208C515DD011208C538A8
:10235300DD011208C5EBDD011208C50DDE0112080F
:10236300C576DE011208C58CE0011208C584E101BF
:102373001208C548E2011208C57AE4011208C5C46F
:10238300E4011208C514E5011208C578E501120835
:10239300C5DAE5011208C508E6011208C52CE601F5
:1023A3001208C561E6011208C592E6011208C5C507
:1023B300E6011208C515E7011208C568E70112080E
:1023C300C58DE8011208C52DEA011208C588EA0186
:1023D3001208C5B1EA011208C53EEB011208C5ACEB
:1023E300EB011208C5BAEB011208C5DEEB011208B6
:1023F300C533EC011208C54EEC011208C500ED010E
:102403001208C538ED011208C57BED011208C5DEBF
:10241300ED011208C5E0EF011208C50AF001120828
:10242300C501F1011208C50BF2011208C5BBF20187
:102433001208C599F3011208C5D1F3011208C5F2B8
:10244300F3011208C534F4011208C596F401120809
:10245300C5A0F4011208C5B0F4011208C5EBF401DC
:102463001208C5CBF8011208C5B8FA011208C59EB7
:10247300FC011208C535FD011208C5D7FD0112087C
:10248300C59680041208C54181041208C5EF810472
:102493001208C5F582041208C51583041208C53E47
:1024A30084041208C5F985041208C56C8604120851
:1024B300C51087041208C51C88041208C587880440
:1024C3001208C5C388041208C50689041208C54149
:1024D30089041208C58389041208C5188A041208DE
:1024E300C5948A041208C55E8B041208C53B8C048C
:1024F3001208C5D38C041208C5ED8C041208C51D3F
:102503008D041208C54E8D041208C5148E041208DA
:10251300C5248E041208C5738E041208C5808E0468
:102523001208C5898E041208C5078F041208C563F3
:102533008F041208C5AE8F041208C5C98F04120890
:10254300C5F48F041208C51190041208C51D900428
:102553001208C5B491041208C5CD91041208C552DE
:1025630092041208C56592041208C58492041208E5
:10257300C52893041208C5A994041208C55C9604DF
:102583001208C5F296041208C5F596041208C5652B
:1025930097041208C58397041208C51A98041208F1
:1025A300C56298041208C56598041208C52B9904DE
:1025B3001208C59899041208C5BE99041208C549A2
:1025C3009A041208C5679A041208C5AD9A04120842
:1025D300C5619B041208C5AB9B041208C5DA9B04B2
:1025E3001208C5379C041208C56C9C041208C598D0
:1025F3009C041208C5A69C041208C5F39C04120887
:10260300C5639D041208C5AC9D041208C5F89D045A
:102613001208C5249E041208C52F9E041208C54D36
:102623009E041208C5389F041208C5429F0412086D
:10263300C5839F041208C5D79F041208C5EB9F04E6
:102643001208C51AA1041208C52FA1041208C5BD9A
:10265300A1041208C502A2041208C58EA20412081E
:10266300C599A2041208C5DBA3041208C5F6A30486
:102673001208C542A4041208C5B1A4041208C5EA8D
:10268300A4041208C504A5041208C564A50412080D
:10269300C503A6041208C54EA6041208C51EA90444
:1026A3001208C5D0A9041208C53DAA041208C57DA5
:1026B300AC041208C595AC041208C598AC04120802
:1026C300C5A4AC041208C5B8AC041208C5C0AC0458
:1026D3001208C5F3AC041208C5F6AD041208C5838D
:1026E300AE041208C5F3AE041208C575AF04120890
:1026F300C536B0041208C555B0041208C5F6B004B7
:102703001208C553B1041208C556B1041208C5CA4C
:10271300B1041208C519B3041208C51FB404120882
:10272300C5AAB4041208C5C5B5041208C58DB604FC
:102733001208C5BEB6041208C5E1B6041208C5EAFC
:10274300B6041208C519B7041208C5A9B7041208BC
:10275300C55FB8041208C5D4B8041208C57BB90410
:102763001208C5F0B9041208C527BA041208C565D2
:10277300BA041208C54AA1061208C59CA00612088D
:10278300C5FF9F061208C5949F061208C5799F06C8
:102793001208C5C99E061208C5CF9D061208C5F5C5
:1027A3009C061208C54B9A061208C55D99061208C5
:1027B300C5F298061208C5227F001208C5157F00CE
:1027C3001208C50B7F001208C5967E001208C55477
:1027D3007E001208C57F7D001208C5507D001208D7
:1027E300C5077D001208C56E7A001208C52C780053
:1027F3001208C5F977001208C58B77001208C54B7C
:1028030077001208C53877001208C52C7700120824
:10281300C5F976001208C5D3BC041208C589740033
:102823001208C527BC041208C589BB041208C54396
:10283300BB041208C50EBB041208C5DBBA04120898
:10284300C5C6BA041208C58674001208C5687400A8
:102853001208C53974001208C53472001208C59BEA
:10286300BA041208C58271001208C5AB70001208C1
:10287300C5F06E001208C5546D001208C5C76C0080
:102883001208C533A3061208C5836C001208C532AB
:10289300FF021208C5E56B001208C59D98061208D1
:1028A300C54898061208C51B98061208C5E897067E
:1028B3001208C5C097061208C56197061208C541DC
:1028C30097061208C50C97061208C5D0930612087E
:1028D300C5A591061208C5958F061208C5128F0665
:1028E3001208C5C68E061208C5FFA2061208C57ACD
:1028F3008E061208C5D48D061208C537EE020000F5
:102903000080FB8F0001008A1E87000100441B35F5
:102913000004004E1E25000200521E260002005431
:102923001E27000200561E28000100601E29000118
:1029330000611E840004001C1B86000100B61D2AD2
:10294300000100621E2B000100631E2C00010069C0
:102953001E2D0008002A1B2E0001006A1E2F0001F5
:10296300006B1E300001006C1E310001006D1E3231
:10297300000100321B33000100331B340001006EE1
:102983001E36000100341B380001006F1E390001A0
:1029930000681E83000200871E630001003F1B6462
:1029A300000100641E65000100651E6D000100400A
:1029B3001B71000800221B66000100861E430001F4
:1029C30000771E44000200781E450001007A1E466F
:1029D3000002007B1E47000800371B480001007DF2
:1029E3001E4B0001007E1E04000100891EA1000190
:1029F300008D1E370001008C1E880001008B1E3CD9
:102A0300000100351B3D000100701E490002007FDC
:102A13001E67000100411B4D000200811E4E000194
:102A230000831E4F000200841E3E000100761E51EB
:102A3300000100721E52000100731E530001007555
:102A43001E54000100361B00000000000000013688
:102A53003601010001020100010301000104010626
:102A63000605020000070100340801000F090401F4
:102A7300010D0100FF0E08000017020000190100FC
:102A8300FF1A0100011B0100FE1C0100081D0200CA
:102A9300001F0100012001000121020000230100A9
:102AA3000F2402000026010001270100082802006C
:102AB300FF2A0100072B0102402C0100002D010019
:102AC300012E0100012F0100FF30010B1D31080011
:102AD300003A0100083B01000F3C0100013D0100E9
:102AE300FF3E04000042040000460400004A0400C4
:102AF300004E04000052040000560400005A040073
:102B030000000000002001BA84000003002001BC83
:102B1300840000040042010F8200000500420120EE
:102B2300820000060042013182000007003001BB31
:102B3300840000100042038A180000110030039B38
:102B4300180000120010039C180000FDFF2101B6BD
:102B5300840300000021039D180300FDFF2141B6FB
:102B6300840204000029059F18020401002901AE14
:102B730084020402002901AC840204FDFF2101B692
:102B83008401037103010301030103010301032210
:102B93000302030103100300030003000300030007
:102BA300030003000342030003240306030003009E
:102BB300030403120325032303250323030403044C
:102BC3000300030003000344030003000323030083
:102BD300036503210035038103000305030003009C
:102BE30003000300032503230303047104020460A9
:102BF30004110470040204020401040204100461B9
:102C030004000414046304730472046204430400A0
:102C13000413040604000400040404120400040062
:102C2300040004000451046400000400040004448C
:102C33000400040004000400046504000435048156
:102C4300046400050400048304000401017101010C
:102C53000101011101010131010101010180011093
:102C63000161013B001400630173017201620143BE
:102C7300010001130106013D0135000401120100A9
:102C83000100010001000104010401330133013C8F
:102C930001440132013600000100016501000135E4
:102CA300008101000105018201830100010302711A
:102CB300023001600211027002010202020202806C
:102CC30002100261023A004100630273027202625F
:102CD300024302000213023800000200020402123F
:102CE300020002000200020002040204023700375D
:102CF300003C0244020002390000020002650200A7
:102D030002350281020002050282028302000203ED
:102D13000071003001600011007000310220035087
:102D2300048000100061000000140063007300724F
:102D330000620043000000130006000000000004CE
:102D4300001200000000000000000004000400372F
:102D53000037003C02440000000000000000006552
:102D63000000003500810000000500000083000022
:102D730000210010002081C61D21001100438100A5
:102D830000210012002083C71D210013002083C8E7
:102D93001D210014002083C91D2100150043818CCF
:102DA30004210016001A81CA1D210017001A81CDC3
:102DB3001D2100200018838E0421002100F183D0FF
:102DC3001D21002200F183E01D2100FDFF2181F080
:102DD3001D36000100060000000F00000000000087
:102DE3000000000000000003FFFF00000403FFFFDA
:102DF3000000FFFF0FF4010005C4040320000100DD
:102E0300000B000000000000000003010F000000A1
:102E130000000000000000000000000000000000AF
:102E2300000000000000000000000000000000D3CC
:102E3300141B15D914E313DF142115DF142D15E525
:102E430014E313DF142115EB14E31300000000F166
:102E530014E3130000000000000000F714E313FD67
:102E63001433150315E313000000000000000000F5
:102E7300000000091545150F15E313091545150F36
:102E830015E313FD1433151515E313130045181F2C
:102E9300004B181F8051180000CF180100CF1802F3
:102EA30000F1170280EB170300F7170400FD170466
:102EB3008003180500091806001518310027183378
:102EC300002D183400331836003918FFFF00000AAC
:102ED30000000002000000040000000800000010D1
:102EE30000000020000000400000008000000000FF
:102EF30001000000020000000400000008000000C0
:102F030010000000200000004000000115210645CC
:102F130021083F210B512110971D021B210533214D
:102F23000721210CFD200D092164AB1BFF000007C5
:102F3300ECFDFDFDECDCDCCCBCACAC9C9C8C7C7C6B
:102F43006C6C5C5C5C4C4C3C3C2C2C1C1C03EAF510
:102F5300E5D5D5C5B5A5959585857575656555552E
:102F630045453535252515150500160F00000B15AC
:102F73000B020002220F3300000E0F0000000000BE
:102F830000000000000000000000005A696742656D
:102F930065416C6C69616E63653039C0C1C2C3C47D
:102FA300C5C6C7C8C9CACBCCCDCECF003C40423A78
:102FB3003F3F392F4730303016181920231A1C1E73
:102FC3003000034D4C4651181A250502000119160D
:102FD30018161618230300303017181921301B1D3B
:102FE3001F300C0E020B040B0A0708000F02040229
:102FF30001010101090200BE040AE80300000E00FA
:10300300E80300000C0028007F0000000304040410
:103013000005030A0C1010081E080C28FF100002FC
:1030230009033C0C050815091EC082C083E99018EA
:1030330028F00235BC74EE1203FE74B61209C68A78
:10304300088B09EB5480604E800EEEFAEFFB1214EE
:1030530043EEFAEFFB12123F901828E0F9121251D7
:103063008A0A8B0BAE0AAF0BEE4F60208E828F83E2
:10307300E0641A60D5EEFAEFFB1213DDE9F974FF91
:103083006960CEEEFAEFFB12124580CCAA08E5097F
:103093006480FB023285EA542070030232811215E8
:1030A300D58A0A8B0BEA450B7003023281EA240DA1
:1030B300F582E4350BF5831260DCEE2402124886B8
:1030C30012655FE05407F8901BD0E0F50F8E828FF6
:1030D30083E0901BD0F0901BE412383970358508DB
:1030E3008285098312328F750E00780C1208FC7CDE
:1030F300027D007AE47B1B12120F740312091385FD
:103103001882851983E4F0780C1208FC7C047D0096
:10311300EC80477402687051850882850983E02436
:1031230008F50CA3E03400F50D750E00780C1208B9
:10313300FC7C027D007AE47B1B12121574031209D6
:1031430013851882851983740212346112328F78C1
:103153000C1208FC7C087D007404120C14AA82ABC8
:103163008312120F7403120913E4F50CF50D780C96
:10317300120900740B1209A6740212099E120D9B08
:103183007402120913740A120C14E0A2E5502C9075
:103193001BE4E4F0A3F07414120C14A982AA83892B
:1031A3000C8A0D750E00780C1208FC7C027D007AE7
:1031B300E47B1B12120F7403120913901B66E0F5D4
:1031C3000C8E828F83E0901B66F07448120C14E01F
:1031D300F874FF686005E8901E10F01227BDE9F946
:1031E3008508828509831207288E828F83A3E0F5E1
:1031F300087509007808120900E9F508780812092A
:1032030004E4F50878081209007508017808120922
:103213000475080078081209047508017808120972
:103223000475080078081209047C217D00AA0AAB02
:103233000B79F2121407740B120913901E10741EEB
:10324300F0E50C901B66F0E50F901BD0F0901BE4AB
:10325300E510F0A3E511F01215DB1215E11215D5F7
:103263008B09EA450960179084991207247A207B19
:1032730000901828E0F912138374041209137A00DA
:103283007B00744A1209137F0A020615E02402F533
:103293000CA3E03400F50D2274F71203FE7AFF024B
:1032A3004A4974F61203FEE9FEEAFF7A047B001230
:1032B30012C9EA4B6038EF8A828B83A3A3A3F0EE93
:1032C3008A828B83A3A3123331E4F0A3F0901837DF
:1032D300124BDD7009901837EAF0A3EB8042E0F956
:1032E30088828983A3A3A3E06F70071212CF7900AA
:1032F3008031E8FCE9FD88828983124BDD70E1743B
:10330300FF6F700C8C828D83123329E4F0A380103D
:10331300901837125E43901837123329E8F0A3E967
:10332300F07901024BFDEAF0A3EB12333122F08A6C
:10333300828B8322C082C083EA1262153BF583E04D
:10334300FA901837800488828983124BDD601C88C9
:10335300828983A3A3A3E0FBEA6B600574FF6B7010
:10336300E588828983A3A3E0F9800279FF0235BC53
:1033730074F21203FE8A088B098A828B831260EF30
:103383001213DDE9F50A74FF650A700302345C7AEF
:10339300197B001212398A0C8B0DAE0CAF0DEE4F58
:1033A300700302345C8E828F837434123461A3A35E
:1033B300EE2402FCE43FFD740612083E8508828574
:1033C30009831241C6A3A3A3A3125303A3A3A3A3D5
:1033D300EAF0A3EB1235FDA3EE240AFCE43FFD74EF
:1033E3000C12083E125E4CC812621538F583E0C019
:1033F300E0EE2416F582E43FF583D0E0F0E50824FF
:103403000CF8E43509F9888289831260EFEE2417FA
:10341300F582E43FF583EAF0A3EB1249BDA3A3A32E
:10342300A3A3A3E0FA74066A7009EEFAEFFB12286D
:1034330017800C74086A7010EEFAEFFB121A3DEE57
:10344300FAEFFB12123F801188828983E4F0A3F024
:10345300EEFAEFFBA90A12124579010253801234E6
:103463006522F08508828509832274F41203FE8A9B
:10347300088B09ECFEEDFF7A087B001212C98A0A59
:103483008B0BA80AA90BE849700479108038123510
:103493003B1235A8740C120C141260EF88828983D6
:1034A300A3A3A3A312661C90182D123A0290182D01
:1034B30060111235968003EAFCEB1239FD70F88C2B
:1034C300828D831235330235B774F41203FE8908F3
:1034D3008A09ECFEEDFF7A0A7B001212C98A0A8B75
:1034E3000BA80AA90BE84970047910803A12353BFE
:1034F30088828983A3A3A3E4F0A312352DE50912DF
:10350300352DA3EEF0A3EFF0901831123A02901884
:103513003160111235968003EAFCEB1239FD70F825
:103523008C828D831235330235B7123601A3A32261
:10353300E8F0A3E9F079002212353F2288828983DB
:10354300E4F0A3124080A3E508F02274F41203FE12
:1035530089088A09ECFEEDFF7A067B001212C98AFC
:103563000A8B0BA80AA90BE8497004791080221270
:10357300359B901833123A02901833601112359626
:103583008003EAFCEB1239FD70F88C828D831235CF
:10359300338021E0FCA3E02212353F88828983A394
:1035A300A31235A822A3E509123606EEF0A3EFF025
:1035B300221209137F04020615D083D0820208C2A7
:1035C30074F21203FEEAFEEBFF8C088D0912145B02
:1035D3008A0C8B0DA80CA90DE84960198882898390
:1035E300A3A3A3EEF0A3EF1235FDE508F0A3E509CD
:1035F300F0790080027901025380123601221236DB
:1036030006A322124080A3A3A32274F41203FE7420
:10361300F71209C6E9FEECFF851882851983740148
:10362300F0EF7006EDC39406405074036A4B604A92
:103633007401120996880A890B780A1209007C1210
:103643007D007A007B00EEF91214617402120913F3
:10365300E9601CE4F50AF50B780A120900740312F9
:1036630009A6740212099E1214A974021209138581
:103673001882851983E0640170047901800279005E
:1036830074090235B474E81203FE74FA1209C68988
:10369300128A168B178C088D091228BF8A148B1572
:1036A300EA451570057902023828AA08AB09A91260
:1036B300121479E9F50FA2E6401C901835124BDD80
:1036C3006014E82419F582E439F583E06401700697
:1036D300E50FD2E6F50F7C067D007900AA18AB1939
:1036E300121221741F120C1412382D6009E054FCBD
:1036F300F0E044018003E054FC124430A3124BDB9E
:10370300602B741E120C14E0FE88828983A31207B7
:1037130028EEFD7402120C14E05403FCAA08AB0952
:10372300A9121214017402120913E9700579010236
:1037330038287422120C14124BDD6012851882850E
:103743001983E04404F07402120C14125E80742096
:10375300120C1412382D6005E044088003E054F77E
:10376300F07421120C1412382D6005E0441080030C
:10377300E054EFF07424120C14E0C0E07404120C53
:1037830014D0E0F07405120C14EEF078038518825F
:10379300851983E05404600278057425120C141211
:1037A30038392510FEE43511FFEEFAEFFB1212C98A
:1037B3008A0A8B0BEA450B6068AC0AAD0BAA18ABFF
:1037C3001912144F7427120C1412530F1208FCAC65
:1037D30010AD1112120F7403120913901E10E0F5AD
:1037E3000C780C120904750C66750D1B780C120904
:1037F30000780A1209008E0C8F0D780C12090078DC
:1038030008120900A90FAC14AD15AA16AB1712289C
:10381300CB7409120913E9FEAA0AAB0B1212CF806B
:10382300027E10EEF9740602653812383122E08503
:10383300188285198322E0F510A3E0F511E822EE42
:10384300F902622474EA1203FE74FE1209C6890B9C
:103853008A148B158C0E8D0F7E007F00750A007401
:1038630018120C141260CE80111239F31214B58B96
:1038730009EE2AFEEF3509FF050A125E575033E5BC
:103883000A75F006123E302403FEE43FFFA3A3E0D3
:1038930070E60EEE70010F88828983A3A3A3A3129F
:1038A3003A028882898360C1A3A3A3E0F91214A317
:1038B30080BDEEFAEFFB1212C98A088B098A0C8BC2
:1038C3000DEA450D70030239DB750A008030A81834
:1038D300A9198812891378121209007808120900AD
:1038E3008A828B831239F31214BB740412091312E4
:1038F3005E3DE50828F508E50939F509050A125E74
:1039030057506FE50A75F006123E38125E291239D8
:10391300EB123E651239E2F0124A311239E2A3F09A
:10392300E5082403F5085002050988828983E070BD
:10393300CBEA240308E43BF9888289831239EBF04C
:10394300A38582088583098A828B831253858C829F
:103953008D83E582458370030238D1AC08AD09AA93
:1039630082AB8388828983E0F91214918A088B09D8
:10397300808A780C1209008E088F097808120900D2
:103983007420120C1412406B120904E4F508F509B3
:1039930078081209007422120C1412406B120904E5
:1039A3007422120C1412406B120904750800780873
:1039B3001209047508017808120904AC0EAD0FAAA8
:1039C30014AB15A90B121407740B120913E9FEAA01
:1039D3000CAB0D1212CF80027E10EEF9023FE01203
:1039E30039E6221239EBA322E08508828509832276
:1039F30012660BAA0EAB0FA90B22FD8C828D8312CC
:103A030060F7EA4B22EEF9023FE574EC1203FE89FC
:103A13000A8A108B11ECFEEDFF7414120C14123A87
:103A2300FF75F003A4F50EE5F0F50FAA0EFB1212D5
:103A3300C98A088B09EA45097003023AFAA808A95A
:103A4300097C008034EC75F003A4FAABF0E50C2A92
:103A5300FAE50D3BFB8A828B83A3123E60EA2402C4
:103A6300FA50010B8A828B831242BDA3123B04A33B
:103A7300F0E82403F85001090C850C82850D83E0DE
:103A8300FAECC39A40BF74016A700AA3E07006752A
:103A93000E01750F007808120900780E12090074E0
:103AA3001C120C14123C14120904E4F50CF50D78E5
:103AB3000C120900741E120C14123C141209047423
:103AC3001E120C14123C14120904750B00780B120D
:103AD3000904750B04780B120904EEFCEFFDAA1020
:103AE300AB11A90A121407740B120913E9FEAA08F1
:103AF300AB091212CF80027E100238421243FDE05E
:103B030022123331A3123B0C22E088828983A32241
:103B130074EC1203FE890A8A108B11ECFEEDFF741C
:103B230014120C14123AFFF5087509007402780890
:103B3300120B2B85080E85090FAA0EAB0F1212C9A3
:103B43008A088B09EA45097003023C0F7900803E1D
:103B5300E9F51275130074027812120B2BE50C258C
:103B630012FCE50D3513FD8C828D83A31243E11204
:103B73004420A31243E1A3F0EC2403FC50010D8C79
:103B8300828D83E012441A1243E550010B09850C20
:103B930082850D83E0F8E9C39840B5740168700A23
:103BA300A3E07006750E01750F00780812090078FE
:103BB3000E120900741C120C14123C14120904E4B2
:103BC300F50CF50D780C120900741E120C14123C3E
:103BD30014120904741E120C14123C1412090475F5
:103BE3000B00780B120904750B07780B120904EE0E
:103BF300FCEFFDAA10AB11A90A121407740B1209EA
:103C030013E9FEAA08AB091212CF80027E10023814
:103C130042E0F50B780B2274E81203FE74FE1209DE
:103C2300C685188285198312661E89098C148D1521
:103C33007E007F00750800741A120C141260CE8087
:103C430009EE2402FEE43FFF0508126B965041E59E
:103C53000875F00D123E302404FEE43FFFE070E8E7
:103C6300A3E070DDEE2405FEE43FFFE82404F50A3B
:103C7300E439F50B850A82F583E0F9121497E960BC
:103C8300C7850A82850B83E0F912149DEE2980B45F
:103C9300EEFAEFFB1212C98A0A8B0BEA450B70038B
:103CA300023E278A0E8B0F750800801CE50C240941
:103CB300FAE4350DFB8A828B83123E56123E65125F
:103CC3003E608C0E8D0F0508126B964003023DBDBE
:103CD300E50875F00D123E381256F585820C858382
:103CE3000D123E51850C82850D83A3AA82AB8312EC
:103CF3003E44F0E50C2402F8E4350DF9888289830B
:103D0300123E56123E6AF0E50E2404F50E500205EB
:103D13000F850C82850D83E070ACE50E2402FCE474
:103D2300350FFD850E82850F83A3A882A9838A821E
:103D33008B83E06003023CAFE50C2404F512E43509
:103D43000DF513851282F583123E51E50C2405F51A
:103D530016E4350DF517851682123E5E85168285AB
:103D63001783124F9AF0E50C2407F8E4350DF98810
:103D7300828983123E44123E6AA3F0E50E2405F5C0
:103D83000E5002050F851282851383E0F9121497F2
:103D9300E97003023CC9AC0EAD0FE50C240BF582B0
:103DA300E4350DF5831260EF851282851383E0F904
:103DB3001214918A0E8B0F023CC9780A1209008EE5
:103DC3000C8F0D780C1209007422120C1412406B24
:103DD300120904E4F50CF50D780C12090074241291
:103DE3000C1412406B1209047424120C1412406B4D
:103DF300120904750800780812090475080978087F
:103E0300120904AC14AD15740B120C141260EFA953
:103E130009121407740B120913E9FEAA0AAB0B1259
:103E230012CF80027E10EEF97402026538123E381A
:103E3300123F7FEE22A4F8A9F0E51028F582E511E0
:103E430022123E4822E0850E82850F83A322123E72
:103E530056F022E0850E82850F8322F5831242C13C
:103E6300F022123331A322A3A312407C123E48A3B3
:103E7300A32274EA1203FE890B8A108B118C0E8D18
:103E83000F7E007F00750A007416120C14124892FC
:103E93008009123F611214A3123F4E850C82850DD7
:103EA30083125E5D40ECEEFAEFFB1212C98A088BB7
:103EB30009EA45097003023F49A808A909750A00E0
:103EC3008010123F871214918A128B13A812A91320
:103ED300050A850C82850D83E0FAE50AC39A40E260
:103EE30078081209008E0C8F0D780C120900741ECD
:103EF300120C14124414120904E4F50CF50D780C99
:103F03001209007420120C141244141209047420B0
:103F1300120C14124414120904750A00780A1209C7
:103F230004750A0A780A120904AC0EAD0FAA10AB85
:103F330011A90B121407740B120913E9FEAA08AB9B
:103F4300091212CF80027E10023A088B09EA240379
:103F5300F8E43509F9EE28FEEF39FF050A22E50AF0
:103F630075F005A4F8A9F0E50C28F582E50D123FDC
:103F73007FA3A3A3126624A3A3E0F9221256F5A8F4
:103F830082A98322E50A75F005A4FAABF0123FD4A7
:103F93008582148583151242C112442B888289833A
:103FA300A3F0E5142402FAE43515FB8A128B138A75
:103FB30082F583123B0CA3F0E82403FCE439FD856E
:103FC30014828515831260F4851282851383E0F9C8
:103FD30022E50C2AF582E50D3BF583A32274021238
:103FE30009137F0E02061574F61203FE74FE1209FE
:103FF300C6E9FE740C120C14124071C0E074011275
:104003000C14D0E0F0A818A91988088909780812B7
:104013000900750802750900780812090074161260
:104023000C1412406B1209047415120C1412072895
:104033007416120C1412406B1209047416120C1429
:1040430012406B12090475080078081209047508F8
:104053000B7808120904EEF9121407740B120913F2
:104063007402120913024BFDE0F50878082212418D
:10407300CA12383112407CE02212408022F088823A
:104083008983A32274EA1203FE89138A108B11EC2D
:10409300FEEDFF7416120C14126941E50A2402F5B1
:1040A3000CE4350BF50D850C82F583E004751200E5
:1040B300F50E750F00FAAB0F1212C98A088B09EAC5
:1040C300450970030241BEA808A909850A82850B28
:1040D300831242C7801DEAFC850A82850B83A3A352
:1040E300A3E02CFBA3E034008B82123E5EA3A882E4
:1040F300A9830A850C82850D83E0FBEAC39B40D626
:10410300850A82850B83A3E0F87418120C14E0F976
:104113007419120C14E0FA741A120C14E0FB7411E3
:104123006870397808120900780E120900EBF50A55
:10413300780A120904E4F50AF50B780A120900EA71
:10414300F50A780A120904E9F50A780A12090475CE
:104153000A00780A120904750A12803C7413687005
:10416300517808120900780E120900EBF50A780A53
:10417300120904E4F50AF50B780A120900EAF50AB4
:10418300780A120904E9F50A780A120904750A0083
:10419300780A120904750A14780A120904EEFCEF6E
:1041A300FDAA10AB11A913121407740B120913E91A
:1041B300F512AA08AB091212CF8003751210A912C7
:1041C300023FE51241CA22125E52F9888289832294
:1041D30074E81203FE89108A128B13ECFEEDFF7450
:1041E30018120C141243F175F003A4A9F02401F57D
:1041F3000EE439F50FAA0EFB1212C98A088B09EADD
:10420300450970030242B6A808A909850C82850DE9
:10421300831242C7802EEA75F003A4FCADF0E50CCF
:104223002CFCE50D3D1243CD1242BD12442788827A
:10423300898312443988828983A3A3F0E82403F88D
:104243005001090A850A82850B83E0FBEAC39B4080
:10425300C57808120900780E1209007420120C1494
:10426300124414120904E4F50AF50B780A12090042
:104273007422120C141244141209047422120C1422
:10428300124414120904750A00780A120904750A03
:104293000D780A120904EEFCEFFDAA12AB13A91064
:1042A300121407740B120913E9FEAA08AB091212C0
:1042B300CF80027E10EEF902653B1242C122E088F4
:1042C300828983221242C1F0A3A882A9837A0022A1
:1042D30074E81203FE89128A108B11ECFEEDFF7451
:1042E30018120C141243F1F50875090074027808CA
:1042F300120B2BE5082401F50EE43509F50FAA0E80
:10430300FB1212C98A088B09EA450970030243C8E4
:10431300850C82850D83124FA1A3AA82AB837900FA
:104323008034E9F51475150074027814120B2BE52B
:104333000C2514FCE50D35151243CD1243E112444F
:10434300278A828B8312443912441AA3A3A3A3128C
:1043530043E550010B09850A82850B83E0F8E9C325
:104363009840BF7808120900780E120900742012D1
:104373000C14124414120904E4F50AF50B780A121A
:1043830009007422120C1412441412090474221228
:104393000C14124414120904750A00780A12090451
:1043A300750A16780A120904EEFCEFFDAA10AB1188
:1043B300A912121407740B120913E9FEAA08AB0918
:1043C3001212CF80027E100242B8FDEC2402F514D3
:1043D300E43DF515851482F583228E828F83124F77
:1043E300AA22124FAAA3A3A3F0EA2404FA22124397
:1043F300FDA385820A85830BE022E0F50CA3E0F59B
:104403000D850C82F583228E828F83A3A3A3A3A39E
:10441300A3E0F50A780A228A828B83A3A3F08C8215
:104423008D83A32212442B22124430E022F0851400
:1044330082851583A322A3F08C828D83A3A3A3A3D8
:10444300E02274F11203FE74EB1209C6EAFEEBFFDD
:10445300C200EE2420F8E43FF9880889098882F530
:1044630083C3E09403A3E094005005790102486CF0
:10447300901835EEF0A3EFF07402120C14EEF0A3D3
:10448300EFF0740E120C14E4F0A3F0740A120C147F
:10449300E4F0A3F0740C120C14E4F0A3F0EE242265
:1044A300F8E43FF9880A890B8882F58312538974EB
:1044B30004120C14AA82AB831214498A0C8B0DA824
:1044C3000CA90D740A120C14125E808508828509EA
:1044D300831260EFEAC398F8EB99F9850A82850B9A
:1044E3008312487E740C120C14125E807408120C32
:1044F30014E090182CF0EE2414124886E0F91228E8
:10450300BF8A828B83E5824583700C901835E4F073
:10451300A3F0790202486C1248D9602BEE2404F50B
:104523000AE43FF50BA3120728740B120C14E0FDE9
:104533007406120C14E05403FC1248C712140174DD
:1045430002120913E9700C901835E4F0A3F0790313
:1045530002486C1248C7121479E9F50E850A828560
:104563000B831260EFEAFCEBFD90182D8004888228
:104573008983124BDD700302466788828983A3A374
:10458300124892C3EC950CED950D40E28882898325
:10459300A3A3A3A3C3E09CA3E09D40D2E8FCE9FD51
:1045A3007404120C14E05407700D7409120C14E017
:1045B300640B700302466BE50EA2E6400302466BF2
:1045C300EE2419F582E43FF583E0600302466B7441
:1045D30002120C141248B0707F7402120C14124BA6
:1045E300D870757C00850882850983E0F912147FF1
:1045F3007401120C147401F07409120C1412489E05
:10460300120C14E0F50C780C1209047407120C1444
:10461300120728750C01780C1209047408120C1483
:104623001267E21209047405120996880C890D7841
:104633000C1209007409120C141248BE120C141245
:1046430048A4120C141260FD12142B7407120913E0
:104653007C011248C712147F901835E4F0A3F07957
:104663000502486C7C007D007404120C14E0F854BD
:1046730003600302478DE8540460057E840247CB40
:104683007409120C14E0F8C394174003024789E835
:10469300F50A750B007402780A120B2B7432250A83
:1046A300F582742E350B124874E84970030247896A
:1046B300850882850983E0C0E07410120C14D0E0F1
:1046C300F0740C120C141260EF7411120C141266B5
:1046D3001E740A120C141260EF7413120C14126677
:1046E3001E741012099E888289831205768A088BAC
:1046F30009A808A909740E120C14125E80E8496017
:10470300467409120C14E0F5087509007402780860
:10471300120B2B74342508F582742E350912487454
:1047230088828983E58245836012740212099E128E
:104733000576740E120C14124BDD600B740E120C02
:10474300141260EF1212CF7409120C14E0F86058BF
:104753007402686053740368604E7405686049743A
:1047630006686044740868603F740C68603A7411AA
:104773006860357413686030741568602B740B6857
:1047830060267E0080427E82803EEC4D602A8C82D1
:104793008D83A3A31248D9601F740212099E1205C8
:1047A30076E9FE74FF6E700B901835E4F0A3F0F910
:1047B30002486C74016E70107404120C14E05404FB
:1047C30060047E8380027E817402120C141248B04E
:1047D30070707402120C14124BD870667404120CAD
:1047E30014E0FA5410705B7401120C14EEF07409A7
:1047F300120C1412489E120C1412406B120904740A
:1048030007120C141207287508017808120904EA24
:104813001260BC1209047405120996880889097884
:10482300081209007409120C141248BE120C141257
:1048330048A4120C141260FD12142B7407120913EE
:10484300D200901835E4F0A3F0EE700479008019DB
:1048530074846EA200700A50047907800C79068074
:10486300085004790980027908741512091302515A
:104873002BF583E493F8740193F922E028F8A3E07D
:1048830039F922F508E43FF509850882F5832212F8
:10489300489622E0F50CA3E0F50D22126B91740803
:1048A30022E02406FAA3E03400FB740922125E52CC
:1048B300C82415F582E438F583E022126563126695
:1048C30007740922850A82850B831260F7850882A3
:1048D300850983E0F922A3A3A3A31241CAE5824574
:1048E300832274F41203FE8A088B09ECFEEDFF7C2D
:1048F300067D007900121221850882850983E05420
:10490300FCF8A3E0F98E828F83E05403FAE84A852A
:104913000882850983F0A3E9126BE0A2E25004D276
:10492300F08002C2F0850882850983E054FBF0A27F
:10493300F0E433F50A750B007402780A120B2BE0CE
:10494300450A126BE0A2E3850882850983E05004DF
:104953004408800254F7126BE0A2E45004D2F080C2
:1049630002C2F0850882850983E054EFF0A2F0E4E7
:1049730033F50A7404780A120B2BE0450A125585A5
:10498300850882850983E0540460108E828F83E05A
:10499300FAA3125A061249C450010F8E828F831252
:1049A30049B61249BD1249B6A3F0EE1269233FFB83
:1049B3000235B71239E6A3A3A322125B5BA322A39A
:1049C300A3A3A3F0A3E9F0EE2402FE2274F71203DB
:1049D300FE8A828B83E054038C828D83124A445473
:1049E30004124A3D5408124A3D5410F88C828D83B8
:1049F300E048F0A3AC82AD838A828B83E0540460E9
:104A030016124A31124F9B1240778C828D83A3F08A
:104A1300EC2402FC50010D8A828B83124F97123EC5
:104A230065124F97A3F0EC1269233DFB801BEA2428
:104A330002F8E43BF98882898322F88C828D83E033
:104A430048123331E0221213D77F01020615C082C8
:104A5300C08390182F80048A828B83123A02600CE1
:104A63008A828B83A3A3E06970ED80047A007B00C4
:104A73000235BCC082C08390183180048A828B8344
:104A8300123A02600C8A828B83A3A3E06970ED80E3
:104A9300047A007B000235BC74F01203FE8A088B93
:104AA30009ECFEEDFF12145B8A0C8B0DEA450D60D9
:104AB300647C0080010C850C82850D83A3A3A3A3D2
:104AC300A3A3A3E0F8ECC398504BECF50E750F00CD
:104AD3007403780E120B2B850C82850D83A3A3A37D
:104AE300A3124D2288828983E493FA740193FBE530
:104AF300086A7003E5096B70BCA3A3124B1C700218
:104B0300EF6B70B17410120C14124B267408120759
:104B1300FA7901800279008015E493FA740193FB1A
:104B2300EE6A2212660B89838882221209137F0898
:104B330002061574F61203FE12145B8A828B83E558
:104B430082458360051260EC80047A007B00024B8F
:104B5300FD74F61203FE12145B8A828B83E5824591
:104B63008360051260EA80047A007B00024BFD74C7
:104B7300F71203FEE9FFEAFCEBFD9018338004888B
:104B8300828983124BDD604688828983A3A3E06F09
:104B930070ED7E0080010E88828983A3A3A3E0FACF
:104BA300EEC39A50DAEE75F003A4FA85F008AB0869
:104BB30088828983A3A3A3A3E02AFAA3E03BFB8A09
:104BC300828B83E06C7003A3E06D70CA80047A006B
:104BD3007B00024A4C126563A3A3125E47E8492295
:104BE30074F61203FE1214738A828B83E582458363
:104BF3006006A3A3E0F9800279007F020206157420
:104C0300F61203FEECFF1214738A088B09A808A995
:104C130009E8496015E82402F582E439F583EF6079
:104C230005E0D2E68003E0C2E6F080CE74F0120322
:104C3300FEEAFEEBFF8C098D0A1214558A0C8B0DCC
:104C4300EA450D7003024D1D750B007410120C1410
:104C5300125E43E8FAE9FB80128C828D83A3A3A33F
:104C6300E493A2E35003024D03050B850C82850DEB
:104C730083A3A3A3E0F8E50BC3984003024D1DE50E
:104C83000BF50E750F007402780E120B2B850C8238
:104C9300850D83124D22124DF17002EF6970CA8A9D
:104CA300828B83E0F88C828D83A3A3E493C3984023
:104CB300B87411650970197401650A609CE50A707E
:104CC300A88C828D83A3A3A3E493A2E240328099AC
:104CD300741365097044E50A700D8C828D83A3A358
:104CE300A3E493A2E080E57401650A6003024C6CBF
:104CF3008C828D83A3A3A3E493A2E14003024C6CB3
:104D03007412120C14124E0D74041207FA8882895D
:104D130083A3A3124FA1790180027900024B31A32F
:104D2300A3A3A3E0250EF8A3E0350FF92274F01234
:104D330003FEEAFEEBFF8C0912145B8A0E8B0FEA6B
:104D4300450F7003024DEC7A007B007410120C14B3
:104D5300125E43880A890B80050AEA70010B850EEF
:104D630082850F83A3A3A3A3A3A3A3E0F8C3EA9815
:104D7300EB940050748A0C8B0D7403780C120B2B7C
:104D8300850E82850F83A3A3A3A3124DFF124DF1BA
:104D93007002EF6970C3A3A3E493F50C740193F558
:104DA3000D850A82850B83125E43C3E50C98E50DDE
:104DB3009940A6EC2405F582E43DF583E493A2E74C
:104DC300E43365096006E493A2E6508D7412120C75
:104DD30014124E0D74081207FA88828983A3A31252
:104DE3005794125E80790180027900024B31E8FC0E
:104DF300E9FD8C828D83124876EE6822A3A3A3A3D8
:104E0300E0250CF8A3E0350DF922125E478C828D64
:104E130083E8FCE9FD2274F11203FEEAFEEBFFECEA
:104E2300FAEDFBEE4F7003024F94EA2402F50CE413
:104E33003BF50D8A828B83A3AC82AD838E088F09E9
:104E4300750A00E91207AD0441425F4F4344714FB5
:104E5300E0E22A4FE8E9DB4E2508CD4E09DB4E0A96
:104E6300EC4E0B2A4F10CD4E18CD4E19DB4E1AECDB
:104E73004E1B2A4F1C3B4F1D444F1E4D4F1F564F79
:104E830020CD4E21DB4E22EC4E232A4F243B4F25CF
:104E9300444F264D4F27564F28CD4E29DB4E2AEC43
:104EA3004E2B2A4F2C3B4F2D444F2E4D4F2F564FF9
:104EB30030CD4E31DB4E38DB4E392A4F3A564FEA6E
:104EC3002A4FF0564FF1834F944F8E828F83124FA8
:104ED300A1ECFAEDFB024F941243DD1249BD124FD0
:104EE3009BF00A0AAB0D024F948E828F83780812CF
:104EF3000BBD8A828B83E508125B5B7808120BBDBE
:104F0300E5098C828D83125B5B7808120BBD7410EC
:104F1300780812097D850C82850D83E508F0EA2463
:104F230003FA506D0B806A8E828F8312072412124C
:104F3300A57404120913805978081208FC7C0580B3
:104F43004678081208FC7C06803D78081208FC7C31
:104F530007803478081208FC7C08802B7808120834
:104F6300FC8E828F83E02401FCE43400800F7808F8
:104F73001208FC8E828F831250B6FCE439FD80093F
:104F830078081208FC7C107D0012120F74031209BA
:104F93001302512BA3A3A3A3E08C828D8322124F70
:104FA300AAF0228E828F83E08A828B8322C082C002
:104FB30083E91207AD03202FC84F383AC84FE0E208
:104FC300C84F00CC4F7901800279000235BCE92437
:104FD300F8607814607914607A14607B24FB606B4A
:104FE30024F8606714606814606914606A24FB60C5
:104FF3005A14605B14605C14605D14605E14605F3F
:1050030014606014606114604214604314604414BB
:105013006045146046146047146048146049146086
:105023002A14602B24F9602714602C146039245A45
:10503300602514602214601F24FA60131460101496
:10504300601524FA6021146022802479018022797A
:1050530002801E7903801A790480167905801279FB
:1050630006800E7907800A79088006791080027914
:10507300000208C274F71203FEE9FE74446E600571
:1050830074436E700C8A828B831250B6FAE43980B3
:105093001574426E600574416E700E8A828B83E0D4
:1050A3002401FAE43400FB800712149DE9FA7B0023
:1050B300024A4C123596F9EC24022274F11203FED3
:1050C300EAFEEBFFEC2406F8E43DF9880889098839
:1050D30082F583123A0270047901804C8C828D83AD
:1050E300A3A3A3A3E0F91214A38A0A8B0B85088256
:1050F300850983E0F508A3E085080CF50D750E001E
:10510300780C1208FCAC0AAD0BEEFAEFFB12120F8F
:105113007403120913740F120C141248DD6007E5AF
:105123000AF0A3E50BF079007F0702061574F0126D
:1051330003FE74F81209C6890A8A088B09ECFEED8E
:10514300FFA818A919880C890D780C120900A90A5F
:105153001214617402120913E970047901804C740A
:1051630018120C14126571741A120C1412489274EA
:1051730006120C14124BDD780C601612090074022F
:105183001209A6AA0EAB0F1214A9740212091380F6
:105193001A120900780E120900EEFCEFFDAA08AB03
:1051A30009A90A1214BB74041209137408024B2EC2
:1051B30074F01203FE74FE1209C68A0C8B0DECFE0A
:1051C300EDFF851882851983E4F0A3F01214678A32
:1051D300088B09EA4509602FA818A919880E890FB9
:1051E300780E120900E4F50EF50F780E1209007916
:1051F30000EEFCEFFDAA0CAB0D8508828509831236
:10520300057674041209138518828519831260EFD9
:105213007402024B2E74F01203FE8A088B09ECFE13
:10522300EDFF1214678A0A8B0B7412120C141265A9
:1052330071E50E450F600A850E82850F83E4F0A3A6
:10524300F0EA450B6027780E1209007412120C1451
:105253001207287901EEFCEFFDAA08AB09850A8243
:10526300850B831205767404120913800279C10237
:105273004B3174F11203FEECFEEDFF8E828F83A39C
:10528300A3A3A3A3E0A2E1506F1214CDE9F50A7022
:105293006A740F120C14125709901829124BDD600F
:1052A30013AC08AD09EEFAEFFBE0F5838882120533
:1052B30076E9603FE5082403F8E43509F9880889AD
:1052C300098882F583125303E0F91214A38A0C8B25
:1052D3000DAC0CAD0D85088285098312530F12089E
:1052E300FC8E828F83A31260EA12120F74031209D9
:1052F300138008750A878003750A88A90A02512B4F
:105303001260F78E828F83A3A3A3A32212489675FC
:105313000E00780C2274F21203FE8908ECFEEDFFF6
:105323008E828F83A3A3A3A3A3E0A2E1504D121403
:10533300CDE9F97048A9081214678A0A8B0BEA456C
:105343000B6034E4F50CF50D780C1209007410129F
:105353000C1412072879028E828F831253878E8250
:105363008F831260EF850A82850B8312057674049E
:10537300120913E9F9800679C1800279887F060250
:105383000615A3A3A3A312660B2274F21203FEEA6B
:10539300FEEBFF8C088D098C828D83A3A3A3A3A3AB
:1053A300E0A2E5501C12146D8A828B83E58245834B
:1053B300600F7902AC08AD09EEFAEFFB12057680B7
:1053C30002790080B874F41203FE125A9C12577FBC
:1053D3001212C9EA4B604D125E4CC313E8138A8262
:1053E3008B83F07C0080328E828F83E0F508A3E00C
:1053F300F8E4C8F9E50828E439F509EC25E0F8E410
:1054030033F9EA28F582EB1256F5E508F0A3E5092E
:10541300F0EE2402FE50010F0C8A828B83E0F8EC3D
:10542300C39840C30235B774EA1203FE8A108B1186
:10543300EA2403F50CE43511F50D850C82F583128E
:1054430060DC750A00750E00750F008049050A8E31
:10545300828F83A3A3E0F8EE2403FE50010FE870CC
:10546300358E828F83E0F9A3AE82AF83EEFAEFFB32
:105473001214A38A088B09EE2AFEEF3509FFEAA26C
:10548300E0500705080470020509E50E2508F50E2E
:10549300E50F3509F50F851082851183A3125E642C
:1054A3001257A440A875F006E50AA404F508250ED2
:1054B300FAE4350FFB1212C98A128B13EA451370F3
:1054C3000302557E1260D6A808EA28F510E43BF5DE
:1054D300118A828B83E50AF0750B00025574E50B84
:1054E30075F0061256E08E828F831256FA125AB066
:1054F300F8851482851583A3A3F0EE2403FE5001DF
:105503000FE8706B8E828F83E0F985148285158393
:10551300A3A3A3125585EEFAEFFB1214A38A088BFB
:10552300098E0C8F0D750E00780C1208FCAC08ADBB
:1055330009AA10AB1112120F7403120913851482F6
:10554300851583A3A3A3A3E510F0A3E511F0EE252E
:1055530008FEEF3509FFE508A2E0500705080470CF
:10556300020509E5102508F510E5113509F51105C2
:105573000BE50BC3950A50030254E1AA12AB1302C5
:105583003FE512558922F08E828F83A3AE82AF83CB
:105593002274EA1203FE8A108B11EA2403F50AE44B
:1055A3003511F50B850A82125707750F00750C002C
:1055B300750D008042050F850882850983A3A3E04A
:1055C300F9E5082403F50850020509FAAB0912149A
:1055D300A38A128B13AE12AF13E5082AF508E50967
:1055E3003FF509EEA2E050050E0470010FE50C2E05
:1055F300F50CE50D3FF50D851082851183A312652A
:105603009312487FC3E50898E5099940A875F0050A
:10561300E50FA404FE250CFAE4350DFB1212C98A2A
:10562300128B13EA451370030256DD850A82850B3C
:1056330083125709EA2EF50AE43BF50B8A828B8322
:10564300E50FF07510000256D3E51075F0051256FC
:10565300E08508828509831256FAF0A3E91266F4FD
:10566300F9851482851583A3A3F0E5082403F508BF
:1056730050020509FAAB091214A38A0C8B0DAE0C68
:10568300AF0D85080C85090D750E00780C1208FC0A
:10569300EEFCEFFDAA0AAB0B12120F7403120913EF
:1056A300851482851583A3A3A3E50AF0A3E50BF074
:1056B300E5082EF508E5093FF509EEA2E050050ED1
:1056C3000470010FE50A2EF50AE50B3FF50B0510F3
:1056D300E510C3950F500302564C02557EA4F8A95A
:1056E300F0E51228F582E5131256F58582148583B9
:1056F300152239F583A322E0FAA3E0F9EA8514829F
:1057030085158322F583E0F508A3E0F5092274F0FB
:105713001203FEEA2403F50AE43BF50B850A821221
:1057230059EF12577F1212C9EA4B604D85088285E3
:105733000983E064017002A3E070291243DDA3F042
:10574300750C01802DE50C1257ADF50EA3E0FDE5B8
:105753000E88828983A3A3F0A3EDF0050CEE240247
:10576300FE50010F8508828509831257941257A4AE
:1057730040D38A828B83E50CF0024B318A828B8380
:10578300A3858208858309E02401FAA3E03400FBA2
:105793002212579822E0F8A3E0F9850A82850B8349
:1057A3002212487EC3EE98EF9922125B0E123B0C35
:1057B300125589E02274EA1203FE74FE1209C68AA6
:1057C3000A8B0BEA2403F508E4350BF509850882F7
:1057D3001259EF750E00750F008007EE2405FE5079
:1057E300010F850A82850B83A31265891257A45082
:1057F30039050C8E828F83E070E1A3A3A3E0F50D3E
:10580300EE2408FE50010FA90D121497E96010A9A8
:105813000D12149D1259D85001081259E480C38EF9
:10582300828F83A3AE82AF8380B875F00CE50CA49E
:1058330004F50A250EFAE4350FFB1212C98A108B00
:1058430011EA451170030259D18508828509831233
:1058530060DCA80AEA28F50EE43BF50F8A828B8305
:10586300E50CF0750D00801888828983125A06A30F
:10587300A3A3A3A3A3A3A3125E810E0EEDFF050DA5
:10588300E50DC3950C40030259D1E50D75F00C12DB
:105893003E381260B27C0C7D007900AA08AB091275
:1058A30012218E828F83E0FB85088285098312573C
:1058B300B31259FA1249C550010F2402FCE43FFD0B
:1058C3008E828F83A3A882A9838E828F83E0FAEBD3
:1058D3007096E5082403F514E43509F515EA8514F3
:1058E30082851583F00EE9FF8E828F83E0F50A8CA3
:1058F300828D83E0F9E50A8508828509831249C20E
:1059030050010F8E828F83E01259FAA3A31249C26A
:1059130050010FEAF9121497E970030258818E0AB5
:105923008F0BAA0EAB0F851482851583E0F9121431
:10593300A38A128B13A812A913851882851983745D
:1059430001F0A3E4F0851882851983E0600C7512D9
:10595300017513007A007B0080367512FF7513FF03
:10596300E824FF1AE934FF8026850A82850B83E049
:10597300C0E0E50E2AF582E50F3BF583D0E0126621
:1059830011A385820A85830BEA2512FAEB3513FBF3
:10599300E8FCE9FDEC24FF18ED34FFF9EC4D70C988
:1059A300850882850983A3A3A3A3A3A3A3A3A3A376
:1059B300E50EF0A3E50FF0851482851583E0F91257
:1059C300149D1259D85001081259E4025881AA10A3
:1059D300AB11023FE0E9F8EE29FEE43FFFE8A2E065
:1059E30022E50E28F50EE4350FF50F22F583E0FED0
:1059F300A3E0FF750C0022FCA3E0F9EC8508828587
:105A0300098322E0F9EA8508828509832274F41266
:105A130003FE125BAFF8A3E0F97A037B001202B630
:105A2300E8F50812659D1212C9EA4B60278A828B3A
:105A330083E508F07508008012E5081257AD125B84
:105A430020F0EE2402FE50010F05088A828B831298
:105A53006B9C40E50235B774F61203FE125B4612E7
:105A630012C9EA4B6003125B4E024BFD74F612033C
:105A7300FE125A9C7A037B001212C9EA4B60178EFE
:105A8300828F83123596F9EC8A828B83125AB08AFD
:105A9300828B83A3A3F0024BFD125AA0228A828B2E
:105AA30083A3A3A3125E52F9E8FEE9FF22F0A3E960
:105AB300125AB722F08E828F83A3A3E02274F412CA
:105AC30003FE125C5EF8A3E034FFF97A037B001255
:105AD30002B6E8F50912691D39FB1212C9EA4B60D7
:105AE30027125BC6E509F07508008015E508125B0F
:105AF3000EE0125B20125C64EE2403FE50010F05DE
:105B030008E508C3950940E40235B775F003A4F826
:105B1300A9F0EA28F8EB39F98E828F8322F50AA3DC
:105B2300E0FDE50A88828983A3A3F0A3ED2274F63E
