:020000040000FA
:06000000020AAB02020D32
:03002B0002089E2A
:0300330002067F43
:0300530002014265
:03006B0002065931
:100083000201A10100F0FF0700080000FFFF0000CC
:10009300050400000003000147726F757000FF0440
:1000A30000100020FD000206FFFF1E08003D12FAAB
:1000B30015002C01000001140000000000000000E6
:1000C3000000000000000000080401020300039E7A
:1000D3008201228301040000C512000000E803002E
:1000E30000FFFF16130188130000E80300006400FB
:1000F3006400B801A0BB0D00A0BB0D000202020703
:100103000401051E02051E020A0A01010808010373
:10011300B80B02803E0102FEFFE8030A050001342A
:1001230012020A011401E005030101FF0F9E2500DD
:10013300000000722400000000FF000000FF00C068
:10014300E074F1120424A2AFE433F509D2AF85A71A
:1001530008AFA1EF5508FE74105E6006120DE3753B
:10016300A1EF74085E6008120DE975A1F78024EF12
:10017300A2E092F0E508A2E082F05017906198E0C7
:10018300F89004F0E0C398A2D265D0335002E8F0AF
:1001930075A1FEE509A2E092AF7F02020483C0E0ED
:1001A30074F2120424A2AFE433FED2AF9061A4E050
:1001B300F8759B00E59158540860087591F7120E85
:1001C300378023E59158541060087591EF120E3D66
:1001D3008014E591A2E092F0E8A2E082F05007E0FB
:1001E300C2E0F0120F879061A3E0F8E5E9585404E8
:1001F300600E120F5D75E9FB906193E0A2E640F299
:10020300EEA2E092AF7F01020483C0E074F2120415
:1002130024A2AFE433FED2AF9061A5E0F8E5BF5866
:100223005404600675BFFB120F9F80D4C3E498F893
:10023300E499F91202708026C3E49AFAE49BFBE97D
:1002430020E7E9120270E498F8E499F922C3E498EC
:10025300F8E499F9120270E498F8E499F9C3E49A7E
:10026300FAE49BFB22EB20E7CFE920E7E0B900109B
:10027300BB0008E88AF084F8AAF022E4FBC8FA225B
:10028300EB70227B10C833C8C933C9335007C39AF4
:10029300C3DBF280069A50012ADBEAC833F4C8C9EB
:1002A30033F4C9FA2275F008E4C833C8C933C93333
:1002B300C99AC99B5004C92AC93BD5F0ECFBC83382
:1002C300F4C8E4C9FA22080808EAC0E0EBC0E086F3
:1002D300F0E7A4FA180986F0E7A42AFA180986F0C9
:1002E300E7A42AFA180986F0E7A42AFA1986F0E7A0
:1002F300A4FBE5F02AFA190886F0E7A42BFBE5F046
:100303003AFA190886F0E7A42BFBE5F03AFA181835
:100313000986F0E7A4C5F02BFBE43AFA1908E7C510
:10032300F0C6A426F6E5F03BFBE43AFA1886F0E7BC
:10033300A4F6E5F00826F6E43B08F6E43A08F6D01E
:10034300E0FBD0E0FA22E4CFC0E0E4CEC0E0E4CDAD
:10035300C0E0E4CCC0E075F020E626F608E633F60C
:1003630008E633F608E633F6181818EC33FCED33D9
:10037300FDEE33FEEF33FFC3EC9709ED9709EE97DC
:1003830009EF97191919400FFFEC97FC09ED97FD39
:1003930009EE97FE191906D5F0BFECF709EDF70939
:1003A300EEF709EFF7191919D0E0FCD0E0FDD0E022
:1003B300FED0E0FF222518C582C0E0E51934FFC551
:1003C30083C0E0E518C3958224F810AF088583192C
:1003D3008582188008858319858218D2AFCEF0A351
:1003E300E520F0A37808E608F0A3DEFAEFF0A3E532
:1003F3008124FAF8E608F0A3E608F0A3E608F0A3E0
:100403000808E608F0A3E608F0A315811581D0E0FB
:10041300FED0E0F8158115811581E8C0E0EEC0E05B
:1004230022C0D02518C582C0E0E51934FFC583C0BA
:10043300E0E518C3958224F310AF088583198582FC
:10044300188008858319858218D2AFC8F0A3E9F014
:10045300A3EAF0A3EBF0A37908E709F0A3D8FAEC39
:10046300F0A3EDF0A3EEF0A3EFF0A3D0E0F0A3D060
:10047300E0F0A3D0E0F0A3E520F0A3E5F0F0A322A1
:10048300851983851882E0C0E0A3E0F9A3E0FAA30D
:10049300E0FBA37808E0F608A3DFFAE0FCA3E0FDA5
:1004A300A3E0FEA3E0FFA3E0C0E0A3E0C0E0A3E07D
:1004B300F5D0A3E0F520A3E0A3F5F010AF08858302
:1004C300198582188008858319858218D2AFD08256
:1004D300D083D0E0F8D0E032120B25B90003020537
:1004E3001AE490040178B579128002F0A3D8FCD9FC
:1004F300FA7AB57B1590008678BD79018015E4936F
:10050300A3AD82AE838A828B83F0A3AA82AB838D51
:10051300828E83D8E9D9E77582637583E9740412FF
:10052300082F7582ED758321740012082F75F01062
:100533008E1A8F1B85821F85831E851882851983DA
:10054300E0CEA3E0CF851F82851E83EBC9EAC8ED09
:10055300CBECCAC3E833C8E933C9EA33CAEB33CBBC
:10056300C3EA9EF51DEB9FF51CB35004AB1CAA1DFB
:10057300EC33CCED33CDD5F0DAAE1AAF1B22D083FA
:10058300D082ECC0E0EDC0E0E493A3FCE493A3FDD0
:10059300ED4C600D12069DEC24FFFCED34FFFD8055
:1005A300EFE493A3FCE493A3FDED4C600D12073A33
:1005B300EC24FFFCED34FFFD80EFD0E0FDD0E0FC48
:1005C300E493A3C0E0E493C0E022D083D082E9C0E7
:1005D300E0E493A3C386F0C5F095F0F908E493A390
:1005E30086F0C5F095F0700BE493A3C3994005E939
:1005F300048002A3E475F002A42582F582E5F035B8
:1006030083F583D0E0F9E493A3C0E0E493C0E02250
:10061300851983851882E0A3FEE0A3F5207808E01E
:10062300A3F608DFFAE0A3FFE0A3C0E0E0A3C0E085
:10063300E0A3C0E0E0A3C0E0E0A3C0E010AF088502
:1006430082188583198008858218858319D2AFD0D3
:1006530083D082020835C0E074F2120424A2AFE40E
:1006630033FED2AFE589A2E15003120D2375890051
:10067300C2C5EEA2E092AF7F01020483C0E074F230
:10068300120424A2AFE433FED2AFE58BA2E0500301
:10069300120D23758B00C2E880D8C0E0C3E49396A3
:1006A300087401939618400FE49366700808740168
:1006B30093661870007019A3A3C3E493960874019A
:1006C300939618A3A3400DD0E0D0E0D0E00205BD7F
:1006D300A3A3A3A3A3A3D0E0227404800474028081
:1006E30000CCC0E0EDC0E0E518C39CCCAD195001CF
:1006F3001D10AF068C188D1980068C188D19D2AF7A
:100703001207B1D0E0FDD0E0FC2274028000CCC01F
:10071300E0EDC0E0E518C39CCCAD1950011D10AF4E
:10072300068C188D1980068C188D19D2AF12078F7D
:10073300D0E0FDD0E0FC22C0E0C0F088F0E4936696
:1007430070080874019366187000A8F0A3A3700BD7
:10075300D0F0D0E0D0E0D0E00205BDA3A3D0F0D02C
:10076300E022D083D082CCC0E0E493A360061207DA
:10077300F11470FAE493A360061209311470FAD0ED
:10078300E0FCE493A3C0E0E493C0E022CAC0E0E449
:1007930093A3C582CCC582C583CDC583F0A3C5828F
:1007A300CCC582C583CDC583DAE5D0E0CA22CAC0F1
:1007B300E0E0A3C582CCC582C583CDC583F0A3C5C4
:1007C30082CCC582C583CDC583DAE6D0E0CA227068
:1007D30009080808226016181818C6C333C608C6C5
:1007E30033C608C633C608C633C6D5E0EA22C0E01E
:1007F300E493A3D39C5010E493A3C39C400AD0E09A
:10080300D0E0D0E0020782A3A3A3D0E022C008C3B4
:10081300E096F50808A3E096420808A3E09642088C
:1008230008A3E09645087001D3D00822C09FF59F26
:10083300E473D09F22D083D082C09FE493C0E0743E
:100843000193C0E0740293F59F227404800A740339
:100853008006740280027401C0E0F404120868D0B8
:10086300E0120AE8222518F58210AF08F518400CAB
:1008730015198008F51840021519D2AF851983227E
:1008830000C0D0251810AF08F518500C05198008C2
:10089300F51850020519D2AFD0D022C0E0C0D0E87D
:1008A300C0E0A8A8D2AFC2C7E8A2E792AFD0E0F8F1
:1008B300D0D0D0E032BB0102E722C082C08389825C
:1008C3008A83BB0003E08002E493D083D08222605A
:1008D30016080808C6C313C618C613C618C613C617
:1008E30018C613C6D5E0EA222518F8E43519F9220B
:1008F3002518FAE43519FB222518FCE43519FD22E5
:10090300C3E0C696F608A3E0C696F608A3E0C6962B
:10091300F608A3E0C696F622251810AF08F518408E
:100923000C15198008F51840021519D2AF22C0E042
:10093300E493A36C7009D0E0D0E0D0E0020782A377
:10094300A3D0E022E066701008A3E066700A08A353
:10095300E066700408A3E06622C3E09608A3E0966D
:1009630008A3E09608A3E096A2D265D03322E766F7
:1009730070100809E766700A0809E7667004080939
:10098300E76622C3E096F008A3E096F008A3E0969A
:10099300F008A3E096F022C3E697F60809E697F677
:1009A3000809E697F60809E697F622C3E493960842
:1009B30074019396087402939608740393962270B5
:1009C3000422600D18C6C333C608C633C6D5E0F487
:1009D3001822E647F60809E647F60809E647F60847
:1009E30009E647F622E026F008A3E036F008A3E084
:1009F30036F008A3E036F022E627F60809E637F6D4
:100A03000809E637F60809E637F622E657F6080935
:100A1300E657F60809E657F60809E657F622E056C0
:100A2300F008A3E056F008A3E056F008A3E056F060
:100A330022E026F608A3E036F608A3E036F608A37C
:100A4300E036F622E056F608A3E056F608A3E05691
:100A5300F608A3E056F622E4C396F608E496F608F1
:100A6300E496F608E496F622600D08C6A2E713C6DC
:100A730018C613C6D5E0F322C6F4C608C6F4C608E2
:100A8300C6F4C608C6F4C622C3E7960809E7960863
:100A930009E7960809E79622C3E09608A3E09608BB
:100AA300A3E09608A3E0962275D00075813F7518E0
:100AB30001751904000204DBE6F008A3E6F008A3BD
:100AC300E6F008A3E6F022600C08C6C313C618C6F6
:100AD30013C6D5E0F422E0F608A3E0F608A3E0F697
:100AE30008A3E0F622CAC0E0E6F0A308DAFAD0E0F1
:100AF300FA22E8F0A3E9F0A3EAF0A3EBF022E0F88E
:100B0300A3E0F9A3E0FAA3E0FB22EAF0A3EBF0A34E
:100B1300ECF0A3EDF022E0FAA3E0FBA3E0FCA3E0FA
:100B2300FD22E5C754F84401F5C77901222518F5DC
:100B330082E43519F58322C2AF75D69F02000022E5
:100B430012083886B904120838FFBA041208385656
:100B5300BB041208388ABB0412083825DD011208C9
:100B63003850DD0112083865DD0112083898DD01BF
:100B7300120838CDDD0112083813DE01120838B12E
:100B8300DE011208385DDF01120838B8E2011208ED
:100B93003837E501120838F3E50112083823E60176
:100BA30012083870E60112083804E701120838AD5C
:100BB300E701120838FEE70112083842E80112087B
:100BC30038E6E80112083853E90112083882E901CE
:100BD30012083895EA01120838B5EA0112083819E3
:100BE300EB01120838F5EB0112083822EE01120866
:100BF30038D0EE0112083868F101120838EDF1011E
:100C030012083864F4011208389EF401120838FA05
:100C1300F5011208380DF6011208384EF6011208D4
:100C230038E6F7011208380080041208387C800483
:100C3300120838AF8004120838DD80041208382205
:100C43008304120838418304120838868304120887
:100C5300381C8404120838688404120838FA84049F
:100C6300120838D3850412083824860412083889F8
:100C73008604120838FC86041208384087041208D8
:100C830038988704120838BA87041208384A880447
:100C9300120838DB880412083827890412083853ED
:100CA30089041208389489041208382C8B0412081A
:100CB30038188C04120838FA8C04120838A9F9047D
:100CC300120838BAF90412083858FA0412083872AC
:100CD300FA04120838FB7F00120838C2FC04120819
:100CE3003821FB0412083831FB0412083846FB0490
:100CF300120838AEFB04120838E9FE011208386DF9
:100D0300FF01120838D5FF0112083871F2041208E6
:100D13003890F204120838FDF20412083842F30442
:100D23001208389BF304120838D5FC04120838D88B
:100D3300FC04120838DBFC04120838DEFC04120839
:100D43003829FC0212083837FC02120838B0FC02BA
:100D530012083885FD0212083857FF021208384876
:100D6300FC04120838EEFF01120838F3FF011208E1
:100D730038FAFF01120838FCFF01120838B2F901F2
:100D8300120838DEF90112083875FC01120838B56B
:100D9300FC01120838F1FC0112083805FD011208A4
:100DA300381EFD011208380FFE01120838C1FE017A
:100DB300120838D5FE01120838DAF304120838FE97
:100DC300F30412083817F40412083855F40412080F
:100DD3003885F404120838B2F40412083818F504FC
:100DE3001208381BF50412083825F50412083832A6
:100DF300F504120838BCE604120838DCE6041208CD
:100E0300381BE70412083839E70412083854E7049A
:100E1300120838BAE704120838C6E7041208382360
:100E2300E80412083832E80412083856E8041208B5
:100E33003817E90412083824E90412083835E9049C
:100E430012083801FC0412083819FC04120838454A
:100E5300FC041208381FFB0312083879FC0312083C
:100E63003887FC031208389AFC03120838AFFC03D6
:100E7300120838C4FC03120838D7FC03120838538D
:100E8300FD03120838B8FD031208384EFE0312089A
:100E93003827FF0312083837FF0312083846FF03C9
:100EA30012083888FA04120838ACFA04120838D445
:100EB300FA04120838FCFA04120838FDEB0412088D
:100EC3003824EC0412083842EC04120838B1EC045C
:100ED300120838E9E30412083802E4041208380E51
:100EE300E40412083822E40412083840E404120827
:100EF300384AE40412083854E40412083867E40456
:100F0300120838EDE40412083862E5041208389137
:100F1300E504120838DFE5041208382EE604120847
:100F23003849E60412083853E60412083864E60424
:100F3300120838A7E6041208387FFF03120838D0D6
:100F4300BB04120838FCBB0412083819BC0412088D
:100F5300382CBC0412083847BC04120838A1BC045E
:100F6300120838CFBC04120838DFC0041208383D19
:100F7300C2041208386FC204120838D2C20412081D
:100F8300383EC40412083866C4041208387BC4040B
:100F93001208388BC404120838CBC4041208380D65
:100FA300C5041208381DC5041208387CF60412085B
:100FB3003896F604120838BEF604120838D7F60439
:100FC300120838FBF60412083819F70412083830EF
:100FD300F7041208385EF70412083879F704120888
:100FE30038BCFF021208386EDD041208387EDD04B7
:100FF30012083883DE04120838B5DE04120838E517
:10100300DE0412083808DF041208381FDF04120850
:101013003859DF04120838BEDF0412083800E00430
:1010230012083847E00412083874E0041208389FA5
:10103300E00412083890F004120838A2F0041208F1
:1010430038B6F10412083843F204120838ACF80435
:10105300120838E2F804120838FAF8041208383C87
:10106300F9041208384CF9041208385BF904120821
:10107300389FF904120838F4CD041208382ECE0430
:1010830012083897CE04120838B6CE04120838581E
:10109300CF0412083861CF04120838B2CF04120803
:1010A30038DBCF04120838E8CF0412083859D004CB
:1010B300120838E7D00412083835D1041208386B07
:1010C300D104120838CCD104120838F5D10412081F
:1010D300386CD204120838C8D20412083805D30475
:1010E3001208383CD3041208384ED304120838606F
:1010F300D3041208387FD30412083888D3041208A3
:101103003843D4041208388FD404120838CDD404D9
:101113001208383CF50412083852EE0412083888D5
:10112300EE04120838D0EE0412083829F00412082D
:10113300381FD60312083850D7031208388CD70348
:1011430012083846D90312083870D903120838E94F
:10115300DB0312083829DC03120838BDDD0312084B
:10116300385CDE03120838B4DE0312083847DF03A5
:1011730012083881DF03120838C3DF031208383638
:10118300E103120838B6E203120838F3E403120845
:101193003821E5031208384DE50312083856E503F4
:1011A300120838B3E50312083843E6031208387F00
:1011B300E90312083801EA03120838ACFC041208E8
:1011C3003869D9041208387FD90412083823DA049D
:1011D30012083862DA041208387FDA04120838B0C9
:1011E300DA04120838FDDA0412083831DB04120875
:1011F300386CDB0412083861DD04120838B1FB04D3
:10120300120838ACF7041208380BF80412083849EE
:10121300F8041208388AF804120838008002120809
:10122300380C80021208386E800212083878800267
:101233001208380581021208384181021208382D3C
:1012430082021208388C82021208381583021208AF
:10125300389283021208380D8402120838C48502BA
:101263001208388A870212083890880212083897C1
:101273008902120838F88B021208386D8D021208A1
:10128300380A8E02120838568F0212083856900216
:10129300120838C891021208385F960212083849BA
:1012A3009702120838CB9702120838F097021208F7
:1012B30038159802120838B09802120838CE9802EE
:1012C300120838EC98021208385D99021208387C2B
:1012D3009902120838A99902120838AA9A02120828
:1012E30038939B021208382A9D021208384B9D023C
:1012F300120838F19D02120838389E02120838AAE3
:101303009E021208382D9F02120838929F0212087B
:1013130038EF9F0212083892A00212083807A10280
:1013230012083842A102120838A4A1021208380791
:10133300A30212083897A4021208383EA502120825
:101343003896A702120838E0A702120838F5A70258
:1013530012083846A802120838B7A802120838E75C
:10136300A80212083858A902120838F7A90212086D
:10137300380CAC02120838A2AE02120838AFAF0222
:10138300120838B0B3021208387AB4021208389738
:10139300B5021208384BB702120838D48D0412086C
:1013A300388C8E04120838058F0412083801900413
:1013B3001208380B9104120838959104120838C1A9
:1013C3009204120838E29204120838869304120831
:1013D30038A99404120838579504120838D398048E
:1013E3001208384DC504120838C6C604120838C49A
:1013F300C804120838CBC904120838F7C904120804
:101403003870CA0412083879CA041208387CCA042E
:1014130012083816CB041208383BCB04120838B72D
:10142300CB04120838CAFF03120838F4C0031208A9
:101433003823C1031208389BC103120838AAC20318
:1014430012083806C3031208387DC40312083899FA
:10145300C403120838EBC40312083829C503120861
:10146300383CC50312083894C50312083856C6031E
:10147300120838C4C603120838FBC60312083833EF
:10148300C703120838BBC8031208389AC9031208E5
:1014930038E8CA03120838CBCB0312083857CC03F9
:1014A30012083897CC03120838B6CC031208380157
:1014B300CD0312083821CD03120838BACD03120820
:1014C3003849CE03120838A4CE03120838E4CE03F9
:1014D30012083861D10312083885D203120838CBB9
:1014E300D203120838C0D303120838E8D303120812
:1014F30038EBD303120838F5D30312083811D40399
:1015030012083899D403120838D2D403120838FECB
:10151300D40312083825D50312083849D503120815
:1015230038BAD503120838CDD50312083800D603CC
:10153300120838797F00120838857F00120838C3F3
:101543007F00120838F87F0012083899E502120864
:1015530038BCE50212083816E7021208385FE702C2
:10156300120838BDE70212083823E80212083826A9
:10157300E80212083877E802120838F1E802120884
:101583003875E90212083878E90212083800EA02CD
:1015930012083843EA0212083896EE021208384756
:1015A300F0021208388DF00212083805F40212080E
:1015B3003833F502120838AFF60212083835F7024D
:1015C30012083826F802120838A8FA021208385E00
:1015D300EA03120838FEEA031208385A7C0012089C
:1015E3003885EB031208380FEC0312083868EC0354
:1015F300120838B3EC031208381AED031208389BAB
:10160300EE03120838B3EF0312083836F00312085A
:10161300383EF203120838E2F20312083881F3036A
:101623001208386FF4031208384DF603120838EE27
:10163300F70312083881F8031208388DF9031208EA
:1016430038D8B8041208381CA60312083864A60355
:10165300120838A2A603120838FDA6031208385A46
:10166300A70312083895A70312083817A80312080E
:101673003871A803120838E5A9031208386FAA03C2
:10168300120838C2AA03120838DCAA03120838F673
:10169300AA0312083850AB03120838D6AD03120858
:1016A30038F5AD03120838E0AE031208381AB00358
:1016B30012083899B003120838D0B0031208383F23
:1016C300B10312083800B203120838D9B303120861
:1016D30038DAB4031208384BB6031208384BB80390
:1016E300120838C6BA03120838A0BC0312083861BE
:1016F300BD03120838D9BD03120838F0BD03120820
:1017030038EABE03120838E2BF0312083851C00397
:10171300120838F7E0041208384EE2041208380DB4
:10172300E30412083875E304120838787C001208C1
:1017330038937C00120838D77C00120838FD7C00EF
:10174300120838247D001208383C7D00120838DE68
:101753007D00120838F37D00120838157F00120847
:10176300381E7F00120838277F00120838307F00A8
:10177300120838F9D404120838FBD80412083800C8
:10178300D90412083802D9041208388AEA04120864
:101793003880FC04120838008003120838338003B1
:1017A3001208389F80031208383A8103120838D789
:1017B30081031208381C82031208383E8203120880
:1017C300385782031208387D82031208389F820338
:1017D300120838DD820312083821830312083843C4
:1017E3008303120838A583031208386C8403120894
:1017F3003823850312083895850312083860860359
:10180300120838B3860312083819870312083853AD
:101813008703120838A587031208381388031208B0
:10182300387E880312083881880312083802890336
:10183300120838998903120838198A0312083838AC
:101843008A031208389C8B03120838A98B031208E9
:1018530038B58C03120838C28C03120838CB8C03BA
:10186300120838A38E03120838BD8F0312083836C6
:101873009003120838A89003120838CA900312087C
:10188300385E91031208383293031208380997031C
:101893001208381D97031208382D9703120838379A
:1018A3009703120838409703120838499703120820
:1018B30038539703120838809703120838A99703FF
:1018C300120838B49703120838D89703120838FC63
:1018D3009703120838669803120838AC9803120865
:1018E30038C998031208384699031208387D9903BA
:1018F300120838BC9903120838099A031208388F62
:101903009A031208385D9C03120838E09C031208FE
:1019130038C49D031208382BA00312083884A0038F
:10192300120838CEA00312083829A2031208385E21
:10193300A203120838B0A20312083865A3031208E1
:101943003814A40312083851A403120838E6A40378
:1019530012083852A5031208382883011208385A8E
:1019630083011208388883011208385E8501120842
:10197300383E8601120838968601120838D187014D
:101983001208381D8801120838468B0112083839AD
:101993008E01120838898F011208381F900112082E
:1019A300382B90011208385D9001120838E091013C
:1019B300120838EE92011208381893011208387F82
:1019C3009301120838D893011208383E9401120883
:1019D30038559601120838E49701120838AE980179
:1019E300120838F49901120838449C01120838147B
:1019F3009F01120838219F01120838A89F0112087D
:101A0300383CA0011208387FA001120838C8A00191
:101A13001208381CA10112083895A10112083804D4
:101A2300A20112083821A20112083851A20112089A
:101A33003886A20112083856A301120838FFA30101
:101A430012083885A601120838A5A7011208389094
:101A5300A80112083812A90112083849AD01120869
:101A63003886AD01120838DEAD0112083811AE0117
:101A73001208387BAE01120838B1AE011208383CA7
:101A8300AF0112083894AF011208386BB001120885
:101A93003824B101120838BFB101120838C7B401A4
:101AA300120838E3B50112083886B9011208387AEA
:101AB300BA011208387DBA01120838ACBA0112080B
:101AC30038B2BC011208388BBD01120838CEBD01F3
:101AD30012083824BF0112083863BF01120838F511
:101AE300BF0112083829C001120838EEC0011208DC
:101AF3003806C30112083877C301120838B7C30187
:101B030012083845C4011208386DC5011208382F70
:101B1300C60112083836C8011208384EC801120827
:101B23003862C8011208389AC801120838C8C801B7
:101B330012083847CA011208386CCB01120838D092
:101B4300CB0112083882CC01120838B2CC0112083A
:101B53003879CD0112083811CE0112083837D00177
:101B63001208386CD001120838CFD001120838FEA1
:101B7300D101120838A6D201120838D7D2011208AF
:101B830038EFD2011208387ED30112083832D60159
:101B93001208380AD80112083826D8011208384228
:101BA300D80112083810D90112083803DD011208D0
:101BB30038DF2700120838112800120838002C00DB
:101BC3001208384C2C00120838922C0012083834B2
:101BD3002D00120838902D00120838D52D00120858
:101BE300381C2F001208383030001208381F340018
:101BF300120838A33400120838B035001208380C24
:101C03003600120838FC3700120838713800120801
:101C1300387B3800120838883800120838B3380087
:101C23001208389A3900120838443A00120838C2A8
:101C33003A00120838E23A001208380B3B00120847
:101C4300382D3B001208388D3D00120838533E00F2
:101C5300120838983E00120838153F00120838C69B
:101C63003F00120838F83F001208383E40001208BF
:101C7300387A4000120838CA40001208381E410062
:101C8300120838744100120838C041001208382D78
:101C93004200120838A842001208387344001208A0
:101CA30038734500120838984600120838D749009F
:101CB300120838EA4C00120838A74D00120838EB16
:101CC3004D001208389B4F00120838AF4F0012081E
:101CD30038B94F00120838C34F00120838CF4F00ED
:101CE300120838EB4F00120838965000120838D506
:101CF3005000120838DF5000120838E9500012086B
:101D030038595100120838A45100120838B952004A
:101D13001208381553001208389653001208385524
:101D230054001208385E5500120838925600120803
:101D330038805700120838985700120838F35700B4
:101D43001208381158001208385958001208388000
:101D530058001208381B5900120838E159001208BC
:101D630038735A00120838ED5A00120838075C001D
:101D7300120838B45C00120838DC5D001208382CF5
:101D83005E00120838905E00120838F25E001208F6
:101D930038205F00120838445F00120838795F006A
:101DA300120838AA5F00120838DD5F00120838FDF8
:101DB3005F00120838656000120838596100120884
:101DC30038B46100120838DD61001208386562001A
:101DD300120838E86200120838136300120838F852
:101DE3006300120838FD9A04120838359B04120860
:101DF30038569B04120838989B04120838FA9B043F
:101E0300120838049C04120838149C041208384F32
:101E13009C041208382FA0041208381CA2041208CC
:101E23003802A40412083899A4041208383BA50404
:101E330012083888BA0212083806BB021208386240
:101E4300BB02120838ADBB02120838C8BB02120825
:101E530038F3BB0212083810BC021208381CBC024B
:101E6300120838B3BD02120838CCBD02120838512B
:101E7300BE0212083864BE0212083883BE0212087A
:101E83003827BF02120838A8C0021208385BC20202
:101E9300120838F1C202120838F4C2021208386478
:101EA300C30212083882C30212083819C402120886
:101EB3003861C40212083864C4021208382AC50201
:101EC30012083897C502120838BDC50212083848EF
:101ED300C60212083866C602120838ACC6021208D7
:101EE3003860C702120838AAC702120838D9C702D5
:101EF30012083836C8021208386BC802120838971D
:101F0300C802120838A5C802120838F2C80212081B
:101F13003862C902120838ABC902120838F7C9027D
:101F230012083823CA021208382ECA021208384C83
:101F3300CA0212083837CB0212083841CB02120802
:101F4300387CCB021208388CCB0212083895CB02AE
:101F5300120838E9CB02120838FDCB021208382CDC
:101F6300CD0212083841CD02120838CFCD02120833
:101F73003814CE02120838A0CE02120838ABCE02B3
:101F8300120838EDCF0212083808D002120838546C
:101F9300D002120838C3D002120838FCD00212084B
:101FA3003816D10212083858D10212083828D40240
:101FB300120838D5D40212083842D50212083882E2
:101FC300D7021208389AD7021208389DD70212088E
:101FD30038A9D702120838BDD702120838C5D7026C
:101FE300120838F8D702120838FAD80212083881D2
:101FF300D902120838F1D90212083873DA0212082A
:102003003834DB0212083853DB02120838F4DB02DF
:1020130012083851DC0212083854DC02120838C89E
:10202300DC0212083817DE021208381DDF0212081C
:1020330038A8DF02120838C3E0021208388BE10225
:10204300120838BCE102120838DFE102120838E84E
:10205300E10212083817E202120838A7E202120856
:10206300385DE302120838D2E30212083879E40239
:10207300120838EEE40212083825E5021208386324
:10208300E502120838ED7B001208381E7A001208A8
:1020930038DC7900120838EA7800120838BE780074
:1020A300120838757800120838B277001208389C85
:1020B30074001208385F72001208382C720012087C
:1020C30038D3710012083866710012083825710080
:1020D3001208385E7000120838F86F00120838973B
:1020E3006F00120838376F001208380E6E0012089E
:1020F30038A26D00120838FA6C00120838F56C002B
:10210300120838E96C001208381C6900120838F606
:1021130068001208383BB804120838D0B704120814
:1021230038BCB7041208380CB70412083812B604C6
:1021330012083833B50412083889B20412083894E7
:10214300680012083835680012083822680012083F
:10215300381768001208389BB104120838E6670084
:10216300120838D365001208384665001208380291
:10217300650012083830B104120838D6640012081A
:1021830038B9A503120838DBB00412083886B00446
:1021930012083859B00412083826B004120838FE61
:1021A300AF041208389FAF041208387FAF04120837
:1021B300384AAF041208380EAC04120838E3A904F5
:1021C300120838D3A70412083850A7041208380499
:1021D300A704120838B8A604120838647C00120851
:1021E3003812A6041208386AEB0300000080FBE4EF
:1021F300738F000100551687000100531635000444
:10220300001C1625000200201626000200221627B5
:102213000002002416280001002E16290001002FB9
:102223001684000400A11386000100C3152A0001CF
:102233000030162B00010031162C00010035162D3D
:10224300000800AD132E00010036162F00010037E1
:102253001630000100381631000100391632000132
:1022630000B51333000100B613340001003A1636EB
:10227300000100B713380001003B16390001003498
:102283001683000200511663000100C313640001AA
:102293000032166500010033166D000100C413718E
:1022A300000800A513660001005016430001004119
:1022B300164400020042164500010044164600027F
:1022C30000451647000800BB134800010047164BA2
:1022D3000001004816040001005416A10001005833
:1022E300163700010057168800010056163C0001FE
:1022F30000B8133D0001003C16490002004916676F
:10230300000100C5134D0002004B164E0001004DA5
:10231300164F0002004E163E000100401651000108
:1023230000B913520001003E16530001003F16543A
:10233300000100BA1300000000000000013636015E
:102343000100010201000103010001040106060569
:10235300020000070100340801000F090401010D08
:102363000100FF0E08000017020000190100FF1A08
:102373000100011B0100FE1C0100081D0200001FDB
:1023830001000120010001210200002301000F24AC
:102393000200002601000127010008280200FF2A8D
:1023A3000100072B0102402C0100002D0100012E2A
:1023B3000100012F0100FF30010B1D310800003A1D
:1023C3000100083B01000F3C0100013D0100FF3EFD
:1023D30004000042040000460400004A0400004ECA
:1023E30004000052040000560400005A04000000D8
:1023F3000000002001268300000300200127830042
:10240300000400420155810000050042014481009F
:1024130000060042013381000007003001248300DD
:1024230000100042038512000011003003961200D1
:10243300001200100397120000FDFF210120830307
:10244300000000210398120300FDFF2141208302B5
:1024530004000029059A120204010029011E8302C7
:1024630004020029011C830204FDFF2101208301D2
:1024730003710301030103010301030103220302A7
:102483000301031003000300030003000300030020
:1024930003000342030003240306030003000304B1
:1024A3000312032503230325032303040304030067
:1024B3000300030003440300030003230300036535
:1024C3000321003503810300030503000300030018
:1024D3000300032503230303027102300160021189
:1024E3000270020102020202028002100261023A39
:1024F300004100630273027202620243020002138C
:10250300023800000200020402120200020002006C
:1025130002000204020402370037003C02440200B6
:102523000239000002000265020002350281020046
:10253300020502820283020002010171010101010D
:10254300011101010131010101010180011001614A
:10255300013B001400630173017201620143010036
:1025630001130106013D01350004011201000100C0
:10257300010001000104010401330133013C014462
:1025830001320136000001000165010001350081BF
:102593000100010501820183010001030071003084
:1025A300016000110070003102200350048000100C
:1025B30000610000001400630073007200620043B6
:1025C30000000013000600000000000400120000D9
:1025D3000000000000000004000400370037003C46
:1025E3000244000000000000000000650000003508
:1025F3000081000000050000008300000036000198
:1026030000060000000F00000000000000000000B2
:1026130000000003FFFF00000403FFFF0000FFFFB3
:102623000FF4010005C4040320000100000B0000A7
:1026330000000000000003010F0000000000000084
:102643000000000000000000000000000000000087
:10265300000000000000000000000023136B13299A
:102663001339122F1371132F137D13351339122FAF
:102673001371133B13391200000000411339120088
:1026830000000000000000471339124D1383135359
:102693001339120000000000000000000000005980
:1026A3001395135F133912591395135F1339124D91
:1026B300138313651339120000F9150100F915028C
:1026C300006F15028069150300751504007B15045E
:1026D30080811505008715060093153100A5153374
:1026E30000AB153400B115FFFF000007ECFDFDFD45
:1026F300ECDCDCCCBCACAC9C9C8C7C7C6C6C5C5C07
:102703005C4C4C3C3C2C2C1C1C03EAF5E5D5D5C594
:10271300B5A59595858575756565555545453535D6
:1027230025251515050A291C02F31B05FF1B07F9AF
:102733001B0CDB1B0DE71BFF000000160F00000B3B
:10274300150B020002220F3300000E0F5A69674275
:102753006565416C6C69616E63653039D0D1D2D3E4
:10276300D4D5D6D7D8D9DADBDCDDDEDF30301618A6
:102773001920231A1C1E3000034D4C4651181A25EC
:102783000502000119161816161823030030301716
:10279300181921301B1D1F30003C40423A3F3F397E
:1027A3002F47300C0E020B040B0A0708000F02041C
:1027B30002010101010902E803000000BE040A014D
:1027C300000E000300E803FF04091003101E030AB0
:1027D3000C04040828020C0508151E0474F71203E0
:1027E300B8E990149AF090144FE4F0121035901455
:1027F300B2E4F0A3F090149BF0A3F0121D79121031
:102803003B9013D3E4F0A3F012175B02414574F03D
:102813001203B874D312091B125BA1548060669033
:10282300149AE0F91210AD8A088B09AF09EA4F60D8
:102833004C7C0080010CEC75F003A4F8A9F074281B
:1028430028F582742739F583E493F46029E493F837
:102853008A828B83E06870DDEC75F003A4F8742939
:1028630028F582742739F583E493C0E0740193F566
:1028730083D0821221F2AA08EFFB12109B1262D3BB
:102883006480022BE0851882851983A3E0542060BD
:102893001F121C8F8A088B09AF09EA4F600A121BAB
:1028A300E7AA08EFFB12109B1262D36420022BE00D
:1028B300851882851983E0A2E05042901454E064A5
:1028C3000F702E9007CC1262DE9007CCC3E094E920
:1028D300A3E09403400A7A007B809012C51242273A
:1028E3007900121BBDE9600990161C120B19121B0B
:1028F300D5851882851983E06401022BC5542070A5
:1029030003022BCA7A207B0090149AE0F91211EB90
:10291300EA4B4C4D701A9014AE120B01E8494A4B26
:10292300700E750801750900750A00750B00806D3E
:10293300750C00750D00750E00750F001211F78AE6
:10294300088B098C0A8D0B9014AE120B01E8494ACF
:102953004B60319014AE7808120810400E750CFFCE
:10296300750DFF750EFF750F7F801985080C85099E
:102973000D8C0E8D0F9014AE780C12090374017830
:102983000C1208D2850C08850D09850E0A850F0BDC
:10299300E5084509450A450B7003022B247C0079A1
:1029A300047A007B00121C658A0C8B0DAE0CAF0DF4
:1029B300022A687402120B3074FFF07403120B3096
:1029C30074FFF07404120B3074FF12429A125A5BB4
:1029D30074071208FB125D11E96401706A122BEC93
:1029E3004480F8A3E0F97428120B30E8F0A3E9124D
:1029F3005FA5E0C0E0742A120B30D0E01242875486
:102A03000860167428120B30A3E04401122BF9C09E
:102A1300E0742C120B30D0E0F0125BE46011E82478
:102A23000B1233DFF87416120B30E8F0A3E4F090C6
:102A330082F41206DC74061208FB740B1208F312FC
:102A4300188774041208838E828F83A3A3A3A3A37E
:102A5300A3A3A3A37406122BF9F9121C477405123E
:102A63000B30125D68EE4F7003022B247C00790457
:102A7300EEFAEFFB121C657405120B30EAF0A3EBC0
:102A8300123FB1E0F50CA3E0F50DE4F50EF50F7878
:102A930008790C120A8B4023EE2404F8E43FF985ED
:102AA300080C85090D8882F583C3E0950CF0A3E03B
:102AB300950D1263C8E84970A4800C8E828F83A39E
:102AC300A3A3A3E4F0A3F08E828F83A3A3A3A3A362
:102AD300A3A3A3A3A3E064018E828F83A3A3A3A3D1
:102AE300A3A37020E0540460030229B68E828F836F
:102AF300A3A3A3A3A3A3A3A3A37406F07AB7122D3E
:102B03001F022A60A3A3A3A3E060030229B68E8257
:102B13008F83A3A3A3A3A3A3A3A3A37401F0022A54
:102B230060121C357C0079017A007B00121C65EA77
:102B33004B60031242207C0079047A007B00121C54
:102B430065EA4B701380448A828B83A3A3A3A312E9
:102B53005D80EE98EF99400B8A828B83A3A3A3A396
:102B6300125D687C007904121C658B0BA90BEA4982
:102B730070D5C3E5089EE5099F500DC3EE9508FE89
:102B8300EF9509FFEE4F700D1242209014AE122BF9
:102B9300F2A3F08024EE2EFEEF338E08F509E4F560
:102BA3000AF50B780812084D7A20122DC8120883F3
:102BB3001211F79014AE120B0D851882851983E05C
:102BC3006420FAA3E08016A3E0540460131254387F
:102BD30012214579011235A61262D36404FB8004E5
:102BE3007A007B00742D025BC0EE125BCEE022E420
:102BF300F0A3F0A3F02212428CA3A3E022C082C070
:102C03008374EA12091B7C167D007900AA18AB199C
:102C13001210837408120B307402F090144312568E
:102C230074122C407409120B3012568C7413120B4D
:102C330030E412530B12174F7416024556E8F0A3F3
:102C4300E9F090144D125D502274F71203B874DA50
:102C530012091BEAFEEBFFEA4F602DAC18AD191207
:102C63001CAD7406120B30E0601E7417120B30E0BB
:102C7300FD7401120B30E0FCEEFAEFFB7900121B3E
:102C830093E9600479A480027900742602414274B6
:102C9300F71203B8EAFEEBFF8A82F583A3A3A3A38B
:102CA300A3A3E0544060178A828B83125B81124492
:102CB3006560067AFF7BFF8015125B7D80039014AD
:102CC30043125A5B74FE6A700374FF6B6041125BBC
:102CD3007D125BA7121D43E98E828F83600B12570F
:102CE3006A126393E4F0A38003126382F07CC37DD2
:102CF3001B8E828F83123ADBE9F5087015EE4F6065
:102D0300097901EEFAEFFB121C41A908024145754E
:102D130008CDAA08122D1FE960E380EE8E828F830F
:102D230012576E240CF582E438F583E0F9121BCFB9
:102D33002274F61203B8E9FEEAFF7A0F7B00121041
:102D430095EA4B601A8A828B83740CF0EEA3A3F08E
:102D5300EF8A828B83123F001253697900802BEE36
:102D6300F9121C6B8B09A909EA49601C8A828B83BF
:102D7300A3A3A3A3A3A3A3A3A37406123F09E0F9E8
:102D8300121929EEF9121C47791002515474F412E6
:102D930003B88A088B098C0A8D0B901454E0640FD6
:102DA300701EEA4B4C4D601890144FE064086005A8
:102DB300E06404700B780812084D122DC6120883C4
:102DC30002302B7A017B0090149AE0F91211D97426
:102DD300042274F41203B874FC12091BEAFEEBFF1D
:102DE3008A82F583A3A3E0F9121C6B8A088B09EA94
:102DF3004B7003022F0E8E828F83A3A882A983E0D8
:102E0300C0E0EA12535FD0E0123D6F64F160288E98
:102E1300828F83A3E064CD601E8E828F83A3E064E0
:102E23001A60148E828F83A3E064E9600A8E828F16
:102E330083A3E064E170337900121C41E9602BE560
:102E4300082404F50AE43509F50B8508828509830E
:102E5300A3A3A3A3A3A3123E45123D4D121047857E
:102E63000A82850B83125BA780708E828F83A3E017
:102E7300C0E07402120B30D0E01245641246871290
:102E830037F5C0E07403120B30D0E0F0E5081260B0
:102E93005012349EE0AA18AB1970051218818003F2
:102EA300121D2B7402120B30E064E9702D85088229
:102EB300850983123604750A01780A120859750ABE
:102EC300E9780A120859123D211237C2FCA3E0FD2A
:102ED3008A828B831237EC120883850882850983E3
:102EE300A3A3A3A3A3A3A3A3A3E0640270128508CF
:102EF30082850983A3A3A3A3A3A3A3A3A37406F017
:102F03008E828F83A3A3E0F9121C47121C359016FF
:102F130022123410740402302874F41203B8EAFE47
:102F2300EBFF7508008A82F583A3A3A3A3A3E06044
:102F330038750808125A4E79FF121A01EA4B6010CD
:102F430075082C8E828F83A3A3A3A3A3E0D2E0F002
:102F53008E828F83A3A3A3A3A3E05403640160031E
:102F6300023017430811023017EA241812494D6042
:102F730036EA241A12494D6003F47013125D30705F
:102F830003A3E0696003023017750822023017EAD1
:102F9300241B12301B241A12494DFAEE241912492C
:102FA3004DF9121917806D8A828B83A3A3A3A3A360
:102FB300A3A3A3A31233FB70037508018E828F832F
:102FC300125D347003A3E0697006E508D2E1F508E9
:102FD300E50860158E828F83A3A3E07006E508D20F
:102FE300E58004E508D2E6F508124458640170064A
:102FF300E508D2E0F5088E828F83A3A3E06015EE87
:10300300241D124C6CF9121D31E964016006E508B8
:10301300C2E0F508A9088010F582E43FF583126346
:10302300EBEA2274091208837F0402061374F01278
:1030330003B874D712091BEAFEEBFF8A82F583A358
:10304300A3A3A3E0600E901620125BEB600690161C
:103053002012341074031208FB8E828F83A3A3A360
:10306300125537125A59121CADE970030231C17857
:10307300017405120B30E0C3940240027800740718
:10308300120B30E0C3940240027800740C120B3030
:10309300E064F87003A3E0F470030231C1740C120E
:1030A3000B30E064F97003A3E0F470030231C174E0
:1030B3000C120B30E064FA7003A3E0F470030231E6
:1030C300C1740C120B30E064FB7003A3E0F47003D3
:1030D3000231C17406120B30E0F990143DE06960CF
:1030E300030231C1E8A2E040030231C17427120B8D
:1030F30030E060030231C1EE2413125D46742212E4
:103103000B30125541241C125D467410120B301201
:10311300568C7409120B30E0601D741A120B30E0E8
:10312300FD7404120B30E0FC8E828F83125A59799E
:1031330001121B93E9703B74031208F3121BE1E9BC
:10314300F50C7409120B30E0702C901437E06026F4
:103153007422596422601F744259644270147420AB
:10316300120B301233F5600E7420120B301233EE53
:1031730060047ACF804AE9A2E6504D7420120B30E6
:10318300124C7224FD600F14600C24FD600824FDB2
:10319300600424FE70287420120B301233E7700E83
:1031A3007420120B30125298A3E0640D601A74035A
:1031B3001208F3121D5BE96401700D0233D77AD351
:1031C3007B001215450233D7EE242DF582E43FF53B
:1031D300831235FB7003A3E069701D75080078083E
:1031E3001208597808120859EE242F12494DF91282
:1031F30034011237EC1208837409120B30E07003A8
:1032030002329F123401125A5B121DA98A0E8B0FD0
:10321300EA4B70030233307404120B30E0F88E82F1
:103223008F83A3A3E028F8A3E03400F9E8240D1268
:1032330033DFF88A828B83A3A3A3E068600EE88A56
:10324300828B83A3A3A3123EF9122BF37904E91211
:103253000B3012496CA3E02AF8A3E034008882F50E
:1032630083A3AA82AB831210898A088B098C0A8DE7
:103273000B850E82850F83A3A3A3A37808120810DE
:1032830040030233D790830C7808120A34850E82E8
:10329300850F83A3A31263F1A312469090144FE00A
:1032A30064046008E0640960030233D7E50CA2E517
:1032B300400302336AEE242F124955F0EE243012F4
:1032C300494DC0E07401120B30D0E0F0EE2431120E
:1032D300494DC0E07402120B30D0E0F07414120BAD
:1032E30030E064017026740E120B30123D48241333
:1032F30012494D687003A3E0697011740C120B300E
:103303001233FB70077414120B30E4F0EE2425F52E
:1033130082E43FF5831206DC74041208FB7407127F
:1033230008F312188774041208830233D790149495
:10333300E06401600302329F7420120B301233F5F4
:103343007009E50CA2E6500302329F7410120B3091
:10335300E0F47003A3E0F4607BEEFCEFFD74031272
:1033630008F3121BED806DA2E650697420120B3036
:1033730012577A7016741A120B30E0640270557487
:10338300031208F37900121D2580497420120B30B3
:103393001233EE7014741A120B30E0640470357437
:1033A300031208F3121D19802B7420120B301233F1
:1033B300E7700C790074031208F3121D678015740B
:1033C30020120B30125298E0640C70087403120838
:1033D300F3121D737429025BC0E82406F582E439F5
:1033E300F583E022125B87E0640322125B87E064CB
:1033F3000722124C76640622124469640222EE24E8
:103403002BF582E43F1263E9EE12443E22E0F50815
:10341300A3E0AA08FBE4FCFD121BD52274F41203FB
:10342300B8EAFEEBFF8C088D099013B5E0600F122C
:103433005D307003A3E069700512190580537900AC
:10344300125A4E1219358A828B83E5824583602C8A
:10345300A3A3A3A3A3A3E054186021E508241C128B
:10346300349B1206E01234971206E0EE241812374A
:10347300D3124F33125D08120883801579008E82B0
:103483008F83A3A3A3125760124F33125A5B1219EF
:103493000B02302BE5082413F582E43509F583226A
:1034A30074F71203B874F712091BEAFEEBFF9014CA
:1034B3004FE06403600DE064016008E064096003A9
:1034C3000235A18A828B83A3E0600302356F7C00FF
:1034D3007D007A027B00121041125DAD8A82125D7B
:1034E3004A90144012568C795312173D90144FE0B2
:1034F3006409600990144D125A5B121DA38518824A
:1035030085198374011252B090144F7404F074013E
:103513001208F3794A12173774011208FB7A457BB4
:10352300141212159012C8E0640B70057406F08033
:103533000579001235A69014401257667A037B0072
:103543001210419014431257667A047B0012104103
:1035530090143AE0A2E35004D2F08002C2F0125277
:103563009D90161C120B19121BD5802FFC7D007A1F
:10357300037B101210419012C8E0640B7003740AAD
:10358300F09013B9E4F0FA7B4012508D8E828F8352
:10359300A3E0F91235A690144FE4F0121C17740936
:1035A30002414290144D125A5F12189922C082C0F0
:1035B300839013D3125BEB701790144FE024FB60DE
:1035C30005146007800A9013D9801F9013DB801ABB
:1035D300E84960071233DC6401700C8A828B83A391
:1035E300E0F912188D800E9014C9125BEB6006127D
:1035F30052991221F2024DE4125D5090144DE0688D
:1036030022125D50E8FAE9FB2274F51203B874D86C
:1036130012091B8A088B098A828B83A3A3A3A3A302
:10362300A3A3A3E0C3940F50030237BD8A828B8305
:10363300A3A3A3125D6874151208FB8A828B83A36C
:10364300A3A3A3A3A3A3A31237C2FAA3E0FB121C51
:10365300237415120B30E0702E850882850983A32D
:10366300A3A3A3A3A3A3A3E0C3940B401A8E828FA7
:1036730083A3A3A3A3A3A3A3A3E064027009EE24DB
:103683000B12494DF460030237BD7417120B30E07F
:103693006007640260030237BD90144FE064026068
:1036A3001CE0640660179013D3125BEB70030237C0
:1036B300BD1233DC640160030237BD80259013D350
:1036C300125BEB701D750800780812085978081210
:1036D3000859EE24101237D38E828F831237EC12DF
:1036E30008838E828F831263C0123D78125D4C74FF
:1036F30002120B30125541122BEDC0E07404120B71
:1037030030D0E01237F5F508A3E0F509740F780817
:10371300120ACA7405120B30E508F07419120B3043
:10372300E0C0E07406120B30D0E0F0741B120B30D3
:10373300E0C0E07407120B30D0E0F07416120B30C7
:10374300E0C0E07409120B30D0E0F07417120B30B4
:10375300E0C0E07408120B30D0E0F0EE2410124900
:103763004DC0E0740A120B30D0E0F0741A120B3023
:10377300E0C0E0740B120B30D0E0F07427120B3072
:10378300E0C0E0740C120B30D0E0F0741C120B306C
:10379300A982AA8389088A09750A00780812085140
:1037A3007C087D007410120B30AA82AB831249444B
:1037B300120883AA18AB1912189374280242A0E0C6
:1037C300F98A828B83A3A3A3A3A3A3A3A3A3E02226
:1037D300F582E43FF583E0F98E828F83A3A3A3A34D
:1037E300A3A3A3A3A31263EB22125A5F121CE374D5
:1037F3000222F0EE124F38E02274F21203B874F88A
:1038030012091B8A0A8B0B8C0C8D0D890890825C24
:10381300AC18AD1974081207B1C200AC0AAD0BAAFB
:1038230018AB191259DC7002D20090149B8013ACB0
:103833000AAD0BEE240BFAE43FFB1259DC701B12AA
:10384300442F1240C2601EA20040E48E828F83E0A8
:10385300650C7004A3E0650D70E58E828F83A3A3CE
:10386300E0650870DAEEFAEFFB7408023D85C0826A
:10387300C08390149B024DE1C082C08390149BE4EB
:10388300F0A3023AD774F71203B890149B1262D9CB
:10389300800FEA2414F582E4125D6512112BEEFA0F
:1038A300EFFBEA4B70EC90149BE4F0A3F00241456C
:1038B30074F21203B88A0C8B0DEDFF890B8A828B8D
:1038C30083E08C828D83F0A3A882A9838A828B8371
:1038D30012397C123EF3E0C454F0FA88828983E003
:1038E3004AF0EC2402F8E43FF9850C828B83A3A30E
:1038F30012397C12398FE0333354FC123983E033AD
:10390300333354F8123983A3E0A2E0E4331313FAF8
:1039130088828983E04AF0EC2403FE50010FE50C12
:103923002407F508E4350DF509750A00780812082F
:10393300517C087D00EEFAEF124943120883EE240E
:1039430008FE50010FE50C240FF508E4350DF509C9
:1039530078081208517C037D00EEFAEF12494312F6
:103963000883E50BC3940F400DE50C2412F582E4A4
:10397300350D124F47F0023D88A3E08882898322E8
:10398300FA88828983E04A12398FA322F0850C8258
:103993008B83A3A3A3A32274F21203B8EBFF8C0CB3
:1039A3008D0D8A82F583E08C828D831263AAA3A88E
:1039B30082A983E0124D8C123D6EC4124D86F0EA4B
:1039C3001263B4124D93123D6CA2E2E4338C828DE8
:1039D30083123D6B131313541F124D8CA3123D6BB3
:1039E300A2E7E4338C828D83A3A3A3A3A3A3F0EA6A
:1039F3002403FE50010FF5088F09750A0078081299
:103A030008517C087D00E50C240712493F12088306
:103A1300EE2408FE50010FF5088F097808120851AB
:103A23007C037D00E50C240F12493F1208838E822C
:103A33008F83A3A3A3E0C0E01263D0D0E0F0023DE4
:103A43008874F61203B8EAFEEBFF8A82F583A38536
:103A53008208858309E0F91218B1850882850983F4
:103A6300E064EB601E8E828F83A3E064E160148EBA
:103A7300828F83A3E064F1600A8E828F83A3E06464
:103A83001A70078E828F83A3E4F090161C120B1911
:103A9300121BD575080178081208598E828F83A3EB
:103AA300E0F5087808120859790090144D1257660A
:103AB3009014431237EC120883121C35025154C080
:103AC30082C083E99014AD7003E480027401800422
:103AD300EAF0A3EBF0024DE4125A5F121755227479
:103AE300F61203B89014ADE0701B7C0079017A00E4
:103AF3007B00121C65EA4B600C8A828B83125BEBA2
:103B03006003121BC9025154C082C083123FA240FA
:103B13001079FF121C5FE9F89027D9E493C39850FA
:103B230004790180027900024DE474F21203B88A29
:103B33000A8B0B8909C2008A828B83A3A3A3A3A345
:103B4300A3A3A3E0F9121C6B8A0C8B0DAE0CAF0D73
:103B5300750801EA4F6003023C0E850A82850B83D8
:103B6300125760850A82850B83A3A3A3A3A3A3A3F0
:103B7300123D4D121C538A0C8B0DAE0CAF0DEA4F48
:103B83007003023D1A8A828B83A3A3A3A3E4F0A349
:103B9300F0E50A240CFAE4350BFB8A82F583E0C0D6
:103BA300E0123D21D0E0F0E50A240D123D41240D41
:103BB300125686121D49124447125BA7E50A2411C7
:103BC300123D412411125686E50A2413125D77C073
:103BD300E0124439D0E0F0D200EE2406F8E43FF9D5
:103BE300123D34123D6F54046003023C8090162E44
:103BF300E0F50A750B007407780A1209C28E828FEA
:103C030083A3A3A3A3A3A3123D2BF08E828F83A32D
:103C1300A3A3A3A3A3E0F50AA3E0F50B7407780A13
:103C2300120ACAE50A5407FCE50960618E828F8394
:103C3300A3A3A3A3A3A3A3A3A3740212429A124010
:103C430037600B90143B1249CDA3A312568CEC7032
:103C530003023CF1EE2406F8E43FF9E8FAE9123DE9
:103C630034F0EC24FFF50AE434FFF50B7407780A0B
:103C73001209C28A828983123D2BF080718E828F52
:103C830083A3A3A3A3A3A3E04480023C0DEC70058C
:103C930075080080598E828F83A3A3A3A3A3A3E0F7
:103CA3005420600C12108FEA547F7900245F80192E
:103CB3008E828F83A3A3A3A3A3A3E05410601A123D
:103CC300108FEA540F7900240A5001098E828F83E2
:103CD300A3A3A3A3F0A3E9800D8E828F83A3A3A341
:103CE300A37401F0A3E4123D787404123FB8A20058
:103CF30050288E828F83A3A3A3A3125A65F9EEFAE9
:103D0300EFFB121C59E96012125BE46003123D5A87
:103D1300EEFAEFFB12112B750800A9088067EE2459
:103D23000CF582E43FF58322E0450AF0A3E0450B5E
:103D3300228882F583E0547FF0A3E054FC22F582CD
:103D4300E4350BF583125D50EE22A3E0F9850A8278
:103D5300850B83125A5F22123D611241B722EE2472
:103D63000FF582E43FF58322A3A3A3A3123D73229D
:103D7300125D93E022123D7C22124290A3A3A32260
:103D830074031208837F0602061374F41203B874D3
:103D9300F712091B7E00121C6BEA4B7003023E40B4
:103DA3008A828B83A3A3A3A3A3A3A3A3A3E06406F1
:103DB3006003023E408A828B83A3A3A3A3A3A3A38E
:103DC300E0FF8A828B83126372E0C0E07408120BF7
:103DD30030D0E012416812567912568C121C7DEFD6
:103DE300540860578518828519831257667A007BB9
:103DF30000121C4DEA4B70431263DB7C007D007A9A
:103E0300007B0080228E828F83124C72F47003A396
:103E1300E0F4602790144D123E4512414A601C7C29
:103E2300007D00EEFAEFFB121C4D8A0A8B0BAE0AE3
:103E3300AF0BEE4F70CF790012176D7E01EEF902D2
:103E43003026123E4922E0FCA3E0FD8E828F8322BE
:103E5300C082C0838A828B83E58245837009901474
:103E6300B280068A828B83A3A312406B60208A826E
:103E73008B83A3A3A3A3A3A3A3E0540860E5EC4D02
:103E830060101240717003A3E06D70D780047A0054
:103E93007B00024DE474F21203B88A088B09890A85
:103EA300ECFEEDFF7A147B00121125EA4B60378A92
:103EB300828B83A3A3A3A3A3A3A3A3A3E4123F0976
:103EC300E50A124154EEF0A3EF123EF912416F12CC
:103ED3003F008A828B831263F3123EEC125AE2A3F1
:103EE300123EF3F0A3F0023D88EA240FF582E422A8
:103EF3001263AEA3A32212415AE4F0A322A3F01249
:103F0300636B125AE222123F0D2212415EA3A3A356
:103F1300A32274F51203B8EAFEEBFF890A8C088D1D
:103F230009EA4F607574016970127901121C5FE927
:103F3300F89027DBE493C3985015800A74046970E2
:103F430009123FA2500979118052740269704B8E95
:103F5300828F83A3A3A3A3A3A3A3A3A3E50A123FCF
:103F6300B1124687125C6CA3E4F0A3F09014B21272
:103F73005BEB60188003125D4C88828983A3A312D4
:103F8300406B88828983A3A370EC80039014B2EE04
:103F9300F0A3EF123FB87900800279C10242A379FE
:103FA30004121C5FE9F89027DAE493C39822125CA9
:103FB30070A3A3A322F07A207B0090149AE0F91255
:103FC30010D722C082C083E9F879009014B2801D13
:103FD3008A828B83A3A3A3A3A3A3A3A3A3E0686061
:103FE3000574FF687001098A828B83A3A312406B57
:103FF30070DE024DE474F71203B8EA4B70059014B7
:10400300B280068A828B83A3A312406B601F8A82CD
:104013008B83A3A3A3A3A3A3A3A3A3E06970E4EC4B
:10402300600F8A828B8312403770D880047A007BBA
:104033000002414512638BE0540422C082C0839086
:1040430014B280068A828B83A3A312406B60128A08
:10405300828B83A3A3A3A3A3A3A3A3E06970E58097
:10406300047A007B00024DE4125A5FEA4B228A82F3
:104073008B83124C766C2274F21203B88A0A8B0B70
:104083008C0C8D0D750800750900EA4B602A90149D
:10409300B280068E828F83A3A31240C2601AAC0C37
:1040A300AD0DEEFAEFFB850A82850B831221F2E94F
:1040B300640170DF8E088F09AA08AB09023D88E00E
:1040C300FEA3E0FFEE4F2274F71203B89014B2126E
:1040D3005D4C7C007D00800DE8FCE9FD88828983CE
:1040E300A3A3125D4CE8496030EA687002EB697083
:1040F300E79014B2125A5BE86A7002E96B8882890E
:1041030083A3A37008125D4C9014B28009125D4C16
:104113008C828D83A3A312568C802774F71203B865
:10412300EAFEEBFFEA4F6015121C771241A3125B04
:10413300E46003123D5AEEFAEFFB12112B800312D7
:1041430008837F01020613125A5F121761E9641A8A
:104153002212415AA3A32212415E22F08A828B8348
:10416300A3A3A3A3221263AE124C7622123F0DA384
:104173002274F61203B89014B2125D688014125DB3
:10418300851241A3123D5AEEFAEFFB12112BAE0832
:10419300AF09EE4F70E89014B2E4F0A3F00251546B
:1041A3008E828F8312635FF5831241B78E828F8372
:1041B3001241B722E0FAA3E0FB12112B22C082C006
:1041C30083EAFCEBFDEA4D6017EA24FBF582EB344E
:1041D300FF125BE97007124215E0F4600712109BAF
:1041E3007905802B90149AE0C0E0124215D0E0F0DC
:1041F3009027D2E493F97AB47B141210D1E96401C5
:10420300700B7A007B201242247900800279040229
:104213004DE4EA24FFF582EB34FFF583227A207B19
:104223000090149AE0F91210D72274F41203B8A282
:10423300AFE433F508C2AF9014B41240C26038EE55
:1042430024FBF582EF34FF125BE97A007B209014A4
:104253009A60051242278005E0F91210DDE4F50AA1
:10426300F50B780A120855EEFCEFFD7AB47B1412B5
:1042730010CB7402120883E508A2E092AFEEFAEFC6
:10428300FB02302B12428CE0221242902212429AFD
:10429300A3A3A3A3A3A322F08E828F832212088356
:1042A3007F0302061374F21203B874FA12091BEAAD
:1042B300FEEBFF7508FE7509FF121C3BE9600579EB
:1042C3001102442A12494A603C901648E0C4335410
:1042D300E0F8E0333354FC48C0E0EE1253593FF5A5
:1042E30083D0E0125DA7FAA3E0FB79FF121A01EA7B
:1042F3004B60127508FFEE240F12494D4404F0126F
:10430300494AD2E0F08E828F831244636006EE2422
:1043130012125DBFEE241312494D700D9027DDE498
:1043230093C0E0124439D0E0F08E828F83E0A2E79D
:10433300500454038019EE241412494D7012901442
:104343002CE0C0E012442FD0E0F090142CE004F0F5
:10435300EE241112494D64017016901632E0600D7F
:10436300901437E0700A8E828F83E07003125DBC75
:104373008E828F83E064017013EE240B124C6C6405
:10438300027009EE240F12494D4440F0AC18AD19E8
:10439300EEFAEFFB121CA78A0A8B0B74FE650870FA
:1043A3000374FFF47003125D85EA4B60768E828F8F
:1043B30083E0C0E07401120B30D0E0F07404120B00
:1043C30030EEF0A3EFF0EE241E125D467402120BE2
:1043D3003012568C74011208EB880C890D780C127C
:1043E3000855EE242012444C120859124447120671
:1043F300E0EE240E12444C1208599014401206E0C9
:104403007408120B30E0F9AC08AD09121CA1740852
:10441300120883E9FE74106E700BAA0AAB0B12111B
:104423002B80027E10EEF97406023D85EE2414F50E
:1044330082E43FF58322EE12443E222413F582E404
:104443003FF58322EE123D6222F582E43FF583E0DD
:10445300F50C780C228E828F83A3A3A3A3A3A3A31B
:10446300A3A312446922E0FAA3E0FB121D43E9224D
:10447300C082C08374D712091B9080C574031208CD
:10448300FB74261207B18A828B83A3A3A3A3125DB5
:104493004C740E120B30125BF1125D4C740C120B48
:1044A3003012456C240D12455CC0E0741A120B30B7
:1044B300D0E0F0125AE8125D4A7420120B30124514
:1044C3006C241512455CC0E07408120B30D0E0F088
:1044D300EA241CF582E43B125D4A7412120B30127B
:1044E300456C241112455CC0E07409120B30D0E016
:1044F300F0EA241212455CC0E07407120B30D0E0DE
:10450300F0EA241EF582E43B125D4A7424120B3058
:1045130012456C242012455CC0E07426120B30D087
:10452300E012456474FFF07401120B3074FFF074F1
:1045330002120B3074FFF09082F41206DC74041242
:1045430008FB74071208F31218877404120883799E
:10455300007429120883024DE4F582E43BF583E0FD
:1045630022F085188285198322E8F0A3E9F0EA2274
:1045730074F41203B874EC12091B8A0A8B0B8C08AF
:104583008D09E9FF7E107A217B001211258518829F
:10459300851983EAF0A3EB125BFBE849700302463B
:1045A300807C217D007900851882851983E0FA12C9
:1045B300108390144D125A5B851882851983125704
:1045C3006A2409F582E438F583125BA77420120B81
:1045D30030125D4C7411120B30E8124CDB125BADE0
:1045E30038F5837402124CDE1263797402124CC8DC
:1045F300124687124CDE126356EFF07422120B3010
:10460300124C89F9A3E0C912605039F583E81249C5
:104613009EA3E0C9241FF582E43912468E74231247
:104623000B30125A5B7406120B30125BA77408121C
:104633000B30E8F07426120B30125B81C082C0830A
:10464300740C120B30AC82AD83D083D0827405120C
:1046530007B17425120B30E0C0E07413120B30D095
:10466300E0F07900AA18AB19121C41E96401700447
:104673007E008009851882851983123D5DEEF974E9
:1046830014023028E508F0A3E50922F583E50AF0D2
:10469300A3E50BF02274F01203B874FF12091BEAAE
:1046A300FEEBFF8C088D098A82F583A37408F0EA78
:1046B300241612494D60088A828B83A37410F0EA92
:1046C300241712494D60098A828B83A3E02408F0E2
:1046D300EA12494B60088A828B83A3E004F08A8242
:1046E3008B83A3A3A3A3A3A3E060198A828B83A3D1
:1046F300A3A3A3A3A3A3E0C3332402F88A828B83D7
:10470300A3E028F0EA24111249556004740E8001D5
:10471300E4F0901640E0640170168A828B83E064B3
:1047230001600D9013B9E0600712493574018004EC
:10473300124935E412499E8A828B83A3E0F8EA1278
:104743002BED28298C828D83F0EA241112494D60C8
:1047530005124F7629F0850882850983E0C3947595
:104763004009750C00750D0002492CE0FA7B00121C
:1047730011258A0C8B0DEA4B700302492C8E828F14
:1047830083E0FA90143D124997740278081209C223
:10479300EA4508FAAB09EE24121249917406780827
:1047A3001209C2A808EA48FCEBFD12494A600478E2
:1047B3000180027800EE2416FAE43FFBE4C8F9ED29
:1047C30049FDEE241112494DF5088809740978084A
:1047D3001209C2ED4509FD8A828B83124997740B36
:1047E30078081209C2ED4509FDEE241712499174A8
:1047F3000C78081209C2ED4509FD8E828F83A3A3AD
:10480300A3A3A3A3124997740A78081209C2ED451A
:1048130009FDEE2423124991740D78081209C2EDA3
:104823004509F9EC850C82850D83F0E9A3F0EE24AC
:10483300021249741249B3F0EE2404124974A3A37B
:104843001249B3A3A3F0EE2413124984F0EE241407
:10485300124984A3F0750B088A828B83E0601512DA
:104863005C5D125766E50C2408FAE4350DFB121261
:1048730015750B10EE241712494D60191257E912E2
:104883005766A80BE50C28FAE4350DFB12121574D4
:1048930008250BF50B8E828F83A3A3A3A3A3A3E009
:1048A300604EEE2407F50EE43FF50F850E82F58387
:1048B300E0C0E0124963D0E01249A3E0C0E008126F
:1048C3004965D0E01249A3A3125BD7120851850EA4
:1048D30082850F83E0124C3DA80BE50C2812493F5B
:1048E300120883850E82850F83E0C333250BF50BF6
:1048F30012494A6008C0E0124963D0E0F0124F3316
:10490300125BD7120851122BECFC7D007403120BBF
:104913003012496CE0F8E50C28F8E4350DF9E82A83
:10492300FAE439124943120883AA0CAB0D7401024D
:104933005BC0EA2423F582E43FF58322FAE4350DD4
:10494300FB121077740322EE2415F582E43FF583FE
:10495300E022F582E43FF583E085188285198322FE
:10496300A80BE50C28124C5022E0FA8E828F83A309
:1049730022F8E43FF98882F583E0850C82850D8374
:1049830022F582E43FF5831249BDA3A3A322F58256
:10499300E43FF583E0F5087509002212639CF922D0
:1049A300F0050B8E828F83A3A3A3A3A3A3A3A322A8
:1049B300A3A3125D93A31249BD22E0850C82850D4A
:1049C30083A3A3A3227403023028125D508E828F27
:1049D30083A3A32274F01203B874FD12091B125BA4
:1049E300A17402120B30E9F08C0C8D0D750B017C58
:1049F300267D007900AA0CAB0D1210837402120BF2
:104A030030E0C394085003024BC612497CF0AC0C4F
:104A1300AD0D851882851983124C72FA851882852B
:104A23001983125298124F6FE96003750B008518B2
:104A330082851983125B81124C93E0F9EA850C821B
:104A4300850D83A3A3A3A3A3A3A3A3A3F0A3E91205
:104A53004CC8A3A3124C93A3A3E0F9E50C125C008A
:104A6300EA124CDB125756C0E0E50C24111263D452
:104A7300D0E0124CDE2407F582E438F583E0C0E091
:104A83001263D0D0E0125B947408124CBFA3E060B1
:104A930026851882851983E02408F8A3E03400F9F9
:104AA300E50C2413F582E4350D12568A850C8285B4
:104AB3000D83A3E02408F0850C82850D83A3A3A3B3
:104AC300A3A3A3A3A3E0602A850C82850D83A385FA
:104AD300820E85830F124C80F8A3E03400F9E50CB5
:104AE300125359350D12568A850E82850F83E024A1
:104AF30008F0124C44E4F0124C58E4F0A3125B9417
:104B0300A3A3A3A3E06011124CA4850C82850D839B
:104B1300A3A3A3A3A3124CD0E50C124C65E070032E
:104B2300024BB2124CA4FA124C44EA124CD0F88550
:104B33001882851983E028FBA3E034008B82F58378
:104B4300E0F8E50C241A1263D4E8124CD0E8C39AB7
:104B5300E50C5056124C60F89027D3E493C3985059
:104B6300047E0C8006E50C124C60FE850C82850DDC
:104B730083124C7FF508A3E03400F509750A007829
:104B830008120851EE124C3D7A427B091249441235
:104B93000883124C587442F0A37409F0EEC333F83F
:104BA300850E82850F83E0288004124C65E4F0852E
:104BB3000C82850D83A3E0F8850C82850D83E0C309
:104BC30098500479008070124C7FFAA3E03400FB04
:104BD300E50C125DB61263D7125BA7850C82850DB7
:104BE30083E0C398C0E0E50C24171263D4D0E0122D
:104BF3004CBFE06040E50C2417FEE4350DFF8E82C8
:104C0300F583E024F2F0E50C241DF8E4350DF98872
:104C130082F583E0240EFAA3E03400FB88828983C3
:104C2300125BA7901438E0F9121B99E9F88E828F72
:104C330083E0C398F0A90B025BBE25E0FCE433FDDF
:104C430022E50C124C4A222419124C5022F582E41C
:104C5300350DF58322E50C241B124C5022124C4ACD
:104C6300E022125B8E124C5322F582E43FF583124D
:104C73004C7622125D55F5838882E022A3124C8480
:104C830022124C892822E0F8851882851983E022B4
:104C9300A3A3E0FA851882851983125B87A3A3A3D4
:104CA30022850C82850D83A385820E85830F124C8A
:104CB30084FAA3E034008A82F583E022125B98A38E
:104CC300A3A3A3A322124CE3F583888222F0850ECB
:104CD30082850F83E004F022F0A3E9124CE3C8229B
:104CE3001263A0F8A3E02274F41203B88A088B09B4
:104CF300EA124D93A3A3F0EA1313543F124D86A374
:104D0300F0EAC41313124D93124D9D7409780A12DD
:104D13000ACA124D7DA3A3A3A3A3A3F0EB124D7F55
:104D2300124D9C740A780A120ACAE50A5401C0E0BB
:104D3300EC125B8E3DF583D0E0124DA1740B780A23
:104D4300120ACA124D7D124D9A740C780A120ACABD
:104D5300124D7DA3124D9A740D780A120ACAE50A00
:104D63005401C0E0EC2424F582E43DF583D0E0F067
:104D7300740E7808120ACA023017E50A54018C82AD
:104D83008D8322124D8CA3A322540F8C828D8322F8
:104D930054038C828D8322A3A3A3A3A3A3A3F08A8A
:104DA3000A8B0B22C082C08379008A828B83A3A3E0
:104DB300A3A3A3A3E0901437600EE0701F8A828B35
:104DC30083A3A3E070168012E06011125A4E901470
:104DD30040E06A7003A3E06B600279018003125A1A
:104DE3005BD083D08202083574F21203B88A0A8B2F
:104DF3000B890CECFEEDFF8A828B83E0FA124F6F76
:104E0300850A82850B83A3A3124F63E0F9EA8E829E
:104E13008F83A3A3A3A3A3A3A3A3A3124F88124F78
:104E230063A3A3E0F9124F33EA124F88A3A3E0C0B0
:104E3300E0EE2411F582E43FF583D0E0124F8FA317
:104E4300A3A3E0C0E0EE2412F582E43FF583D0E0B3
:104E5300125C6C7408123FB1A3A3A3E06017E50AC8
:104E63002408F8E4350BF9124439E8F0A3E9125C9D
:104E73006CE02408F08E828F83A3A3A3A3A3A3A330
:104E8300A3E060188E828F83A3124F52EE24151273
:104E93005686850882850983E02408F08E828F83F5
:104EA300A3A3A3A3A3E060248E828F83A385820898
:104EB300858309E0F8E50A28F582E4350B124F47AC
:104EC300A3A3F0850882850983E004F0EEFAEFFBE3
:104ED300121CB9E9F50D70498E828F83A3A3A3A396
:104EE300A3A3124F41A37014E0F8E50A28FAE435AE
:104EF3000BFB124F29125BA7E50C801A124F52E8E5
:104F0300240EF8500109EE241D125686124F76F92D
:104F1300E50CC39924F2C398C0E0EE1257E0D0E049
:104F2300F0A90D023D88EE241DF582E43FF58322AE
:104F3300EE124F3822240BF582E43FF58322E08EF4
:104F4300828F8322F583E08E828F83A3A3A322859E
:104F53008208858309E0F8E50A28F8E4350BF9228D
:104F6300E0FA850A82850B83A3A3A322125DC812EC
:104F73001CB322901438E0F9121B99E9F8850882D2
:104F8300850983E022F0A3E9124F8F22F0850A827C
:104F9300850B83A3A3A3A322C082C0837AC07B14FF
:104FA30079E21217377AC07B14024DE4C082C083C2
:104FB300901440024DE1C082C083901443024DE13E
:104FC300C082C083794A121737024DE474F6120384
:104FD300B89014C8E0FE04F0EEF9121C6BEA4B70B3
:104FE300F0EE60EDF902515474F21203B8EAFEEBED
:104FF300FF8C088D09890A121DA9740E120B30E06B
:10500300F9740F120B30E0F8EA4B7012E8701BA929
:105013000AAC08AD09EEFAEFFB121DC78065E86024
:1050230017E970068A828B83E4F07401687054E98F
:105033009014CB7024E4801EE97048EA24021245E0
:105043005CA80A28F8E4340013E813F070358A8268
:105053008B83A3A37401F0802AE004F090162FE061
:10506300F89014CBE0C398401AE4F0901443E06E38
:105073007003A3E06F700CEEFAEFFB79011218AB2B
:10508300125089023D887A017B0090149AE0F9124C
:1050930011E52274F41203B88A088B098C0A8D0B6C
:1050A30090830C780812094770077A011242228014
:1050B3001E90161C7808120ABBEA4B4C4D600D7803
:1050C3000812084D122DC61208838003125089025C
:1050D300302BC082C083901620023AD3C082C08393
:1050E300901622023AD374F61203B87E0075082C88
:1050F30075091478081208557C6E7D007A217B00AF
:1051030012119D7402120883E9640A70027E01126F
:105113001809E9640A7004EED2E1FE900487125B79
:10512300EB600F1252991221F2E9640A7004EED275
:10513300E3FE121A25E9640A7004EED2E4FE1216A5
:10514300B9E9640A7004EED2E5FEEEF980031208B1
:10515300837F0202061374F61203B812103B75081C
:105163002C750914780812085575086E75090078AE
:105173000812085512519612088312180F900489C9
:10518300125BEB60061252991221F2121A2B1216BD
:10519300CB80BE7C007D007A217B001211A97404B0
:1051A3002274F61203B874FF12091B7E0075082CD3
:1051B30075091478081208557C6E7D007A217B00EE
:1051C30012119D7402120883E96003025270780879
:1051D30012085575086E8E0978081208557C007DF3
:1051E300007A217B001211AF7404120883E9707DE9
:1051F300901440E064FE7003A3E0F460707E0190BD
:10520300144FE064086005E06404705C85188285CF
:105213001983EE1252B07A577B14794312173D7AF1
:10522300547B14794712173D7A457B14794A1252FD
:105233008B7A4D7B14795012173D7A407B14795346
:1052430012173D7A557B14795412173D7A427B1419
:1052530079E112173D90143AE0A2E35004D2F080B2
:1052630002C2F012529D800512103B7E001217FD00
:1052730090048B125BEB60061252991221F2121A00
:1052830037EEF9740102515112173D7A437B1479B9
:105293004B12173D22A3125B8822A2F0E433851838
:1052A3008285198312530F795212173D2212530F1D
:1052B300794212173D2274F61203B8E9FEA2E050B8
:1052C3001C75082C750914780812085575086E7535
:1052D30009007808120855125196120883EEA2E3CA
:1052E3005003121803EEA2E2500E90048D125BEBF2
:1052F30060061252991221F2025154121C1D7A9D1A
:105303007B14794512173D2212530F22F0AA18ABD2
:10531300192274F71203B874ED12091BE9FE9014F5
:1053230099F0AC18AD191253417412120B30EE12EE
:10533300534EAA18AB191252FE741302414290162F
:105343005EE0F97A9D7B14121C2322F090165EE036
:10535300F97C9D7D14222415F582E42212636C35B9
:1053630009F58322EFFB90149AE0F91210A122EEC3
:10537300241612537922F582E43FF5837401F02257
:1053830012636B3FF58312538D22125D55F98882A8
:10539300F5832274F41203B88A088B097A007B041C
:1053A30012508D12543890144F7409F01259D012C0
:1053B3003497125A5B1259DC640170677A0F7B00D1
:1053C3001210958A0A8B0BAF0BEA4F60568A828BB9
:1053D300837402F0E508125DB63509125DD4FC88CA
:1053E300828983A3A3E0FBEC8A828F83A3A3125B4E
:1053F300A888828983A3A3A3E08A828F8312542976
:10540300FAA3E0FB794A12173D850882850983A335
:10541300A3A3A3A3A3E070069012C87405F0AA0A7D
:1054230012536702302BA3F0E5082415F582E43507
:1054330009F583E0229013D5125D50901622E8F00F
:10544300A3E9F09013D7125D50901620E8F0A3E97A
:10545300F02274F41203B874FD12091B8A088B0935
:105463007401120B307402125C8D700302553012FA
:1054730053837404F0A3E412554DE064017008886B
:10548300828983A37420F0850882850983A3A3A35B
:10549300A3A3E06401700988828983A3E0D2E6F0C4
:1054A300850882850983A3A3A3A3A3A3E064017052
:1054B3000A88828983A3E0D2E78006EA12443A7419
:1054C30001125548E064017020850882850983A391
:1054D300A3125BEB6004EA12537385088285098388
:1054E300A3A3125D4CEA125684850882850983A31F
:1054F300A3A3A3A3A3A3E064017009EA240F125397
:1055030075A3E4F08508828509831244656009EE7A
:10551300240F12494D4404F0125559850882850918
:105523008312553512553F125D99F98002791002A5
:1055330049C8E0F8A3E0F98E828F8322A3A3E8F0A1
:10554300A3E9F0EE2212554DA322F08508828509C6
:1055530083A3A3A3A322EE1257CE2274F51203B89A
:1055630074F312091B890AEAFEEBFF75080075093B
:10557300007C0D7D007900AA18AB19121083124F1D
:1055830029125773741F58600C7AD37B0012154588
:10559300790002566FE8A2E55008740C120B3074C0
:1055A30001F0E8A2E75008740B120B307401F0E825
:1055B300A2E6740A5008120B307401F08008120B33
:1055C30030E0640170138E828F83A3A3A3A3A3A3EC
:1055D300A3E06036EE241380128E828F83A3A3A3ED
:1055E300A3A3A3A3A3E06022EE2415F582E43FF571
:1055F30083125D8BE50845096010AC08AD097402A0
:10560300120B30AA82AB83121215124F3312567447
:1056130012568C740A120B30E064017046901653D4
:10562300E060476401700690163CE0603DEE240B99
:10563300125D46901443E0687003A3E069702B1277
:1056430044587026E50845096019121CC58A088B61
:1056530009AC08AD097402120B30AA82AB8312594C
:10566300DC6007AA18AB191218A5A90A740D024227
:10567300A012567822E0F8A3E0F9851882851983F1
:10568300222418F582E43FF583E8F0A3E9F02274BD
:10569300F71203B874CD12091BEAFEEBFF8A82F5F9
:1056A3008312576A125756A2E040030257518A8267
:1056B3008B83125389A3A3A3A3A3A3E054FE126075
:1056C3005D740D1208FBEA241E12455C125D25125F
:1056D3005A5B121CBFE97076742A120B3012577A88
:1056E300706C7C0D7D007900AA18AB1912108374BD
:1056F30016120B3012567412568C742A120B301277
:105703005773A2E55008740B120B307401F0E8A232
:10571300E75008740A120B307401F0E8A2E6500453
:10572300742080027422120B301257667402120B1B
:1057330030AA82AB831212158E828F83A3A3E0C09B
:10574300E0740C120B30D0E012530B12189F743319
:105753000241422406F582E438F583E022A3A3A3A1
:10576300A3A3A31263EB2212576E22125D55C82224
:10577300125B85A3E0F822124C76640422E9F879DF
:1057830000740468600A740A686005740368700230
:10579300790102083574F61203B88A828B83742464
:1057A300F0A3A37401F012182D8A088B09AE08AF79
:1057B30009EA4F60078A828B831257C6EEFAEFFB22
:1057C3000251547401F0EA1257CE221257E07401C9
:1057D300F0121CC51257E9EAF0A3EBF0222417F5E7
:1057E30082E43FF58322EE241AF582E43FF5832217
:1057F300C082C0839014B67401F0E9A2E35003742D
:1058030003F0E9A2E15004E0D2E2F0024DE474F6C1
:105813001203B879007C008A088B0978081205CD39
:10582300F8FF07465844584458445844583C584095
:1058330058465838587C01800A7C0480067C0280D4
:10584300027C089014B6E05C600479028005EC6089
:1058530002790102515474F61203B88A828B83E0F1
:105863007014A3A3A3125BEB600C8A828B83125A7E
:1058730058121A8580047A007B00025154C082C0FA
:10588300837800E875F003A4FCA9F0E9FD12590F31
:105893006A7003A3E06B70189027CBE493C0E074A5
:1058A300B72CF582741439F583D0E0F079C58059AB
:1058B30008E8C3940340CC7800E875F003A4FCAD7A
:1058C300F012590F64FE7003A3E0F4601E08E8C3EE
:1058D300940340E57800E875F003A4FCADF074B7D9
:1058E3002CF58274143DF583E07015E8125E0912FD
:1058F3005BA79027CBE49388828983F079008009A2
:1059030008E8C3940340CF79C7024DE474B82CF57B
:105913008274143DF583E02274F41203B874F31215
:10592300091BEAFEEBFF8C088D09750A12EA4F701A
:105933000579000259CB901440E06E7003A3E06F29
:1059430070141259D0AA08AB091259DC7005750AF4
:10595300018003750A00851882851983E4F0041217
:105963000B30EEF0A3EF12530B1217E5E960297425
:1059730003120B30AA82AB831217C1E964017018BA
:10598300750A017403120B30AC82AD83AA08AB090C
:105993001259DC6003750A00AC08AD09EEFAEFFB9F
:1059A300121DAFE9F8740A687005750A018017744F
:1059B300A0687012AC08AD09EEFAEFFB121DBBEE46
:1059C300FAEFFB121DCDA90A740D023028121CC573
:1059D3008A0A8B0BAC0AAD0B2212120FE92274F761
:1059E3001203B8EAFEEBFF8A82F583A3A3A3A3A362
:1059F300A3A3A3E06019EA241512301B124F34123B
:105A03005A5B121D55E964017005124F33802D8EC8
:105A1300828F83A3A3A3A3A3A3A3E0602912443982
:105A2300125A65FAA3E0FB121D55E9640170178E43
:105A3300828F83A3A3A3A3A3A3A3A3A3125A5B123B
:105A43001D4F7901800279000241458A828B83A32D
:105A5300A3A3A3A3A3A3A3A3125A5F22E0FAA3E0E1
:105A6300FB22123E49A3A3A3A3A3A3A3A3A3E022C0
:105A730074F21203B874FD12091B8A088B09ECFE39
:105A8300EDFF890A750B017401120B307404125D6A
:105A9300A160447411120B30E06015125C83E412B0
:105AA3005D6E8A828B83E0D2E7F0EA2414125ADF18
:105AB300125AE81253877403F0A3E50AF0EE8882C2
:105AC3008983A3A3F0EF88828983A3A31263A91216
:105AD30063F1125D9CF50BA90B023D83F582E43B58
:105AE300F583E4F02212636B3B2274F41203B8EAE9
:105AF300FEEBFF8908EA124F2A125B81A3E0FAEE5C
:105B0300241712494D640460097AD37B00121545AA
:105B13008063EA12076501000E245B00215B7508B0
:105B230000124F29A3E0F9EE2409F50AE43FF50B2F
:105B330088828983A3A3E0FC88828983A3A3125B61
