:020000040000FA
:06000000020AC202020028
:03002B000208B513
:030033000206734F
:030043000207832E
:0300530002013572
:03006B0002064D3D
:100083000201940100F8EF0700001000FFFF0000D9
:10009300050400000003000147726F757000FF0440
:1000A30000100020FD000206FFFF1E08004B16E7AC
:1000B30019002C010000481400000000000000009B
:1000C3000000000000000000080401020300039B7D
:1000D3008301198401040000D216000000E8030024
:1000E30000FFFF22170188130000E80300006400EB
:1000F3006400B801A0BB0D00A0BB0D000202020703
:1001030001051E02051E020A0101080103B80B02C4
:100113000102E8030A050034120205030101FF0F7F
:100123006D2300000000A32200000000FF00000078
:10013300FF00C0E074F1120417A2AFE433F509D253
:10014300AF85A708AFA1EF5508FE74105E600612D5
:100153000E2475A1EF74085E6008120E2A75A1F7CC
:100163008024EFA2E092F0E508A2E082F05017901D
:100173006198E0F89008FEE0C398A2D265D03350AE
:1001830002E8F075A1FEE509A2E092AF7F02020446
:1001930076C0E074F2120417A2AFE433FED2AF903C
:1001A30061A4E0F8759B00E59158540860087591C7
:1001B300F7120E788023E59158541060087591EF7B
:1001C300120E7E8014E591A2E092F0E8A2E082F0A4
:1001D3005007E0C2E0F0120FC89061A3E0F8E5E930
:1001E300585404600E120F9E75E9FB906193E0A2D0
:1001F300E640F2EEA2E092AF7F01020476C0E07423
:10020300F2120417A2AFE433FED2AF9061A5E0F877
:10021300E5BF585404600675BFFB120FE080D4C3DA
:10022300E498F8E499F91202638026C3E49AFAE4A5
:100233009BFBE920E7E9120263E498F8E499F922C9
:10024300C3E498F8E499F9120263E498F8E499F99D
:10025300C3E49AFAE49BFB22EB20E7CFE920E7E033
:10026300B90010BB0008E88AF084F8AAF022E4FB86
:10027300C8FA22EB70227B10C833C8C933C9335084
:1002830007C39AC3DBF280069A50012ADBEAC8331C
:10029300F4C8C933F4C9FA2275F008E4C833C8C9ED
:1002A30033C933C99AC99B5004C92AC93BD5F0EC59
:1002B300FBC833F4C8E4C9FA22080808EAC0E0EB33
:1002C300C0E086F0E7A4FA180986F0E7A42AFA1832
:1002D3000986F0E7A42AFA180986F0E7A42AFA198E
:1002E30086F0E7A4FBE5F02AFA190886F0E7A42BC9
:1002F300FBE5F03AFA190886F0E7A42BFBE5F03AA0
:10030300FA18180986F0E7A4C5F02BFBE43AFA19AA
:1003130008E7C5F0C6A426F6E5F03BFBE43AFA1875
:1003230086F0E7A4F6E5F00826F6E43B08F6E43A9F
:1003330008F6D0E0FBD0E0FA22E4CFC0E0E4CEC080
:10034300E0E4CDC0E0E4CCC0E075F020E626F6089A
:10035300E633F608E633F608E633F6181818EC33F6
:10036300FCED33FDEE33FEEF33FFC3EC9709ED975E
:1003730009EE9709EF97191919400FFFEC97FC093C
:10038300ED97FD09EE97FE191906D5F0BFECF709B5
:10039300EDF709EEF709EFF7191919D0E0FCD0E0F2
:1003A300FDD0E0FED0E0FF222518C582C0E0E519AC
:1003B30034FFC583C0E0E518C3958224F810AF0865
:1003C3008583198582188008858319858218D2AFA1
:1003D300CEF0A3E520F0A37808E608F0A3DEFAEF59
:1003E300F0A3E58124FAF8E608F0A3E608F0A3E613
:1003F30008F0A30808E608F0A3E608F0A3158115A2
:1004030081D0E0FED0E0F8158115811581E8C0E0C8
:10041300EEC0E022C0D02518C582C0E0E51934FF44
:10042300C583C0E0E518C3958224F310AF08858324
:10043300198582188008858319858218D2AFC8F080
:10044300A3E9F0A3EAF0A3EBF0A37908E709F0A38B
:10045300D8FAECF0A3EDF0A3EEF0A3EFF0A3D0E015
:10046300F0A3D0E0F0A3D0E0F0A3E520F0A3E5F003
:10047300F0A322851983851882E0C0E0A3E0F9A3E5
:10048300E0FAA3E0FBA37808E0F608A3DFFAE0FCB8
:10049300A3E0FDA3E0FEA3E0FFA3E0C0E0A3E0C070
:1004A300E0A3E0F5D0A3E0F520A3E0A3F5F010AFBF
:1004B300088583198582188008858319858218D257
:1004C300AFD082D083D0E0F8D0E032120B3CB90039
:1004D3000302050DE490040178A279168002F0A3CB
:1004E300D8FCD9FA7AA27B1990008678B07901807A
:1004F30015E493A3AD82AE838A828B83F0A3AA8291
:10050300AB838D828E83D8E9D9E77582207583CE3C
:1005130074041208467582687583217400120846B4
:100523000475F0108E1A8F1B85821F85831E851814
:1005330082851983E0CEA3E0CF851F82851E83EBDE
:10054300C9EAC8EDCBECCAC3E833C8E933C9EA3317
:10055300CAEB33CBC3EA9EF51DEB9FF51CB35004E6
:10056300AB1CAA1DEC33CCED33CDD5F0DAAE1AAF0C
:100573001B22D083D082ECC0E0EDC0E0E493A3FC67
:10058300E493A3FDED4C600D120691EC24FFFCED0A
:1005930034FFFD80EFE493A3FCE493A3FDED4C60F3
:1005A3000D12072EEC24FFFCED34FFFD80EFD0E0AD
:1005B300FDD0E0FCE493A3C0E0E493C0E022D08349
:1005C300D082E9C0E0E493A3C386F0C5F095F0F9C7
:1005D30008E493A386F0C5F095F0700BE493A3C3EE
:1005E300994005E9048002A3E475F002A42582F58D
:1005F30082E5F03583F583D0E0F9E493A3C0E0E42A
:1006030093C0E022851983851882E0A3FEE0A3F559
:10061300207808E0A3F608DFFAE0A3FFE0A3C0E038
:10062300E0A3C0E0E0A3C0E0E0A3C0E0E0A3C0E03B
:1006330010AF088582188583198008858218858301
:1006430019D2AFD083D08202084CC0E074F21204F6
:1006530017A2AFE433FED2AFE589A2E15003120D36
:1006630034758900C2C5EEA2E092AF7F0102047621
:10067300C0E074F2120417A2AFE433FED2AFE58BED
:10068300A2E05003120D34758B00C2E880D8C0E09D
:10069300C3E49396087401939618400FE49366702D
:1006A3000808740193661870007019A3A3C3E49338
:1006B30096087401939618A3A3400DD0E0D0E0D020
:1006C300E00205B1A3A3A3A3A3A3D0E022740480F3
:1006D3000474028000CCC0E0EDC0E0E518C39CCCFC
:1006E300AD1950011D10AF068C188D1980068C189A
:1006F3008D19D2AF1207C8D0E0FDD0E0FC227402FE
:100703008000CCC0E0EDC0E0E518C39CCCAD19502F
:10071300011D10AF068C188D1980068C188D19D207
:10072300AF1207A6D0E0FDD0E0FC22C0E0C0F08805
:10073300F0E4936670080874019366187000A8F0DB
:10074300A3A3700BD0F0D0E0D0E0D0E00205B1A3BA
:10075300A3D0F0D0E022D083D082CCC0E0E493A336
:1007630060061208081470FAE493A360061209489D
:100773001470FAD0E0FCE493A3C0E0E493C0E02259
:10078300C0E074F2120417A2AFE433FED2AFC2C0CA
:10079300E5D1A2E45003120D94EEA2E092AF7F01E3
:1007A300020476CAC0E0E493A3C582CCC582C583A4
:1007B300CDC583F0A3C582CCC582C583CDC583DAFD
:1007C300E5D0E0CA22CAC0E0E0A3C582CCC582C599
:1007D30083CDC583F0A3C582CCC582C583CDC58334
:1007E300DAE6D0E0CA22C008C3E096F50808A3E021
:1007F30096420808A3E096420808A3E096450870CD
:1008030001D3D00822C0E0E493A3D39C5010E49317
:10081300A3C39C400AD0E0D0E0D0E0020776A3A3B4
:10082300A3D0E0227009080808226016181818C619
:10083300C333C608C633C608C633C608C633C6D5CF
:10084300E0EA22C09FF59FE473D09F22D083D08239
:10085300C09FE493C0E0740193C0E0740293F59FDA
:10086300227404800A74038006740280027401C037
:10087300E0F40412087FD0E0120AFF222518F58263
:1008830010AF08F518400C15198008F5184002152B
:1008930019D2AF8519832200C0D0251810AF08F5EF
:1008A30018500C05198008F51850020519D2AFD05D
:1008B300D022C0E0C0D0E8C0E0A8A8D2AFC2C7E849
:1008C300A2E792AFD0E0F8D0D0D0E032BB0102E78C
:1008D30022C082C08389828A83BB0003E08002E452
:1008E30093D083D082226016080808C6C313C618A3
:1008F300C613C618C613C618C613C6D5E0EA222502
:1009030018F8E43519F9222518FAE43519FB2225DC
:1009130018FCE43519FD22C3E0C696F608A3E0C629
:1009230096F608A3E0C696F608A3E0C696F6222537
:100933001810AF08F518400C15198008F518400277
:100943001519D2AF22C0E0E493A36C7009D0E0D0B4
:10095300E0D0E0020776A3A3D0E022E0667010089F
:10096300A3E066700A08A3E066700408A3E06622A9
:10097300E76670100809E766700A0809E7667004FD
:100983000809E76622C3E09608A3E09608A3E09669
:1009930008A3E096A2D265D03322C3E096F008A361
:1009A300E096F008A3E096F008A3E096F022C3E6F1
:1009B30097F60809E697F60809E697F60809E69711
:1009C300F622C3E4939608740193960874029396EF
:1009D300087403939622700422600D18C6C333C6AD
:1009E30008C633C6D5E0F41822E647F60809E647F9
:1009F300F60809E647F60809E647F622E026F00876
:100A0300A3E036F008A3E036F008A3E036F022E6D0
:100A130027F60809E637F60809E637F60809E63740
:100A2300F622E657F60809E657F60809E657F608E8
:100A330009E657F622E056F608A3E056F608A3E0C7
:100A430056F608A3E056F622E026F608A3E036F6AB
:100A530008A3E036F608A3E036F622E056F008A332
:100A6300E056F008A3E056F008A3E056F022E4C3F2
:100A730096F608E496F608E496F608E496F62260FD
:100A83000D08C6A2E713C618C613C6D5E0F322C6DF
:100A9300F4C608C6F4C608C6F4C608C6F4C622C31C
:100AA300E7960809E7960809E7960809E79622C337
:100AB300E09608A3E09608A3E09608A3E0962275C3
:100AC300D00075813F751801751904000204CEE644
:100AD300F008A3E6F008A3E6F008A3E6F022600C12
:100AE30008C6C313C618C613C6D5E0F422E0F60839
:100AF300A3E0F608A3E0F608A3E0F622CAC0E0E606
:100B0300F0A308DAFAD0E0FA22E8F0A3E9F0A3EAC6
:100B1300F0A3EBF022E0F8A3E0F9A3E0FAA3E0FBF3
:100B230022EAF0A3EBF0A3ECF0A3EDF022E0FAA3AA
:100B3300E0FBA3E0FCA3E0FD22E5C754F84401F584
:100B4300C77901222518F582E43519F58322C2AF4E
:100B530075D69F0200002212084F599F0412084FB6
:100B6300B09F0412084FE49F0412084F16D10212DB
:100B7300084F41D10212084F56D10212084F89D1B2
:100B83000212084FBED10212084F04D20212084FBC
:100B9300A2D20212084F4ED30212084FA9D6021254
:100BA300084F28D90212084FE4D90212084F14DA69
:100BB3000212084F61DA0212084FF5DA0212084FE7
:100BC3009EDB0212084FEFDB0212084F33DC0212E6
:100BD300084FD7DC0212084F44DD0212084F73DDC1
:100BE3000212084F86DE0212084FA6DE0212084FD9
:100BF3000ADF0212084FE6DF0212084F13E2021265
:100C0300084FC1E20212084F59E50212084FDEE510
:100C13000212084F55E80212084F8FE80212084FDC
:100C2300EBE90212084FFEE90212084F3FEA0212F3
:100C3300084FD7EB0212084F13720012084F8F723E
:100C43000012084FC2720012084FF0720012084FD0
:100C530035750012084F54750012084F997500122C
:100C6300084F2F760012084F7B760012084F0D773E
:100C73000012084FE6770012084F37780012084F2A
:100C83009C780012084F0F790012084F5379001215
:100C9300084FAB790012084FCD790012084F5D7AE7
:100CA3000012084FEE7A0012084F3A7B0012084FE9
:100CB300667B0012084FA77B0012084F3F7D00128E
:100CC300084F2B7E0012084F0D7F0012084F8ADD5C
:100CD3000412084F9BDD0412084F39DE0412084F3B
:100CE30053DE0412084FE3FF0212084FEBFF011219
:100CF300084F02DF0412084F12DF0412084F2ADFE5
:100D03000412084F92DF0412084F88DA0412084FC6
:100D13000CDB0412084F74DB0412084F4DD5041288
:100D2300084F6CD50412084FD9D50412084F1ED6AC
:100D33000412084F77D60412084FD7FF0212084F48
:100D4300DAFF0212084FDDFF0212084FE0FF021222
:100D5300084FB6BB0412084FC4BB0412084F3DBC76
:100D63000412084F12BD0412084FE4BE0412084FC8
:100D7300A6E00412084FA7A90412084F13AA0412ED
:100D8300084FCBAA0412084FB8AB0412084F2DAD7D
:100D93000412084F94AD0412084FE8AD0412084F33
:100DA300F1AD0412084F01AE0412084F74AE0412E1
:100DB300084F8AAE0412084F94AE0412084F66FA25
:100DC3000312084F92FA0312084F29FD0312084F2A
:100DD30069FD0312084FA5FD0312084FB9FD031265
:100DE300084FD2FD0312084FC3FE0312084F75FFCD
:100DF3000312084F89FF0312084FB6D60412084F97
:100E0300DAD60412084FF3D60412084F31D704126E
:100E1300084F61D70412084F8ED70412084FF4D736
:100E23000412084FF7D70412084F01D80412084FD1
:100E33000ED80412084F79CB0412084F99CB041231
:100E4300084FD8CB0412084FF6CB0412084F11CC2D
:100E53000412084F77CC0412084F83CC0412084FB6
:100E6300E0CC0412084FEFCC0412084F13CD041248
:100E7300084FD4CD0412084FE1CD0412084FF2CD30
:100E83000412084F1BE00412084F33E00412084F0A
:100E93005FE00412084FE9AE0412084F43B0041296
:100EA300084F51B00412084F64B00412084F79B0D0
:100EB3000412084F8EB00412084FA1B00412084F59
:100EC3001DB10412084F82B10412084F18B2041264
:100ED300084FF1B20412084F01B30412084F10B3C4
:100EE3000412084F69DE0412084F8DDE0412084F06
:100EF300B5DE0412084FDDDE0412084FBAD0041227
:100F0300084FE1D00412084FFFD00412084F6ED1EE
:100F13000412084FA6C80412084FBFC80412084F92
:100F2300CBC80412084FDFC80412084FFDC80412CF
:100F3300084F07C90412084F11C90412084F24C9E6
:100F43000412084FAAC90412084F1FCA0412084FFB
:100F53004ECA0412084F9CCA0412084FEBCA04126B
:100F6300084F06CB0412084F10CB0412084F21CBB5
:100F73000412084F64CB0412084FA0FF0112084F5C
:100F83002AA00412084F56A00412084F73A004129B
:100F9300084F86A00412084FA1A00412084FFBA01B
:100FA3000412084F29A10412084F39A50412084F4F
:100FB30097A60412084FC9A60412084F2CA70412BF
:100FC300084F98A80412084FC0A80412084FD5A8C8
:100FD3000412084FE5A80412084F25A90412084F6C
:100FE30067A90412084F77A90412084F58D90412AD
:100FF300084F72D90412084F9AD90412084FB3D973
:101003000412084FD7D90412084FF5D90412084F18
:101013000CDA0412084F3ADA0412084F55DA0412B4
:10102300084F62E00412084F49BF0412084F59BF2A
:101033000412084F5EC00412084F90C00412084FF8
:10104300C0C00412084FE3C00412084FFAC00412D0
:10105300084F34C10412084F99C10412084FDBC171
:101063000412084F22C20412084F4FC20412084F41
:101073007AC20412084F22FE0212084F34FE0212F3
:10108300084F1AFF0212084FA7FF0212084F8DDC08
:101093000412084FC3DC0412084FDBDC0412084FB0
:1010A3001DDD0412084F2DDD0412084F3CDD041230
:1010B300084F80DD0412084F93F80112084FCDF852
:1010C3000112084F36F90112084F55F90112084F62
:1010D300F7F90112084F00FA0112084F51FA0112F1
:1010E300084F7AFA0112084F87FA0112084FF8FAEB
:1010F3000112084F86FB0112084FD4FB0112084F5F
:101103000AFC0112084F6BFC0112084F94FC0112F8
:10111300084F0BFD0112084F67FD0112084FA4FD94
:101123000112084FDBFD0112084FEDFD0112084FBC
:10113300FFFD0112084F1EFE0112084F27FE011288
:10114300084FE2FE0112084F2EFF0112084F6CFFF9
:101153000112084F18D80412084F0FD30412084F76
:1011630045D30412084F8DD30412084FE6D404125A
:10117300084FD5C20312084F06C40312084F42C4D6
:101183000312084FFCC50312084F26C60312084F6B
:101193009FC80312084FDFC80312084F73CA031214
:1011A300084F12CB0312084F6ACB0312084FFDCB33
:1011B3000312084F37CC0312084F79CC0312084FA0
:1011C300ECCD0312084F6CCF0312084FA9D10312C1
:1011D300084FD7D10312084F03D20312084F0CD282
:1011E3000312084F69D20312084FF9D20312084FB2
:1011F30035D60312084FB7D60312084FE77F001204
:10120300084FB1B70412084FC7B70412084F6BB8A1
:101213000412084FAAB80412084FC7B80412084FA3
:10122300F8B80412084F45B90412084F79B90412EB
:10123300084FB4B90412084FA9BB0412084F9DFF0D
:101243000312084F8DDB0412084FECDB0412084F26
:101253002ADC0412084F6BDC0412084F2FBF011263
:10126300084F3BBF0112084F9DBF0112084FA7BF94
:101273000112084F34C00112084F70C00112084F09
:101283005CC10112084FBBC10112084F44C20112D5
:10129300084FC1C20112084F3CC30112084FF3C4E7
:1012A3000112084FB9C60112084FBFC70112084FF8
:1012B300C6C80112084F27CB0112084F9CCC01125C
:1012C300084F39CD0112084F85CE0112084F85CF43
:1012D3000112084FF7D00112084F8ED50112084FA3
:1012E30078D60112084FFAD60112084F1FD7011200
:1012F300084F44D70112084FDFD70112084FFDD71B
:101303000112084F1BD80112084F8CD80112084F45
:10131300ABD80112084FD8D80112084FD9D90112FE
:10132300084FC2DA0112084F59DC0112084F7ADC68
:101333000112084F20DD0112084F67DD0112084F2B
:10134300D9DD0112084F5CDE0112084FC1DE011224
:10135300084F1EDF0112084FC1DF0112084F36E0AC
:101363000112084F71E00112084FD3E00112084F38
:1013730036E20112084FC6E30112084F6DE4011271
:10138300084FC5E60112084F0FE70112084F24E783
:101393000112084F75E70112084FE6E70112084FE3
:1013A30016E80112084F87E80112084F26E90112D7
:1013B300084F3BEB0112084FD1ED0112084FDEEE4F
:1013C3000112084FDFF20112084FA9F30112084F6F
:1013D300C6F40112084F7AF60112084F14D703120C
:1013E300084FCCD70312084F45D80312084F41D9F1
:1013F3000312084F4BDA0312084FD5DA0312084FD2
:1014030001DC0312084F22DC0312084FC6DC03126F
:10141300084FE9DD0312084F97DE0312084F13E26A
:101423000312084FC58A0412084FE38B0412084FB6
:10143300068F0412084FCD8F0412084FD490041264
:10144300084F00910412084F59920412084F6292F8
:101453000412084F65920412084F0C930412084FAC
:1014630031930412084FDEE00412084F94AE0312C6
:10147300084FC3AE0312084F3BAF0312084F34B0FB
:101483000312084F8BB00312084FA5B10312084F84
:10149300C8B10312084F1AB20312084F50B2031215
:1014A300084F12B30312084F80B30312084FB7B3A8
:1014B3000312084FEFB30312084F77B50312084F17
:1014C30056B60312084FA4B70312084F87B8031286
:1014D300084F13B90312084F53B90312084F72B9D7
:1014E3000312084FBDB90312084FDDB90312084FA9
:1014F30072BA0312084FFEBA0312084F59BB031204
:10150300084F9EBB0312084F1BBE0312084F0DBFAB
:101513000312084F64BF0312084FAABF0312084FF8
:101523009FC00312084FC7C00312084FCAC003125B
:10153300084FD4C00312084FD7C00312084F5FC12E
:101543000312084F98C10312084FC4C10312084F76
:10155300EBC10312084F0FC20312084F80C20312DC
:10156300084F83C20312084FB6C20312084F9CDF11
:101573000412084FA8DF0412084FE6DF0412084FD5
:10158300FD7F0012084F04980312084F2798031297
:10159300084F81990312084FCA990312084F289ADA
:1015A3000312084FF0970312084F919A0312084F42
:1015B300E29A0312084F5C9B0312084FE09B03124D
:1015C300084FE39B0312084F6B9C0312084FAE9C1A
:1015D3000312084F01A10312084FB2A20312084FCE
:1015E300F8A20312084F70A60312084F9EA7031216
:1015F300084F1AA90312084FA0A90312084F91AA72
:101603000312084F13AD0312084FE09D0412084F55
:1016130043EE0212084FAFEE0212084FCAEE021257
:10162300084F54EF0212084FADEF0212084FF8EFC4
:101633000212084F5FF00212084FE0F10212084F46
:10164300F8F20212084F7BF30212084F83F50212DD
:10165300084F27F60212084FC6F60212084FB4F7D6
:101663000212084F92F90212084F33FB0212084F7D
:10167300C6FB0212084FD2FC0212084F008004126C
:10168300084F6B800412084FB3800412084F068181
:101693000412084F63810412084FB9810412084FE2
:1016A3003A820412084F72820412084F9D82041278
:1016B300084FB5820412084F0F830412084FE984C0
:1016C3000412084F09850412084F16850412084FA7
:1016D3008D860412084F3E880412084FFF880412B7
:1016E300084F6F890412084F86890412084F7E8AB7
:1016F3000412084FD3C50412084F0BC70412084F36
:10170300CAC70412084F32C80412084FD2C20412C7
:10171300084FEDC20412084F31C30412084F57C3D8
:101723000412084F7EC30412084F96C30412084FD5
:1017330038C40412084F4DC40412084F6FC5041275
:10174300084F78C50412084F81C50412084F8AC593
:101753000412084F41B30412084F43B70412084F51
:1017630048B70412084F4AB70412084F47CF041270
:10177300084F13E10412084F35AC0212084F68AC4E
:101783000212084FD4AC0212084F6FAD0212084F79
:101793000CAE0212084F51AE0212084F73AE021282
:1017A300084F8CAE0212084FB2AE0212084FD4AEED
:1017B3000212084F12AF0212084F56AF0212084F1F
:1017C30078AF0212084FDAAF0212084FA1B002122B
:1017D300084F58B10212084FCAB10212084FB0B2F3
:1017E3000212084F1EB30212084F65B30212084FCC
:1017F30068B30212084FE9B30212084F80B4021211
:10180300084F00B50212084F1FB50212084F7BB6EE
:101813000212084F94B60212084FF9B60212084F8B
:1018230006B70212084F12B80212084F1FB802126D
:10183300084F28B80212084F00BA0212084F1ABB09
:101843000212084F93BB0212084F05BC0212084F45
:1018530027BC0212084FBBBC0212084F8FBE0212F4
:10186300084F66C20212084F7AC20212084F8AC298
:101873000212084F94C20212084F9DC20212084F6F
:10188300A6C20212084FB0C20212084FDDC20212F2
:10189300084F06C30212084F11C30212084F35C383
:1018A3000212084F59C30212084FC3C30212084F52
:1018B30009C40212084F26C40212084FA3C402121D
:1018C300084FDAC40212084F19C50212084F66C541
:1018D3000212084FECC50212084FBAC70212084F92
:1018E3003DC80212084F21C90212084F88CB0212C9
:1018F300084FE1CB0212084F2BCC0212084F86CDC2
:101903000212084FBBCD0212084F0DCE0212084F30
:10191300C2CE0212084F71CF0212084FAECF02128D
:10192300084F43D00212084FAFD00212084F1526BA
:101933000012084F47260012084F75260012084F61
:101943004B280012084F2B290012084F832900123D
:10195300084FBE2A0012084F0A2B0012084F332EDD
:101963000012084F26310012084F76320012084F3A
:101973000C330012084F18330012084F4A33001279
:10198300084FCD340012084FDB350012084F0536DF
:101993000012084F6C360012084FC5360012084F6C
:1019A3002B370012084F42390012084FD13A001268
:1019B300084F9B3B0012084FE13C0012084F313F98
:1019C3000012084F01420012084F0E420012084F46
:1019D30095420012084F29430012084F6C4300122E
:1019E300084FB5430012084F09440012084F8244C0
:1019F3000012084FF1440012084F0E450012084F21
:101A0300DE450012084F64480012084F8449001253
:101A1300084F6F4A0012084FF14A0012084F244F33
:101A23000012084F614F0012084FB94F0012084FC0
:101A3300EC4F0012084F56500012084F8C50001202
:101A4300084F17510012084F6F510012084FD05220
:101A53000012084F4B530012084F68530012084FEF
:101A630075530012084F78530012084FA753001202
:101A7300084FAD550012084F86560012084FC55641
:101A83000012084F18580012084FB2580012084F9E
:101A9300CC580012084F91590012084FA95B00124D
:101AA300084F1A5C0012084F5A5C0012084FE85C9A
:101AB3000012084F105E0012084FD25E0012084F4A
:101AC300D9600012084FF1600012084F056100123F
:101AD300084F3D610012084F6B610012084FEA6224
:101AE3000012084F07640012084F79640012084F70
:101AF30056650012084F8B650012084FEE65001201
:101B0300084F1D670012084FC5670012084FDD67B5
:101B13000012084F6C680012084F206B0012084F28
:101B2300F86C0012084F146D0012084F306D00124C
:101B3300084FFE6D0012084FF1710012084F1F8409
:101B43000112084F51840112084F40880112084FB7
:101B53008C880112084FD2880112084F7489011230
:101B6300084FD0890112084F158A0112084F5C8B68
:101B73000112084F708C0112084F5F900112084F39
:101B8300E3900112084FF0910112084F4C92011299
:101B9300084F3C940112084FB1940112084FBB94B3
:101BA3000112084FC8940112084FF3940112084F11
:101BB300DA950112084F84960112084F0297011219
:101BC300084F22970112084F4B970112084F6D9748
:101BD3000112084FCD990112084F939A0112084F31
:101BE300D89A0112084F559B0112084F069C011207
:101BF300084F389C0112084F7E9C0112084FBA9C73
:101C03000112084F0A9D0112084F5E9D0112084FF1
:101C1300B49D0112084F009E0112084F6D9E0112E0
:101C2300084FE89E0112084FB3A00112084FB3A159
:101C33000112084FD8A20112084F17A60112084F2C
:101C43002AA90112084FE7A90112084F2BAA011272
:101C5300084FDBAB0112084FEFAB0112084FF9AB92
:101C63000112084F03AC0112084F0FAC0112084FC9
:101C73002BAC0112084FD6AC0112084F15AD01125F
:101C8300084F1FAD0112084F6EAD0112084FEFADA3
:101C93000112084FAEAE0112084FB7AF0112084F41
:101CA300EBB00112084FD9B10112084FF1B1011283
:101CB300084F4CB20112084F6AB20112084FB2B278
:101CC3000112084FD9B20112084F74B30112084F21
:101CD3003AB40112084FCCB40112084F46B50112B1
:101CE300084F60B60112084F0DB70112084F35B8FF
:101CF3000112084F85B80112084FE9B80112084FC5
:101D03004BB90112084F79B90112084F9DB901125D
:101D1300084FD2B90112084F03BA0112084F36BA5D
:101D23000112084F56BA0112084FBEBA0112084FEA
:101D3300B2BB0112084F0DBC0112084F36BC011291
:101D4300084FBEBC0112084F41BD0112084F6CBDC4
:101D53000112084F51BE0112084F3DE40312084F10
:101D630075E40312084F96E40312084FD8E40312F4
:101D7300084F3AE50312084F44E50312084F54E5B0
:101D83000312084F8FE50312084F6FE90312084F40
:101D93005CEB0312084F42ED0312084FD9ED031217
:101DA300084F7BEE0312084F24810212084FA281D1
:101DB3000212084FFE810212084F49820212084F95
:101DC30064820212084F8F820212084FAC82021201
:101DD300084FB8820212084F4F840212084F6884DA
:101DE3000212084FED840212084F00850212084FB9
:101DF3001F850212084FC3850212084F448702123F
:101E0300084FF7880212084F8D890212084F9089F4
:101E13000212084F008A0212084F1E8A0212084F4C
:101E2300B58A0212084FFD8A0212084F008B021274
:101E3300084FC68B0212084F338C0212084F598C7D
:101E43000212084FE48C0212084F028D0212084F4F
:101E5300488D0212084FFC8D0212084F468E021263
:101E6300084F758E0212084FD28E0212084F078F49
:101E73000212084F338F0212084F418F0212084F8C
:101E83008E8F0212084FFE8F0212084F47900212E4
:101E9300084F93900212084FBF900212084FCA9046
:101EA3000212084FE8900212084FD3910212084F12
:101EB300DD910212084F18920212084F2892021263
:101EC300084F31920212084F85920212084F9992DD
:101ED3000212084FC8930212084FDD930212084FF3
:101EE3006B940212084FB0940212084F3C950212F1
:101EF300084F47950212084F89960212084FA4967D
:101F03000212084FF0960212084F5F970212084F11
:101F130098970212084FB2970212084FF4970212D1
:101F2300084FC49A0212084F719B0212084FDE9B9E
:101F33000212084F1E9E0212084F369E0212084FCD
:101F4300399E0212084F459E0212084F599E0212F3
:101F5300084F619E0212084F949E0212084F969FEB
:101F63000212084F1DA00212084F8DA00212084F43
:101F73000FA10212084FD0A10212084FEFA10212C3
:101F8300084F90A20212084FEDA20212084FF0A2CE
:101F93000212084F64A30212084FB3A40212084F9F
:101FA300B9A50212084F44A60212084F5FA70212F6
:101FB300084F27A80212084F58A80212084F7BA8FF
:101FC3000212084F84A80212084FB3A80212084F46
:101FD30043A90212084FF9A90212084F6EAA02126E
:101FE300084F15AB0212084F8AAB0212084FC1AB60
:101FF3000212084FFFAB0212084FE6970312084F75
:1020030079970312084FAA950312084F6895031294
:10201300084F76940312084F4A940312084F019411
:102023000312084F3E930312084F28900312084FE0
:10203300EB8D0312084FB88D0312084F5F8D031207
:10204300084FF28C0312084FB18C0312084FEA8B2E
:102053000312084F848B0312084F238B0312084F7C
:10206300C38A0312084F9A890312084F2E89031259
:10207300084F86880312084F81880312084F75881A
:102083000312084FA8840312084F329D0412084F0D
:10209300959C0412084F2A9C0412084F169C0412A4
:1020A300084F669B0412084F6C9A0412084F8D99CF
:1020B3000412084F82840312084F20840312084F2E
:1020C300C1830312084FAE830312084FE396041231
:1020D300084FA3830312084F72830312084FFD8036
:1020E3000312084F70800312084FF5950412084F2E
:1020F3002C800312084FA3ED0212084F0080031235
:10210300084F1BFA0312084FC6F90312084F99F937
:102113000312084F66F90312084F3EF90312084FE2
:10212300DFF80312084FBFF80312084F8AF80312AF
:10213300084F4EF50312084F23F30312084F13F110
:102143000312084F90F00312084F44F00312084F94
:102153008A950412084FF8EF0312084F52EF031247
:10216300084F8E9A0300000080FBE47300013636AB
:10217300010100010201000103010001040106063F
:1021830005020000070100340801000F09040101E2
:102193000D0100FF0E08000017020000190100FFE7
:1021A3001A0100011B0100FE1C0100081D020000B2
:1021B3001F01000120010001210200002301000F83
:1021C300240200002601000127010008280200FF65
:1021D3002A0100072B0102402C0100002D01000100
:1021E3002E0100012F0100FF30010B1D31080000FB
:1021F3003A0100083B01000F3C0100013D0100FFD3
:102203003E04000042040000460400004A040000AB
:102213004E04000052040000560400005A0400005B
:102223000000000020011D840000030020011E8423
:102233000000040042014A820000050042015B8263
:102243000000060042016C820000070030011B847D
:102253000000100042039216000011003003A31681
:10226300000012001003A4160000FDFF21011784D3
:10227300030000002103A5160300FDFF214117847D
:10228300020400002905A716020401002901158490
:1022930002040200290113840204FDFF21011784B3
:1022A300010371030103010301030103010322037A
:1022B30002030103100300030003000300030003F0
:1022C3000003000342030003240306030003000387
:1022D3000403120325032303250323030403040335
:1022E300000300030003440300030003230300036C
:1022F3006503210035038103000305030003000385
:1023030000030003250323030101710101010101FE
:10231300110101013101010101018001100161017C
:102323003B00140063017301720162014301000168
:10233300130106013D0135000401120100010001F2
:102343000001000104010401330133013C01440194
:1023530032013600000100016501000135008101F1
:1023630000010501820183010001030071003001B6
:10237300600011007000310220035004800010003F
:1023830061000000140063007300720062004300E8
:10239300000013000600000000000400120000000B
:1023A30000000000000004000400370037003C0276
:1023B300440000000000000000006500000035003C
:1023C3008100000005000000830000000302710289
:1023D3003001600211027002010202020202800255
:1023E300100261023A004100630273027202620248
:1023F3004302000213023800000200020402120228
:102403000002000200020002040204023700370047
:102413003C0244020002390000020002650200028D
:1024230035028102000205028202830200023600A5
:102433000100060000000F00000000000000000083
:102443000000000003FFFF00000403FFFF0000FF84
:10245300FF0FF4010005C4040320000100000B007A
:102463000000000000000003010F00000000000056
:102473000000000000000000000000000000000059
:102483000000000000000000000000006413AC1313
:102493006A137A127013B2137013BE1376137A127F
:1024A3007013B2137C137A120000000082137A12A5
:1024B300000000000000000088137A128E13C4137A
:1024C30094137A12000000000000000000000000D6
:1024D3009A13D613A0137A129A13D613A0137A124F
:1024E3008E13C413A6137A12000034160100341697
:1024F3000200AA15028062210300B0150400B6157C
:102503000480BC150500C2150600CE153100E01588
:102513003300E6153400EC15FFFF000007ECFDFD6A
:10252300FDECDCDCCCBCACAC9C9C8C7C7C6C6C5C37
:102533005C5C4C4C3C3C2C2C1C1C03EAF5E5D5D5CF
:10254300C5B5A59595858575756565555545453518
:102553003525251515050AB61B02801B058C1B079F
:10256300861B0C681B0D741BFF000000160F000078
:102573000B150B020002220F3300000E0FD0D1D235
:10258300D3D4D5D6D7D8D9DADBDCDDDEDF5A696719
:10259300426565416C6C69616E6365303930301634
:1025A300181920231A1C1E3000034D4C4651181ACB
:1025B30025050200011916181616182303003030DA
:1025C30017181921301B1D1F30003C40423A3F3F72
:1025D300392F47300C0E020B040B0A0708000F02B9
:1025E3000402010101010902000000000000E803E8
:1025F300000000BE040A01000E000300E803090303
:10260300100310FF040A0C041E0828020C05081509
:102613001E04C082C083120C389017DF7446F0A3E7
:102623007419F09017E1744CF0A37419F09017E348
:102633007452F0A37419F09017E57458F0A3741949
:10264300F002567F74F71203AB9017D3E4F0E990CE
:1026530017D2F07CAA7D177AD47B17121256901AE0
:102663002FE09017DCF09017DD7495F0A374170238
:10267300365474F01203ABEAFEEBFF54807003028E
:1026830027E69017D212428970030227DFEA241B40
:10269300125301707CEA241F12530164137002A3C6
:1026A300E0706E8A828B831228349017ED12507E6D
:1026B300750A00750B00800D1234B31264D7121122
:1026C3006CAA0EAB0FEA4B60488A828B83E0650CE1
:1026D3007004A3E0650D702C8A828B83A3A3A3A34C
:1026E300E0F50EA3E0F50FE50A450B8A828B83A381
:1026F300A3A3A360C3124474850A82850B83A3A397
:10270300A3A380B78A0A8B0B8A828B8312507A80A9
:10271300B4E508242A125301FCE5082402F8E43541
:1027230009F9E8FAE9FB9017ED12291BA3A3E0646A
:1027330002703C8A828B8312507E800B888289834D
:10274300A3A3A3A3124474E849601F88828983E08A
:102753006A7003A3E06B70E488828983A3A3E06CAF
:1027630070DA901A3312553C806BECF9121982859A
:102773000882850983E06401704FE5082418122854
:102783001D120870125DD71206D0E5082412122814
:102793001D120870E50812427D12086CE508240B2F
:1027A300125DDB1206D4E5082417123CB3E50824B6
:1027B30002FCE43509FDE5082419FAE43509FB12A6
:1027C300213E740A12089A800CE064027007AA087A
:1027D300AB09121A90AA08AB091210DCEEFAEF64E7
:1027E30080802DEA5402600C901A3C7401F0EA6474
:1027F30002FA8023EA5408601A12197CEA4B700B20
:102803009017EF125CB27A0812282AEE6408FAEFE6
:10281300FB80047A007B00026466F582E43509F5E7
:1028230083E0F50A780A22FB9017D2E0F912122608
:1028330022A3A3E0F50CA3E0F50D227B009017D2B1
:10284300E0F912121A74042274F41203AB8A088B8F
:10285300098A828B83A3A3A3124E7A123EF338F51F
:1028630083E02409FA1263F7700302290E8A828B2C
:10287300837402124EEB85088285098312291BE8B3
:10288300F0A3E91260798A828B83A3A3A3A3A3A3F2
:10289300A3A3F0E5082403F8E43509122910123E36
:1028A300F33AF583E08E828B83A3A3A3A3F0EE24F4
:1028B30009FAE43FFB8E828F83A3A31257EAF583C1
:1028C3008882E0A2E58E828F83A3A3A3A3A35004EF
:1028D30074018001E4F0E5082403F5828983125032
:1028E3007EEA12524E3BF5831263BE120868123E13
:1028F300F23B12589A8E828F83A3A31271D01208CF
:102903009AEEFAEFFB9017D21264448016F988828C
:10291300F583E0FAA3E0CA2212521BA3A322740296
:1029230012089A7F0402060774F21203AB8A088B1B
:1029330009ECFAEDFB740E120B47E0FC120C688AEB
:102943000C8B0DAE0CAF0DEA4F6030AC08AD091225
:102953000C56E96026AC08AD09EEFAEFFB120C5CED
:10296300E970148E828F831243F8FAEFFB120C5036
:10297300AA08AB09120C807900800279B402516A6B
:1029830074F01203AB74F6120932EAFEEBFF8C0803
:102993008D09750FB3851882851983E4F0750E00D0
:1029A3008002050E902607E493F8E50EC3984003D2
:1029B300022AAAAA0E7B00120CA48A0A8B0BEA4BEA
:1029C30060E08A828B83A3A3122AB128F0F8C3EEB6
:1029D30098EF940050CC7C157D007900AA08AB09D0
:1029E3001210C4850A82850B83A3A3A3A312650ACD
:1029F300E0F8EEC3982925E0F8E433F9E50A28F571
:102A030082E50B39F583A3A3A3A3A3A3123EFDA3DE
:102A13001253568A0C8B0DAC0CAD0DAA08AB0912E0
:102A23001256850A82850B83A3E06401700A125D46
:102A3300D77401123F1B80447401120912850A8264
:102A4300850B8312507C120C8CE9603D7409120BC8
:102A530047E0C0E0125DD7D0E0F07409120B47E005
:102A6300640370137401120912E508240BFAE435A8
:102A730009FB12125680127401120B47124474E5BB
:102A83000812535035091264D5850A82850B8312C7
:102A93005DE3123F1BA3A3E0C0E0E5082414125D2D
:102AA300DBD0E0F0750F00A90F740A026463A3A3DF
:102AB300A3E0F8851882851983E02274F71203AB2B
:102AC300E9FE8A828B83A3A3A3A3A3A3E054086094
:102AD300338A828B83A3A3A3A3A3A3E0540260211D
:102AE3008A828B83A3A3A3A3A3A3A3A3A3E06406C4
:102AF300600F74E96E600A74CD6E600574F06E70D9
:102B030003121964024A6A74F01203AB74EF1209D8
:102B130032740F120B47125B967408120B47E9F0DD
:102B2300ECFEEDFF7405120B47124832124A56A30E
:102B3300E0F9120C747406120B47125B96740612BA
:102B43000B471252A87003022DC51241A1E0FA747B
:102B530006120B47E0F91218A4122E25F8A3E0F988
:102B6300E8497003022DC5EE2403F50AE43FF50B93
:102B7300EE2406F508E43FF5097C00850882F58319
:102B830012507E850A82850B83E0F9120C7A740356
:102B9300120B47125B96850A82850B83E0C0E085A2
:102BA3001882851983122E1ED0E01252C5F985189A
:102BB300828519831234BA125246122AB4FAA3E058
:102BC300CA2407F582E43AF583E8F0A3E4125BA193
:102BD3002406F582E438F583E41264E1124E6B12A5
:102BE3000868EE123EF33F12589A7403120B471211
:102BF3004E7A24091271CA12089A7429120B4712C9
:102C030065041229151252E43A1264D5742B120B7F
:102C130047E0C0E0851882851983125282D0E0F024
:102C23007402120B47E4F07425120B477808120A5A
:102C3300F0022D1C7403120B471258648882F5832B
:102C4300122E0DA3A3A3125361FB120C92850E82C5
:102C5300850F83A3EAF0A3EBF07403120B47122E44
:102C63001EA3122E0D12557DA2E6500F850E8285EE
:102C73000F83A3A3A3A3A3E0D2E1F07405120B4730
:102C8300E0706B850E82850F83A312447490182D18
:102C9300E0687003A3E0697055850E82850F83A3F6
:102CA300A3A3123ACA750C00780C120870780812A4
:102CB30008647429120B47E0F50C780C1208707441
:102CC30027120B471206D490183A1206D4790074CF
:102CD30019120B4712504E121AD8740A12089A8509
:102CE3000E82850F83A3A3A3A3A3E04405F074027C
:102CF300120B47E004FC8E828F831250788E828FF2
:102D030083A3A3A3E0F9120C7A7403120B47125B9B
:102D1300967402120B47E004F07403120B4712522D
:102D2300A860677402120B47E0FA7406120B47128D
:102D33004474C3EA98E49950517402120B47123059
:102D4300F7851882851983E028F8A3E039F9E82488
:102D53000FF50EE439F50F850E82F583E4F0740365
:102D6300120B47122E1864016003022C37740512EC
:102D73000B477401126451F07403120B4712566F20
:102D830012311AE8F0A3E9022C5B851882851983B6
:102D930012507E1218AA8518828519831206D474DC
:102DA30026120B47E0FD7425120B47E0FC740A1250
:102DB3000B47E0F9EEFAEFFB12195E740212089A60
:102DC30080438E828F83A3A3A3E0C0E0740C120B15
:102DD30047D0E0F01262BBE0C0E0740D120B47D0A5
:102DE300E0F07406120B471252A87009740E120B0E
:102DF3004774B98007740E120B477410F0740912EC
:102E0300090A121AD27411026463E0850E82850FD7
:102E130083A3A3A322E01252BBE022E01252BBA37E
:102E2300A322851882851983EAF0A3EB1252B122FB
:102E330074F01203AB74E11209327404120B47E904
:102E4300F07403120B47ECF07402120B47EDF08A97
:102E53000E8B0F742F120B47122836AA0CFB121875
:102E6300987401120B47E9F0AA0CAB0D12189E746B
:102E730001120B47E070030230F285188285198333
:102E8300E480158E828F83A3A3A3A3A3E0D2E3F0F0
:102E9300851882851983E0041263AAF88518828550
:102EA3001983E0C39840030230E97401120B47E031
:102EB30070030230E98518828519831230F7E50C17
:102EC30028F8E50D39F9E8240FFEE439FF8E82F581
:102ED30083A3A3A3A3A3E0A2E040B5750800750AEA
:102EE30008750B007402120B47E060037508207C21
:102EF300087D007900740512090A1210C48E828FAE
:102F030083E0603E90187DE06401701AE508D2E327
:102F1300F508750B10123107120B47E8F0A3E912FD
:102F2300533074FF807643080C750A0C8E828F83AE
:102F3300A31231121264D77405120B4774FFF0A366
:102F4300805A7404120B47E06009E508D2E6F508DD
:102F5300750A0A8E828F83A3E064FE7003A3E0F4F4
:102F630070307412120B477404125E01F8741D1250
:102F73000B47E8124EEB741212090A1217D27D00A6
:102F83007C0079007415120B47AA82AB8312161CBE
:102F9300800B123107120B47E8F0A3E9F074071214
:102FA3000B47E508F012418FC0E07409120B47D0BC
:102FB300E0F0740A120B477401F0740512090A1247
:102FC3001A967411120B47E060030230C7740D1296
:102FD3000B471252C08E828F83A3A3A3A3F0740D59
:102FE300120B47124EB9E50AF0A3E50BF074031276
:102FF3000B47E0C0E0124E4BD0E012557D601190BC
:10300300187DE0C0E0740D120B47124E94D0E0F02F
:10301300740D120B47124474850C82850D83A3A390
:10302300A3A3A3123100241C125B901264F112318A
:103033000212552F391262DAC0E0124E32D0E0127A
:10304300639FC0E0740D120B47124978D0E0126001
:10305300A0C0E0740D120B4712496ED0E0F0740D5E
:10306300120B47123112123100242A125B90850E83
:1030730082850F83A3A3A3A3A3A3A3A3E0125B89C6
:1030830012417EC0E012495AD0E0F0740D120B4792
:1030930012507E850E82850F831263B52428F58234
:1030A300E43B1264D51241871263BE1208681258BA
:1030B30093EA125B223B1271CE12089A740512092D
:1030C3000A121A9C8E828F83A3A3A3A3A3E0D2E048
:1030D300F07411120B47E06003022E867401120B89
:1030E30047E014022E927900AA0CAB0D12196A74F0
:1030F3001F026463E075F007A4F8A9F022A3A312EA
:103103005082E8228E828F83A3124478740522E0D2
:1031130012311AA3A3A322F8A3E0F9850E82850F27
:1031230083A32274F01203AB74E8120932E9851801
:1031330082851983F08A0E8B0F8A828B83A3A3A3C4
:10314300A3A3A3A3A3E0F91218C28A088B09EA4B2D
:103153007003023203E50E1252621241B6123B951E
:10316300851882851983E060030232067C04850E8C
:1031730082850F83A3A3A3A3A3A3A3A3E0F9121898
:10318300C8EE4F607B8E828F83A3A3A3A3124474E4
:103193007407120B47125CC71244747409120B476D
:1031A300124F1BC0E07411120B47D0E012607EA3D4
:1031B300A3A3A3A3A3A3124474740F120B47126413
:1031C300D77412120B47E4126459C8241FF582E422
:1031D30038F583125860C413135403FC70027C0443
:1031E3008E828F83E0F9780812086C742059FD747D
:1031F3004059F9740312090A12195E740212089AEB
:103203000264617C08850E82850F83A3A3A3A3A315
:10321300A3A3A3E0F91218C88B0BEA4B7003023186
:1032230084EE4F60DB851882851983E0F50C780CFA
:10323300120870850882850983A3A3A3A3A3A3A36C
:10324300E0F50C780C1208708A828B83A3A3A3E0A9
:10325300FB8A82850B83126CED8A82850B83E0FAED
:103263008E828F83A3A3E0F9122144740212089A79
:1032730002318874F71203AB74FA120932E9FE784B
:103283000179017F00800379000F1251FAE0FCEF0E
:10329300C39C5026EF75F007A4FC85F008AD08EA3F
:1032A3002CFCEB3DFD1247EAE0A2E050DA540C603F
:1032B300D6E0A2E250D3780080CF8A828B83A3A387
:1032C300A3A3A3A3E0703DE9A2E0400574016E70DF
:1032D300338A828B83A3A3A3A3A3A374011235CA46
:1032E300E0C0E07403120B47D0E0124849E0C0E0AD
:1032F3007404120B47D0E0F07405120B47E8125820
:103303003C121AD27406024A67C082C08379011242
:10331300196A02567F74F41203ABEA4B901A3C60AD
:1033230019E4F08A088B09F50AF50B78081208648A
:103333007A0212283E12089A800A7401F07A027BFC
:103343000012282B02292674F01203AB74F312091E
:10335300327403120B47E4F0A3F09017ED123B9580
:103363007401120B47E4F0A3124EF004F0901827F7
:10337300E0A2E3500302343D1235BE7409120B4739
:10338300120B0C7409120B477808120AF09017EF0E
:10339300780812091A7405120B477808120AD21218
:1033A30034C17405120B477808120AB250077A0128
:1033B3007B000234AE7405120B47780C120AF090AE
:1033C3001A32E0F509780C790812033CA80CA90D10
:1033D300901A33E0C398E4995003E08001E885181C
:1033E30082851983F07409120B477808120AF0C01A
:1033F30008C009C00AC00B7405120B47780C120AE7
:10340300F01234C1780C790812033CE4F50AF50B89
:10341300D00FD00ED00DD00C780C79081209B190D2
:1034230017EF780C120AD280111234B31264D7EE5C
:10343300FAEFFB12116CAE08AF09EE4F60658E8296
:103443008F83122AB1C398502DEE2403F8E43FF979
:10345300E0FA88828983E0C39AF060237403120B35
:10346300471245D47401120B47EEF0A3EF125CE24E
:10347300FEA3E0FF80C48E828F83A3A3A3E4F08E18
:10348300828F831271877401120B471252A88E82A6
:103493008F83A3A3A3A36091125CBB120B471234C7
:1034A300BA80897403120B4712507E740D02646351
:1034B3001244789017ED22125880A3A3A322901AE6
:1034C3003112718FE4F50AF50B2274F01203AB8A03
:1034D300088B09890A780079009017ED123B95FB58
:1034E300EE4B601E088E828F83A3A3A3A3125048C2
:1034F300601008E87001098E828F83123B91EA4FB6
:1035030070E3901A3412507EC3E89AE99B40030299
:1035130035B17A061235B4A80CA90DEA4970030235
:1035230035B18A828B83E508F0A3E5091235D3E52B
:103533000AF0901A331252021235CAA3E4F0A3F030
:103543009017ED125048600D8E828F83A3A3A3A31F
:103553001264D780179017ED1264D7901827E0A252
:10356300E340091235BE9017EF120B0C901827E0B9
:10357300A2E3503A7A087B009017D2E0F912122C9A
:10358300EA4B4C4D7028901A31E0F508A3E085080A
:103593000CF50DE4F50EF50F780C1208647A087B30
:1035A300009017D2E0F9121220740412089A0264F0
:1035B300667B001211668A0C8B0D22121238EAF810
:1035C300EBF9ECFAEDFB221235CE221235D3A3220E
:1035D300F08A828B83A3A322C082C083E9901A3D21
:1035E300F09017E774A0F0A37419F09017E974B280
:1035F300F0A37419F09017EB74C4F0A37419F002DC
:10360300567F74F71203ABEAFEEBFF8908EA4F70AB
:1036130003120CE69017F31252A870089017F38068
:103623001E12447488828983A3A3A3A3A3A3A3A381
:10363300A312431FA3A3A3A3A3A3A3A3A370E2EE75
:10364300F0A3EF123658A3A3A3E4F0A3123658E570
:1036530008F0024A6A12365C2212366022F08E8229
:103663008F83A3A3A3A3A3A32274F71203ABE9FD40
:103673009017F3800D88828983A3A3A3A3A3A3A395
:10368300A3A31252A8603488828983A3A3A3A3A30C
:10369300A3A3E06D70DF88828983A3A3A3A3E06A59
:1036A3007003A3E06B70CE88828983A3A3A3A3A333
:1036B300A3E06C70C0E8FAE9FB80047A007B0002A7
:1036C3004A6A74F71203AB9017F3123B959017F302
:1036D3001263B9687002EB697017EE240912446E25
:1036E3009017F31264D79017F3123B958030123B77
:1036F30088EE4F60298E828F83A3A3A3A3A31263B3
:10370300B5687002EB6970E68A828B83A3A3A3A3D7
:10371300A3A3A3A3A3124964A3A3A31264D712115F
:103723006CEEFAEFFB024A6A74F01203AB74F912FF
:1037330009328A0C8B0D8A828B83A3A3A3A3A3A331
:10374300A3A3E0602F6401602B8A828B83126088BD
:103753007022850C82850D83A3A3A3A3A3A3A3A394
:10376300E0640370147402120912AA0CAB0D121A4E
:1037730042E97016790202392D850C82850D831278
:1037830044747402120B471264D7E50C24111264BB
:10379300E924341257F61211668A088B09AE08AF72
:1037A30009EA4F700302392B7C347D007900121033
:1037B300C4AA18AB19850C82850D83A3A3A3A3A365
:1037C300A3A3A3A3E0F9122102851882851983E03C
:1037D300C0E0123932D0E0F0EE242EF50EE43FF5CE
:1037E3000F7401120B47E0850E82850F83F0790178
:1037F300EEFAEFFB12198E850C08850D09750A0088
:1038030078081208687C1E7D00EE240B1263711287
:10381300089AEE2432FAE43FFBEE2434F8E43FF94D
:103823008A828B831264D7E50C2411FCE4350DFDE9
:103833008C82F583124EB424301264D1E50C124706
:10384300FC1265201271C41208688C828D83126C7D
:10385300EE8A828B831271D012089A7402120B477C
:103863001244DDA3A3A3A3E8F0A3E91255778E8244
:103873008F83A3A3A3A3A3A3A312557704123CD2BC
:10388300242CF8E43FF9E8FA7508FF750900850E62
:1038930082850F83E078081209D98A828983E50833
:1038A300F0EE242B123CA97404120B47E4F0E50C50
:1038B30024151264E9A2E074055007120B47740142
:1038C3008004120B47E4F0EE2429F508E43FF509E0
:1038D300740412090A12211AE924FE850882850953
:1038E30083F0EE243012525412393A120263E88EF6
:1038F300828F83A3A3A3A3A3A3A3A3F08C828D830B
:1039030012393A120263EA4B600F8E828F83A3A3AC
:10391300A3A3A3A3A3A3E004F0EE24201252F5442F
:10392300081241F37900800279107407026463EE90
:10393300125B223FF58322123F05E0FA7B002274DB
:10394300F41203ABEAFEEBFF124176125B96901A78
:103953002BE0F8EE242D1252F5C3984003023AAB44
:10396300123AB37012EE242D1252F50412523EC0D5
:10397300E0123C9FD0E0F0123ABBFA7900800109D3
:10398300EE242E1252F5F8E9C398502675080175F6
:103993000900E978081209D9123AB3550860E0E939
:1039A3002AFA750801750900E978081209D9E04572
:1039B30008F0EE24291252F5FBEE2430F582E43FA1
:1039C300F583EA8BF0A4F8ACF0E42CF9E098F8A3C3
:1039D300E099F9EBFCC3E89CE99400EE403124291B
:1039E3001252F5F8123AB3602C123932123ACAA3C2
:1039F300E4F0EA7047EE24201252F54420124F1FE0
:103A0300C0E012522CD0E0125236FCA3E0805512D3
:103A13003CA074FFF090181DE0FC901A2E123AC1DE
:103A2300ADF075F064A4FCABF075F064EDA42BFD70
:103A33008E828F83A3A3ECF0A3ED80B5EE24201236
:103A430052F554DF125227EAF0FCEE2429F582E402
:103A53003FF583123AC1FCADF0EE24321252F52C3D
:103A6300FCA3E03DFD126369ECF0A3ED125E0AC016
:103A7300E0EE2425F582E43FF583D0E0F0EE241C4C
:103A8300F582E43FF583E8124EEB9017F51252A846
:103A9300600AEA12597F12216DE97011EE240BFAC4
:103AA300E43FFB121A1880057BE9123CBD0229266C
:103AB300EE242B125343F422EE1251E8E022E0F5F8
:103AC30008EC8508F0A42212530FA3A3F02274F488
:103AD3001203AB9017F3123B951212388A0A8B0B21
:103AE30078FF79FF8020E0C39AFCA3E09BFDC3EC41
:103AF30098ED99500E8E828F83A3A3E0C39AF8A307
:103B0300E09BF9123B88EE4F60538E828F831250F5
:103B13007EE50AC39AFAE50B9BFB126CE8C3EA9CA9
:103B2300EB9D8E828F83A3A340BCA3A3A3A3E064D6
:103B330002701712419860091241A112507E1210AF
:103B4300DCEEFAEFFB12199A8007EEFAEFFB12197B
:103B5300A67A017B00901A3D12527C802574FF687F
:103B6300700374FF69601B88088909E4F50AF50B83
:103B730078081208647A017B00901A3D12284312D8
:103B8300089A0229268E828F83A3A3A3A3A3A3A3A8
:103B9300A3A3E0FEA3E0FF2274F31203AB8A088B16
:103BA30009ECFAEDFB890C7C01E5082411123CB306
:103BB3001219948A0A8B0BAE0AAF0BEA4F700302F9
:103BC3003C9AE50C6003023C9AE508241312530166
:103BD300F8EA123ABC686003023C9AEA1251F11205
:103BE30053228E828B83A3A3A3A3A3A3A3A3E0FA4D
:103BF300E89AE99400C365D0334012E5082414120F
:103C03005301F470087B00123CBD023C9AE5082482
:103C130014125301F47049EE242BF8E43FF9E8FA47
:103C2300E9FBEE242EF8E43FF9E8FCE97508FF759B
:103C330009008882F583E078081209D98A828B8388
:103C4300E508F0EE242C123CA98C828983E0F8125B
:103C53003ABB28F0EE242DF582E43FF583E480217E
:103C6300E5082414F8E43509F9E0C0E0EE242CF566
:103C730082E43FF583D0E01257CEC0E0123C9FD0E0
:103C8300E0123CD212393312530AA3124EEB7A01DB
:103C9300FB901A3D12527C7F05020607EE242BF59A
:103CA30082E43FF58322F582E43FF583E508F022C1
:103CB300F582E43509F583E0F922EE242212534319
:103CC300FA123EDF126137EEFAEFFB12199A22F075
:103CD3001212388E828F83EAF0A3EBF0EE2274F097
:103CE3001203AB74FB1209327403120B47124EE535
:103CF300E9851882851983F08A0A8B0B8A828B8364
:103D0300A3A3E0F91221268A0E8B0FEA4B70077AE0
:103D1300007B00023EDA7A121267117003023ED66C
:103D23007C127D0079001210C4740112090A850AFD
:103D330082850B83A3A3E0F9122102E508240FFE79
:103D4300E43509FF7402120B4712530FF07902AAEC
:103D530008AB0912198E7403120B47125B6A123EE9
:103D6300FD123F152411123EE9850882850983A3BC
:103D7300A3A3A3A3A3A3F0750CFF750D008E828FDD
:103D830083E0780C1209D9E508240C125DDBE50CFD
:103D930012644AF8A3125980E0C0E0E508240B122C
:103DA3005DDBD0E0F0E50A123EF3123EECFAE508E3
:103DB300240D125DDBEAF0E50A1247FC123EEC8AA1
:103DC300F0A4A9F02427FAE439FB1210D68A0C8B4D
:103DD3000DAE0CAF0DE508123EF33509125B94EA04
:103DE3004F7003023EC98A828B83741A124EEB8A88
:103DF300828B83A3A3F0A3123F29125217125CC133
:103E0300120B47126CEEEA1264B1122108850A8282
:103E1300850B83A3A3A3E0C0E01252F9D0E0F09096
:103E2300183A124EB42410123F0F1247CB350BF53C
:103E330083124EB412588AE8F0A3E9123F29124EB6
:103E4300B01262BCE8F0A3E9123F1BE0C0E0123EEF
:103E5300DFD0E0F0E50A240C123EE9C0E0EE1247A1
:103E6300CB3FF583D0E0F07415120B471262C9C043
:103E7300E01264A9D0E0125DFCC0E01262AFD0E0B2
:103E8300124851C0E0124E55D0E01252ADC0E012BC
:103E93004E3CD0E0F07417120B47120B18EE241AA5
:103EA300F582E43FF583120B0CEE2427F8E43FF987
:103EB300EE2422123F0F1257C0123EECC0E01263F1
:103EC3008BD0E0F0800DAA08AB0912199A7508008F
:103ED300750900AA08AB097405026463EE2414F59E
:103EE30082E43FF58322F582E4350BF583E022EA91
:103EF300123EF7222410F582E422123F05A3A3A366
:103F0300A32212447C85088285098322F582E43F3B
:103F1300F583124F15E50A22123F1F22F0850A820C
:103F2300850B83A3A322123F1FA3A3A3A32274F091
:103F33001203AB74FE120932851882851983124E5F
:103F4300E58A0E8B0F890DC200EA1241ADE0F50C34
:103F53009017F51252A8600EA90C12598012216D08
:103F6300E960030241717C021241D212417EF912CF
:103F730019948A088B09AE08AF09EA4F7055850E6C
:103F830082850F83A3E0A2E04003024171741412FF
:103F93000B471206D07416120B471206D4A90D74E0
:103FA30006120B47126CEEAA0EAB0F1219B8740669
:103FB30012089A8A088B09AE08AF09EA4F70030208
:103FC30041718A828B83A3A3A3A3A3A3A3A3E50C19
:103FD3001241F3AA0C8E828F83A3A3A3A3A3A3A34B
:103FE300A3E024FFF8E434FFF9E86A497002D20041
:103FF300124198700302412D850E82850F83A3E041
:10400300A2E05003750C001241E0E50C98E499C35B
:1040130065D033401CE0F8EE240E1252F52CF075F7
:1040230008FF750900EC78081209D9EE240C123C3C
:10403300A91241871263BE120868125893EE240D29
:104043001252F5F508E50C8508F0A4FAABF0124E10
:10405300772422F582E438F583E02AFAA3E03BFBD8
:104063001264FE12089A7508011241BB78081209FE
:10407300D91252F24508F0A200506BEE240CFAE478
:104083003FFB7508FF1241BB0478081209D98A82E5
:104093008B83E04508124ECBF8E50CF508E885085C
:1040A300F0A4F8A9F012418FFCE82CFCE439FD12CE
:1040B3004E772420F582E438F583ECF0A3ED125615
:1040C30075F47022EE240BF508E43FF5091241A1C3
:1040D30012507E850882850983126444850882858F
:1040E300098374FF8043124176125B9690181DE09A
:1040F300FA901A2E1241C9FAABF0901A2B1241C949
:10410300F8ACF08508F0EBA42CF9EA28F8EB39F9C0
:10411300E875F064A4F8AAF075F064E9A42AF98EAE
:10412300828F83A3A3E8F0A3E9F0AA0C1241E01263
:104133006494E86A7001E9600CEE240C123AB660EC
:1041430004A2005029EE240E1252F5C0E0E50E122F
:1041530041ADD0E0F01252F2C0E0E50E241412415A
:10416300B3D0E0F0AC0EAD0F1241D2121A067402B6
:104173000264631212388E828F8322E50E24111299
:1041830041B3E022E50E240E1241B322E50E2410C2
:104193001241B3E022EE125350125346F42212415D
:1041A300A522EE123EF73FF5832224131241B322D8
:1041B300F582E4350FF58322750900125340F5F0BB
:1041C300E50C84E5F022E0F508EA8508F0A42285F1
:1041D30018828519831258ADFAA3E0FB22EE240E50
:1041E300125343F8125340FCE82CF8E43400F9224C
:1041F300F07A017B00901A3DE0F912111822C08277
:10420300C083901A3D12644402567F74F41203ABC8
:10421300EAFEEBFF5480704BEAA2E050561219AC51
:10422300EE6401FAEF80498A828B83E06401702C8B
:10423300EA125DD91206D0EA12427D12086CEA2412
:1042430012123CB3EA2402FCE43509FDEA2419FA0C
:10425300E43509FB1219BE740612089AAA08AB09C1
:104263001210DC901A3D12428970BCEEFAEF6480A2
:10427300FB80047A007B00022926240FF50AE4352B
:1042830009F50B780A22E0F91210EE8A088B09EA85
:104293004B2274F21203AB890B8A088B098A828B37
:1042A3008312507E1219D6EA4B600479B8806A12E1
:1042B30019F4E9F8902605E493F9E8C399400479E1
:1042C300B280567A151235B4AE0CAF0DEA4F7004B6
:1042D300791080458A828B83E4F0A31235D3E50BF2
:1042E300F0750A0078081208687C127D00EA24033E
:1042F30012637112089A9017F71252A87008901758
:10430300F7800C1244748882898312431F70F4EE81
:10431300F0A3EFF01219FA790002516A125082EAFF
:104323004B8882898322C082C0839017F780048CD4
:10433300828D83126CEEEC4D60288C828D83A3A357
:10434300E069600574FF6970E68C828D83A3A3A383
:10435300E06A7003A3E06B70D6EC2403FAE43DFB40
:1043630080047A007B0002567F74F71203ABE9FDE9
:1043730074FE6D70047C0180027C009017F7800945
:104383006D70027C01888289831252A8601F888223
:104393008983A3A3A3E06A7003A3E06B70E7ECA295
:1043A300E088828983A3A3E050D6F9800279FE02D4
:1043B3004A6A74F61203ABE9FF7E009017F7802C6C
:1043C30088828983A3A3E06F701E88828983A312E6
:1043D30043F825E0FCE433FDEA2CF582EB3DF5835D
:1043E300E508F0A3E509F00E888289831252A870CC
:1043F300CFEEF9800CA3A312718FEE227402120880
:104403009A7F0202060774F71203ABE9FE9017F7CF
:104413001244747C007D00800BE8FCE9FD888289EE
:1044230083124474E849603E88828983A3A3E06EC3
:1044330070E788828983A3A3A3E06A7003A3E06B78
:1044430070D7EC4D88828983700812507E9017F7DD
:104453008003124A4A125B96E8FAE9FB12116C12C6
:1044630019FA790180027900024A6AF582E43FF57C
:10447300831244782212447C22E0F8A3E0F92274E8
:10448300F51203AB890A9017F712507E7E007F0066
:1044930080171244DDE8F0A3E9125675F508A3E08E
:1044A300F50912116CAA08AB09EA4B60288A828BC2
:1044B30083A3A3E0650A7010EE4F8A828B8370D2C8
:1044C3001244749017F780CDEAFEEBFF8A828B8348
:1044D30012507E80D41219FA800F1244E122124442
:1044E3007C8E828F832212089A7F03020607C08282
:1044F300C08379009017F7800109E0FAA3E08A826C
:10450300F583E582458370F102567F74F51203ABA0
:1045130074EB120932851882851983E4F0A3F090B5
:1045230017F780748E828F83A3A3E0C0E074021216
:104533000B47D0E0125330A982AA8389088A0975F0
:104543000A0078081208687C127D007406120B4773
:104553001264FA12089A7402120902880889097807
:104563000812086C750813750900780812086C7432
:1045730004120B4712526C75F013A4F8AAF075F0ED
:1045830013E91245C512647312089A8518828519B6
:10459300831245D48E828F83123B95EE4F7085A88C
:1045A30018A91988088909780812086C7508027512
:1045B3000900780812086C12646B12089A741502C9
:1045C30044E9A42AF9E82402FCE439FD7A427B0099
:1045D30022E02401F0A3E03400F02274F61203ABCE
:1045E3008C828D83A3A3124837F0EA125B283BF534
:1045F30083E0C0E01247F4D0E0F0EA241DF582E442
:104603003B1244721247D8124832F0A3F0EA241F37
:10461300F582E43BF583123B95EC1247CB3DF583E2
:10462300EEF0A3EFF01247D13BF583124802A3A3A8
:10463300A3A3A3A3EEF0A3EF1257CEFE8C828D8328
:1046430012484174035EFEC3940340030247BEEE67
:10465300600874026E60030246E38C828D83E0542B
:104663000CFE740C6E7003024722E0A2E4400D8836
:10467300828983E08C828D83A312485774086E600D
:10468300030247221247E27401F08A828B83A3A3B9
:10469300A3A3A312531C70148C828D83E0440C12C9
:1046A3004849A3A3124802EEF0A3EFF08C828D8356
:1046B300E0A2E4402B8882124810124825500109D9
:1046C300F582124810A3A3A3A3A3A3F0A3EF124858
:1046D300518C828D83A3A3A3F0E82403F85001092E
:1046E30088828983E0C0E0EC2411F582E43DF58300
:1046F300D0E01248418C828D83E0A2E75075888216
:104703008983E0FE8C828D8312485774FC5E700CA3
:104713008C828D83A3E054036403701E0247BE1290
:1047230047E2E4F0740C6E600302468D88821248FF
:10473300161248255001090246AF8C828D83A3E0EF
:104743005403603288828983E0C0E0EC1247FC3D69
:10475300F583D0E01248588C828D83E054036402C1
:10476300701488828983E0C0E01247EAD0E01248DF
:10477300588003A3E4F0EC12524E3D1264D5EC24AE
:1047830010FEE43DFFEA241DF582E43BF583E0F5EA
:10479300088E828F83E0C3982508F508F0EA241772
:1047A300F8E43BF98882F583E0C39508C0E012473B
:1047B300D8D0E01257CEC39508500A1247D8E4F078
:1047C3001247F4E4F00244042415F582E422EA24B7
:1047D3000DF582E422EC240DF582E43DF58322EC11
:1047E3001252E43DF58322EC2414F582E43DF58373
:1047F30022EC123EF73DF583222413F582E422E0F6
:10480300FEA3E0FF8C828D83A3A3A3A322124816E9
:10481300A3A3228983E0F508A3E0FFE5088C828D3A
:104823008322A3A3A3A3F0A3EFF0E82402F82212A8
:104833004837A322E4F08C828D83A3A3A3221248DA
:104843005FA882A983221235CEA3A3A3A322124871
:104853005FA3E022A312485F08A983221257D7A3BC
:104863002274F41203AB74F31209328A0A8B0BEC31
:10487300FEEDFF8C82F583E0540CF508E0A2E750CF
:1048830006E508D2E7F508E508D2E1F50812531C5E
:104893007006E508D2E4F508E0A2E55006E508D283
:1048A300E5F5087C087D007900AA18AB191210C43D
:1048B3007402120B47E5081264DBC0E07403120BA9
:1048C30047D0E0124EF0E50AF0A3E50BF0740512B1
:1048D3000B471260A5120B47E070777408120B4761
:1048E300124E7A1257C0381260C0C0E07408120B1F
:1048F30047124978D0E01260A0C0E07408120B4759
:1049030012496ED0E0F07408120B47124964E012AA
:104913004E9E124F1F125B89EE24111252F5C0E016
:1049230012495AD0E0F0EE24141252F5C0E0740894
:10493300120B47124E7A2435F582E438F583D0E022
:10494300124EC3C0E07408120B47124E7ED0E01221
:104953005DF3740D022923E82432F582E439F583EB
:10496300221244E1A3A3A3A3A3A322124E8A126299
:104973009F38F58322124E8A2426F582E438F58384
:104983002274F71203AB7E008A828B83A3A3A3A3B3
:10499300A3A3A3A3A3E064046003024A461252DC68
:1049A300E06003024A461252613B1252A6700302B0
:1049B3004A4688828983E054036003024A46E81228
:1049C30052E439F583E0FA8C828D83A3A3E0FBA341
:1049D300E0CB2411F582E43BF583E06A70658882BD
:1049E3008983A3A3A3A3A3A3A3A3A3124A4AE06A0D
:1049F3007003A3E06B704C88828983A3A3124A5689
:104A0300E0FFA3E0CF24061252F56A7003A3E06B24
:104A1300703188828983A3A3E0F88C828D83A3A35A
:104A2300E0F9A3E0F5838982A3A3E06860138C8295
:104A33008D83A3A3A3E0F5838982E0540C640470FF
:104A4300027E01EEF98020124A4E221250868C8299
:104A53008D8322A3A3124A4EA3A322740C120B47E5
:104A6300E0F9740D12089A7F0102060774F6120327
:104A7300AB74FC120932EAFEEBFFECFAEDFB8C821D
:104A8300F583A3E0540360169017E91252A8605906
:104A93007900EEFCEFFD12598012216D804B8518D1
:104AA30082851983EEF0A3EFF07402120B47124EC6
:104AB300E5AC18AD197A0C7B1A121BFE8A088B0918
:104AC300A808A909EA4960218A828B83A3A3A3A327
:104AD300A3A3A3A3A37406F07A0088828B83124E48
:104AE3007A125B49E0F9121B5C740402440174F20C
:104AF3001203AB74F3120932EAFEEBFF8A82F583E9
:104B0300A3A3A3A3A3A3A3A3A3A3E0F50A901A3C7F
:104B1300E0700579BA024E2F750801750900750C0E
:104B230000750D007C087D007900AA18AB191210DE
:104B3300C47405120B477401124EF85404601274C6
:104B430002120B47E0D2E6124EF8540870037508C0
:104B530003E05410600674404508F508E05408600B
:104B6300227402120B47E044C0124EF85420600A2C
:104B73007403120B47E0D2E080087403120B47E082
:104B8300D2E1F0EE24151252F5124E5F7003740158
:104B930069700674084508F5088E828F83A3A3A362
:104BA300A3A3A3A3A3E07016121C5885188285192A
:104BB30083125B967402120B47E0D2E28030640FDB
:104BC30070107402120B47124F0074044508F50865
:104BD300807F8E828F83A3A3A3A3A3A3A3A3E06455
:104BE300028E828F83700A126504E8F0A3E9F080D5
:104BF30060A3A3A3A3A3A3A3A3E06403700DAC18B2
:104C0300AD19EEFAEFFB121A4280468E828F83A310
:104C1300A3A3A3A3A3A3A3E06401703590187DE02D
:104C230060107402120B47124F00750910750AFFCA
:104C330080187402120B47E0440C124EF074FDF01E
:104C4300A374FFF074044508F5088E828F8312283D
:104C530036EE24151252F5A2E0503F7402120B47B0
:104C6300E0540C701B8E828F8312507E1216C4E99F
:104C7300700579BB024E2F7402120B47E0D2E5F0A8
:104C8300EE24151252F5A2E050107402120B47E005
:104C9300540C64047004E0D2E5F0EE24111252F5D2
:104CA300C0E07404120B47D0E01260A7120B47E078
:104CB3006003024E287408120B47124EB9E508F040
:104CC300A3E509F0124E55E0C0E0124E4BD0E0F0E0
:104CD300124E3CE0C0E07408120B47124E7A1247A2
:104CE300FC38F583D0E0124F1F6401701190187DDA
:104CF300E0C0E07408120B47124E94D0E0F0740841
:104D0300120B47124EB4124E46FAE8241CF582E405
:104D130039F583EA124EEBEE2415FAE43FFB8A825F
:104D2300F583126CEEE812552F39F583124EE5EE3A
:104D3300241C1252F5C0E0124E32D0E01256751206
:104D43004E5F700374016970137408120B4712529B
:104D5300C0FAEE241D1252F5F91218CE8E828F83FB
:104D6300A3A3A3A3A3A3A3A3A3E0C0E07408120B6C
:104D730047124978D0E0F07408120B4712496EE5E8
:104D83000AF07408120B4712526C2428F582E43996
:104D9300F583E50CF0A3E50D124ECB124E9E125394
:104DA3003B125B89EE124E46C0E0E82433F582E401
:104DB30039F583D0E0F0EE241B1252F5C0E07408FD
:104DC300120B47124E7ED0E0F0EE241A1252F5C0B9
:104DD300E07408120B47124E7A2432F582E438F558
:104DE30083D0E0124EC3124E6B1208681262A512F2
:104DF3006CEE740B120B47124E7A242F1271CA12E7
:104E0300089AEE24151252F55440601290180D12B0
:104E130052A8600AAA18AB1912598012216DAA1858
:104E2300AB19121A9C740C120B47E0F9025165E896
:104E33002420F582E439F58322EE2419F582E43F38
:104E4300F583221262B4E022E82412F582E439F5F4
:104E53008322EE2418F582E43FF583225480F8A3DD
:104E6300E05401F974806822F508A3E0F509750A96
:104E7300007808221241A5124E8A22124E8A243447
:104E8300F582E438F58322124E8E22E0F8A3E0C8BF
:104E930022124E8A1247CB38F58322FAA3E0FBE8AD
:104EA300242AF582E439F583EAF0A3EB22A3A3A332
:104EB300A3124478EE2212527012526639F58322FD
:104EC300F0EE241312534322F0EE240D1253432227
:104ED300E0FC8A828B83E02CFCA3E03400FD8A8211
:104EE3008B83ECF0A3EDF022F0A3E4F022F085181D
:104EF3008285198322F0EE241512534322E0D2E374
:104F0300F0124F08228E828F8312447C851882858B
:104F13001983E8F0A3E9F022E8F0A3E9125CDCE0EE
:104F23002274F71203AB8A828B83A3E064017004BB
:104F33007E6380027E648A828B83E0600879051237
:104F43004F5824F3FE901825E06007F9124F5824B8
:104F5300F2FE024A46121B26E9F8EEC3982274F6C3
:104F63001203AB74FE120932851882851983125B12
:104F730096E9FEECFAEDFB9004811252A86032A888
:104F830018A91988088909780812086C7D01740E1C
:104F9300120B47E0FCEEF9900481125B6A12216D5B
:104FA300740212089AEA4B60047900800679B28091
:104FB3000279B60243FF74F71203ABE9FE9017DFE1
:104FC3001252A8601F7409120B47E0F50878081203
:104FD3000870EEF99017DF125B6A12216D740112EB
:104FE300089A800279B6024A6A74F71203AB8908F9
:104FF300ECFEEDFF79B5E508245E6020146006241D
:10500300F86034803D900483125048603512653C4B
:1050130012216D8E828F83125B9680249017E1128A
:105023006CEEEC4D601CEEFCEFFD9017E1125B6A39
:1050330012216DE9F9800B9017DD12504E121256B2
:105043007900024A6A125082EA4B22126CF2EEFA9B
:10505300EFFB2274F71203ABE9FE79B574AB6E7004
:105063000B9017DD12507E1212567900024A6A8E97
:10507300828F83A3A3A3A3A3A3A3A3125082221269
:10508300508622E0FAA3E0FB2274F11203ABEAFE9E
:10509300EBFF8C0A8D0B75080190182DE06E7003E1
:1050A300A3E06F700C125159AA0AAB0B121256806F
:1050B3005E121C5EEE6A7002EF6B7009AA0AAB0BFC
:1050C300121C64804AAC0AAD0BEEFAEFFB1217AE6A
:1050D300E9F508901A38E07036122078E97030E567
:1050E30008702C901801E06E7003A3E06F7020EE3F
:1050F3004F601C750CF9750D17750E00780C1208AE
:10510300687C087D00AA0AAB0B1264FE12089AA9F8
:1051130008026DEA74F21203ABEAFEEBFF8C088D12
:1051230009750A01125159EEFAEFFB121250E964A4
:1051330001701190182D1244748508828509831219
:1051430064D7800EAC08AD09EEFAEFFB1217B4E991
:10515300F50AA90A8011121C528A0C8B0DAC0CADF6
:105163000D22740D12089A7F0602060774F61203C5
:10517300ABEAFEEBFF7A0D7B00121166EA4B60622D
:10518300EE242412649DF0EE242512649DA3125292
:10519300271264A3A3A31262D2125202F0EE125199
:1051A300E8125217E8F0A3E912523E12520F1264AA
:1051B300D7EE1251F1126395A3A3A3A3F0EE243308
:1051C3001252F5C0E01251FAD0E01260C412520F2D
:1051D300A3A3A3E8F0A3E9125236C0E01252DCD035
:1051E300E0F0024404242AF582E43FF58322242ECE
:1051F300F582E43FF58322EA1253503BF5832212F2
:10520300520622E08A828B83A3A3A3221263ECA318
:10521300A3A3A32212521B2212447C8A828B83A350
:10522300A3A3A322F012522C22EE2426F582E43FFC
:10523300F58322F0EE243212534322F0EE242C1293
:10524300534322124F15EE1262C022240EF582E45C
:1052530022F8E43FF9E8FCE9FD8882F58322EA12AB
:10526300526622240FF582E4221252702212447CE9
:10527300E8227A007B029016D2E0F912111822126A
:10528300528622124E8E240EF582E438F5832212C2
:10529300529622124E8E240FF582E438F58322F5BE
:1052A30082E438F58312527049221252B122F085FA
:1052B3001882851983E022E0125B6FA322125286C3
:1052C300E0221252C9221264B8F8A3E022C082C0BD
:1052D300831252DCE4F002567FEA1252E43BF58378
:1052E30022240CF582E422FAE43FFB12125622EE4A
:1052F300240C12534322EE1252663FF58322F582A9
:10530300E43509F583E02212530FA322E08E828F46
:105313008322A3E0F9121B2622E054036401221224
:10532300532622E0FAE82AF8E43400F9221253342F
:10533300221260D3A3A3A322F012534022EE240F20
:10534300F582E43FF583E022790102084C240BF552
:1053530082E422A3A3A3A3124F15121C52221257B5
:10536300D2FAA3E022C082C0831252DC7401F0029D
:10537300567F02534BC082C083901803744EF0A330
:10538300741AF0901805745AF0A3741AF090180761
:105393007460F0A3741AF09018097454F0A3741A8B
:1053A300F002567F74F41203ABEA2408FEE43BFFD9
:1053B3008E82F58312526C125B40E0F5087403553C
:1053C30008F5091257F1F8A3E08882F583E508F0A0
:1053D300A3A882A983E50960097402650960030231
:1053E3005494740C5508FC600A74086C60057404CA
:1053F3006C7026740265097006E508A2E4401A8AF7
:10540300828B83A3A3A3A3A3A3A3A312559A12627C
:105413009F3D125535A308A983740C6C701C12555B
:105423009624281255822428F582E43DF583A3129D
:105433005ECDF0E82402F850010974026509700694
:10544300E508A2E4404B125596242A125582242AD9
:10545300F582E43DF583A31255441255A0125ECDA7
:105463001255A0A312553CE82404F8500109EC603E
:105473000F74086C600A740C6C600574046C701112
:10548300125B772426F582E43C125535A3A882A942
:10549300838A828B83A3A3A3A3A3A3A3A312556489
:1054A30054037014E508A2E1400E125B7712552FE6
:1054B3003CF583E05480600812554A125537801931
:1054C3009017D3E0C0E012554AD0E0125577888296
:1054D3008983125577041257D7A3A882A983E508B5
:1054E300A2E750458E828F83125564888289831286
:1054F300557D12556954036030125B772434F5826D
:10550300E43C125ECBF0E508A2E1501D8A828B8356
:10551300A3A3A3A3A3A3A3A31229152435F582E46C
:105523003A125ECBA3F0E82403022926241EF58257
:10553300E422F583125544F022125544A3A3A3F0A9
:1055430022E088828983228A828B83A3A3A3A3A3D5
:10555300A3A3A3E0FCA3E0CC2432F582E43CF583CF
:1055630022E012556922FCA3E0CC2425F582E43C19
:10557300F583E022F09017D3E0221260CFE022F50A
:1055830082E43DF58312554412558F221260D312E3
:10559300559A228E828F83E0FDA3E0CD22A312557C
:1055A3008F242CF582E43DF58322C082C0838A8256
:1055B3008B8312566FFC74035CF98A828B83A3A3DB
:1055C3007401F0E960057402697061740C5CF86041
:1055D3000A740868600574046870137402697005BE
:1055E300ECA2E440098A828B83A3A37402F0740CB7
:1055F30068700A8A828B83A3A3E02402F074026991
:105603007005ECA2E440258A828B83A3A3E02404E3
:10561300F0E8600F740868600A740C68600574042D
:105623006870098A828B83A3A3E004F0ECA2E7509D
:105633002A8A828B83A3A3E004125675122E1FE0DD
:10564300540360178A828B83A3A3E004F0ECA2E1E6
:1056530050098A828B83A3A3E004F08A828B83A3FD
:10566300A3E004F080168518828519831252BAA329
:10567300E022F08A828B83E02212089AD083D082C0
:1056830002084CC082C0838A828B83A3A3A3A3A3F3
:10569300A3A3A3A3A31252A860098A828B83A3A303
:1056A3001256A880D7A3A3A3A3A3A3A3A31256B45C
:1056B3002212508612116C22EE240CF582E43FF57F
:1056C300832274F61203AB74F41209321257FDFCF1
:1056D300A3E0F5838C82A3E0C0E07402120B47D0F1
:1056E300E012586E1258577404120B471264D774A1
:1056F30002120B47E0640470141258132412125759
:10570300F67406120B471257DD241A8035E0640144
:105713006005E064067039EA2402F8E43B122910BC
:105723001257C03AF583E0C0E07403120B47D0E090
:105733001257CE24131257F67406120B471257DD75
:10574300241B1258577408120B47E8F0A3E9802B67
:105753007406120B47E4F0A312580E24121257F6E4
:105763007408120B471257EAC8241AF582E438F575
:1057730083E0C0E0740A120B47D0E0F07406120B0A
:10578300471252A8601F7406120B4712507E12175D
:10579300A2E96401700F1257B47406120B47125733
:1057A300C664017007AA18AB19121ADE740C0244FE
:1057B30001121C528A088B09AC08AD09222412F588
:1057C30082E422125082121250E9221257D222127C
:1057D30057D7E022F088828983221257E122EAF028
:1057E300A3EB1257D7E0221257E1F8A3E02212618C
:1057F3002DE022FAA3E03400FB228A828B83A3A349
:10580300A3A3A3A3126508E8F0A3E9F01258132297
:10581300125874E022C082C08374FD1209321258F8
:1058230042122E19C0E07402120B47D0E012583C0A
:10583300121AE4740302567CE4F0AA18AB19228A04
:10584300828B83A3A3A3A3A3A3124F0C8A828B836C
:10585300A3A3E022F8A3E03400F922A3A31258ADD6
:1058630022E02402F8A3E03400F9221257D22402E2
:1058730022EA2402F8E43BF98882F58322E0FAA3C2
:10588300E0F5838A82A3222424F582E43FF5832270
:10589300E50E123EF7350FF583E0FC7D00228A8288
:1058A3008B831258AB24FB22A3A3125B6EE022C0AE
:1058B30082C0831258A1600624FC60078008121A74
:1058C3007E8003121A8402567F74F61203AB74E4CB
:1058D300120932EAFEEBFF74011209128A828B83EA
:1058E300A3A3A3A3A3A312598A74091209028808C4
:1058F3008909780812086C740212091274031209D8
:105903000A125C9312089A851882851983E060361F
:10591300741A120B47E060046401702A9017B4E014
:1059230070248E828F83A3A3A3A3A3E070188E8217
:105933008F83125984603F8E828F83A3A3A312594E
:1059430080E0640760308E828F83A3A3A3A3A3A305
:10595300A3A3E070148E828F8312585E64056009DE
:105963007A347B01121580800DEEFAEFFB90180B51
:10597300125B6A12216D741C024401EEF9125B7111
:10598300221258AB640622125082121A3C2274F47B
:105993001203AB74FA120932EAFEEBFF122E25242E
:1059A30008F582E43B125B9C240AF582E438125B1F
:1059B3009C125B4912583B121A72125669F508126F
:1059C3005B34851882851983126539E0687003A3F7
:1059D300E069602EE508A2E55028851882851983C1
:1059E300A3E0FB901803125B6A12216D8518828570
:1059F3001983124E7A240A1252A27006125669C2F1
:105A0300E5F01252F26003025B1D7403120B47743C
:105A130036F07402120B47125B56A3A3E028C0E0D2
:105A23007404120B47D0E0125330A3A3E0C0E07418
:105A330005120B47D0E0125CD5F8A3E0F9E8496002
:105A43001BE8125B2839F583E0FAE8125B2E39F57F
:105A530083E02AF87404120B47E028F07403120958
:105A63000A1217F68A088B09A808A909EA497003DC
:105A7300025B128E828F8312507E88828983A3A356
:105A8300125B96E81257C0391260C0C0E0E8125B9F
:105A930040D0E01260A0C0E0E82425F582E439F5A7
:105AA30083D0E0125CE2C0E0E8242EF582E439F50D
:105AB30083D0E0F07402120B47E0FA1257F12AFC8C
:105AC300A3E03400FDE8125B2239F583124EE5E8CA
:105AD3002431F582E439F583EA125CD5FAA3E0FBBD
:105AE300EA4B6019E8242FFAE439FB8E828F83A3F3
:105AF300A3125B7B125B2E3CF583124ED38E828FF7
:105B030083A3A3A3A3A3A3A3A3E8F0A3E9800AEE1B
:105B1300FAEFFB121A78125B50F074060229232461
:105B23002FF582E4222417F582E4222416F582E479
